{
  "contractName": "TestERC721",
  "abi": [
    {
      "inputs": [
        {
          "internalType": "string",
          "name": "_name",
          "type": "string"
        },
        {
          "internalType": "string",
          "name": "_symbol",
          "type": "string"
        }
      ],
      "stateMutability": "nonpayable",
      "type": "constructor"
    },
    {
      "anonymous": false,
      "inputs": [
        {
          "indexed": true,
          "internalType": "address",
          "name": "owner",
          "type": "address"
        },
        {
          "indexed": true,
          "internalType": "address",
          "name": "approved",
          "type": "address"
        },
        {
          "indexed": true,
          "internalType": "uint256",
          "name": "tokenId",
          "type": "uint256"
        }
      ],
      "name": "Approval",
      "type": "event"
    },
    {
      "anonymous": false,
      "inputs": [
        {
          "indexed": true,
          "internalType": "address",
          "name": "owner",
          "type": "address"
        },
        {
          "indexed": true,
          "internalType": "address",
          "name": "operator",
          "type": "address"
        },
        {
          "indexed": false,
          "internalType": "bool",
          "name": "approved",
          "type": "bool"
        }
      ],
      "name": "ApprovalForAll",
      "type": "event"
    },
    {
      "anonymous": false,
      "inputs": [
        {
          "indexed": true,
          "internalType": "address",
          "name": "prevOwner",
          "type": "address"
        },
        {
          "indexed": true,
          "internalType": "address",
          "name": "newOwner",
          "type": "address"
        }
      ],
      "name": "OwnerUpdated",
      "type": "event"
    },
    {
      "anonymous": false,
      "inputs": [
        {
          "indexed": true,
          "internalType": "uint256",
          "name": "index",
          "type": "uint256"
        },
        {
          "indexed": false,
          "internalType": "string",
          "name": "revealedURI",
          "type": "string"
        }
      ],
      "name": "TokenURIRevealed",
      "type": "event"
    },
    {
      "anonymous": false,
      "inputs": [
        {
          "indexed": true,
          "internalType": "address",
          "name": "from",
          "type": "address"
        },
        {
          "indexed": true,
          "internalType": "address",
          "name": "to",
          "type": "address"
        },
        {
          "indexed": true,
          "internalType": "uint256",
          "name": "tokenId",
          "type": "uint256"
        }
      ],
      "name": "Transfer",
      "type": "event"
    },
    {
      "inputs": [
        {
          "internalType": "address",
          "name": "to",
          "type": "address"
        },
        {
          "internalType": "uint256",
          "name": "tokenId",
          "type": "uint256"
        }
      ],
      "name": "approve",
      "outputs": [],
      "stateMutability": "nonpayable",
      "type": "function"
    },
    {
      "inputs": [
        {
          "internalType": "address",
          "name": "owner",
          "type": "address"
        }
      ],
      "name": "balanceOf",
      "outputs": [
        {
          "internalType": "uint256",
          "name": "",
          "type": "uint256"
        }
      ],
      "stateMutability": "view",
      "type": "function"
    },
    {
      "inputs": [],
      "name": "baseURI",
      "outputs": [
        {
          "internalType": "string",
          "name": "",
          "type": "string"
        }
      ],
      "stateMutability": "view",
      "type": "function"
    },
    {
      "inputs": [
        {
          "internalType": "uint256",
          "name": "tokenId",
          "type": "uint256"
        }
      ],
      "name": "getApproved",
      "outputs": [
        {
          "internalType": "address",
          "name": "",
          "type": "address"
        }
      ],
      "stateMutability": "view",
      "type": "function"
    },
    {
      "inputs": [
        {
          "internalType": "address",
          "name": "owner",
          "type": "address"
        },
        {
          "internalType": "address",
          "name": "operator",
          "type": "address"
        }
      ],
      "name": "isApprovedForAll",
      "outputs": [
        {
          "internalType": "bool",
          "name": "",
          "type": "bool"
        }
      ],
      "stateMutability": "view",
      "type": "function"
    },
    {
      "inputs": [],
      "name": "name",
      "outputs": [
        {
          "internalType": "string",
          "name": "",
          "type": "string"
        }
      ],
      "stateMutability": "view",
      "type": "function"
    },
    {
      "inputs": [],
      "name": "owner",
      "outputs": [
        {
          "internalType": "address",
          "name": "",
          "type": "address"
        }
      ],
      "stateMutability": "view",
      "type": "function"
    },
    {
      "inputs": [
        {
          "internalType": "uint256",
          "name": "tokenId",
          "type": "uint256"
        }
      ],
      "name": "ownerOf",
      "outputs": [
        {
          "internalType": "address",
          "name": "",
          "type": "address"
        }
      ],
      "stateMutability": "view",
      "type": "function"
    },
    {
      "inputs": [],
      "name": "renderingContract",
      "outputs": [
        {
          "internalType": "contract ITokenURIGenerator",
          "name": "",
          "type": "address"
        }
      ],
      "stateMutability": "view",
      "type": "function"
    },
    {
      "inputs": [
        {
          "internalType": "address",
          "name": "from",
          "type": "address"
        },
        {
          "internalType": "address",
          "name": "to",
          "type": "address"
        },
        {
          "internalType": "uint256",
          "name": "tokenId",
          "type": "uint256"
        }
      ],
      "name": "safeTransferFrom",
      "outputs": [],
      "stateMutability": "nonpayable",
      "type": "function"
    },
    {
      "inputs": [
        {
          "internalType": "address",
          "name": "from",
          "type": "address"
        },
        {
          "internalType": "address",
          "name": "to",
          "type": "address"
        },
        {
          "internalType": "uint256",
          "name": "tokenId",
          "type": "uint256"
        },
        {
          "internalType": "bytes",
          "name": "_data",
          "type": "bytes"
        }
      ],
      "name": "safeTransferFrom",
      "outputs": [],
      "stateMutability": "nonpayable",
      "type": "function"
    },
    {
      "inputs": [
        {
          "internalType": "address",
          "name": "operator",
          "type": "address"
        },
        {
          "internalType": "bool",
          "name": "approved",
          "type": "bool"
        }
      ],
      "name": "setApprovalForAll",
      "outputs": [],
      "stateMutability": "nonpayable",
      "type": "function"
    },
    {
      "inputs": [
        {
          "internalType": "address",
          "name": "_newOwner",
          "type": "address"
        }
      ],
      "name": "setOwner",
      "outputs": [],
      "stateMutability": "nonpayable",
      "type": "function"
    },
    {
      "inputs": [
        {
          "internalType": "bytes4",
          "name": "interfaceId",
          "type": "bytes4"
        }
      ],
      "name": "supportsInterface",
      "outputs": [
        {
          "internalType": "bool",
          "name": "",
          "type": "bool"
        }
      ],
      "stateMutability": "view",
      "type": "function"
    },
    {
      "inputs": [],
      "name": "symbol",
      "outputs": [
        {
          "internalType": "string",
          "name": "",
          "type": "string"
        }
      ],
      "stateMutability": "view",
      "type": "function"
    },
    {
      "inputs": [
        {
          "internalType": "uint256",
          "name": "index",
          "type": "uint256"
        }
      ],
      "name": "tokenByIndex",
      "outputs": [
        {
          "internalType": "uint256",
          "name": "",
          "type": "uint256"
        }
      ],
      "stateMutability": "view",
      "type": "function"
    },
    {
      "inputs": [
        {
          "internalType": "address",
          "name": "owner",
          "type": "address"
        },
        {
          "internalType": "uint256",
          "name": "index",
          "type": "uint256"
        }
      ],
      "name": "tokenOfOwnerByIndex",
      "outputs": [
        {
          "internalType": "uint256",
          "name": "",
          "type": "uint256"
        }
      ],
      "stateMutability": "view",
      "type": "function"
    },
    {
      "inputs": [
        {
          "internalType": "uint256",
          "name": "tokenId",
          "type": "uint256"
        }
      ],
      "name": "tokenURI",
      "outputs": [
        {
          "internalType": "string",
          "name": "",
          "type": "string"
        }
      ],
      "stateMutability": "view",
      "type": "function"
    },
    {
      "inputs": [],
      "name": "totalSupply",
      "outputs": [
        {
          "internalType": "uint256",
          "name": "",
          "type": "uint256"
        }
      ],
      "stateMutability": "view",
      "type": "function"
    },
    {
      "inputs": [
        {
          "internalType": "address",
          "name": "from",
          "type": "address"
        },
        {
          "internalType": "address",
          "name": "to",
          "type": "address"
        },
        {
          "internalType": "uint256",
          "name": "tokenId",
          "type": "uint256"
        }
      ],
      "name": "transferFrom",
      "outputs": [],
      "stateMutability": "nonpayable",
      "type": "function"
    },
    {
      "inputs": [
        {
          "internalType": "address",
          "name": "to",
          "type": "address"
        },
        {
          "internalType": "uint256",
          "name": "tokenId",
          "type": "uint256"
        }
      ],
      "name": "mint",
      "outputs": [],
      "stateMutability": "nonpayable",
      "type": "function"
    },
    {
      "inputs": [
        {
          "internalType": "string",
          "name": "uri",
          "type": "string"
        }
      ],
      "name": "setBaseURI",
      "outputs": [],
      "stateMutability": "nonpayable",
      "type": "function"
    },
    {
      "inputs": [
        {
          "internalType": "contract ITokenURIGenerator",
          "name": "_contract",
          "type": "address"
        }
      ],
      "name": "setRenderingContract",
      "outputs": [],
      "stateMutability": "nonpayable",
      "type": "function"
    },
    {
      "inputs": [
        {
          "internalType": "uint256",
          "name": "_index",
          "type": "uint256"
        }
      ],
      "name": "reveal",
      "outputs": [],
      "stateMutability": "nonpayable",
      "type": "function"
    },
    {
      "inputs": [
        {
          "internalType": "uint256",
          "name": "_index",
          "type": "uint256"
        }
      ],
      "name": "getBatchIdAtIndex",
      "outputs": [
        {
          "internalType": "uint256",
          "name": "",
          "type": "uint256"
        }
      ],
      "stateMutability": "view",
      "type": "function"
    },
    {
      "inputs": [
        {
          "internalType": "address",
          "name": "to",
          "type": "address"
        },
        {
          "internalType": "uint256[]",
          "name": "tokenIds",
          "type": "uint256[]"
        },
        {
          "internalType": "address",
          "name": "currency",
          "type": "address"
        },
        {
          "internalType": "uint256",
          "name": "pricePerToken",
          "type": "uint256"
        }
      ],
      "name": "mintWithPrice",
      "outputs": [],
      "stateMutability": "nonpayable",
      "type": "function"
    }
  ],
  "bytecode": "0x60806040523480156200001157600080fd5b506040516200262f3803806200262f833981810160405260408110156200003757600080fd5b81019080805160405193929190846401000000008211156200005857600080fd5b9083019060208201858111156200006e57600080fd5b82516401000000008111828201881017156200008957600080fd5b82525081516020918201929091019080838360005b83811015620000b85781810151838201526020016200009e565b50505050905090810190601f168015620000e65780820380516001836020036101000a031916815260200191505b50604052602001805160405193929190846401000000008211156200010a57600080fd5b9083019060208201858111156200012057600080fd5b82516401000000008111828201881017156200013b57600080fd5b82525081516020918201929091019080838360005b838110156200016a57818101518382015260200162000150565b50505050905090810190601f168015620001985780820380516001836020036101000a031916815260200191505b50604052505050620001b18282620001c460201b60201c565b620001bc3362000290565b50506200067d565b600054610100900460ff1680620001e05750620001e0620002e2565b80620001ef575060005460ff16155b6200022c5760405162461bcd60e51b815260040180806020018281038252602e81526020018062002601602e913960400191505060405180910390fd5b600054610100900460ff1615801562000258576000805460ff1961ff0019909116610100171660011790555b6200026262000300565b6200026c620003aa565b62000278838362000450565b80156200028b576000805461ff00191690555b505050565b609780546001600160a01b038381166001600160a01b0319831681179093556040519116919082907f8292fce18fa69edf4db7b94ea2e58241df0ae57f97e0a6c9b29067028bf92d7690600090a35050565b6000620002fa306200054660201b620010ef1760201c565b15905090565b600054610100900460ff16806200031c57506200031c620002e2565b806200032b575060005460ff16155b620003685760405162461bcd60e51b815260040180806020018281038252602e81526020018062002601602e913960400191505060405180910390fd5b600054610100900460ff1615801562000394576000805460ff1961ff0019909116610100171660011790555b8015620003a7576000805461ff00191690555b50565b600054610100900460ff1680620003c65750620003c6620002e2565b80620003d5575060005460ff16155b620004125760405162461bcd60e51b815260040180806020018281038252602e81526020018062002601602e913960400191505060405180910390fd5b600054610100900460ff161580156200043e576000805460ff1961ff0019909116610100171660011790555b620003946301ffc9a760e01b6200054c565b600054610100900460ff16806200046c57506200046c620002e2565b806200047b575060005460ff16155b620004b85760405162461bcd60e51b815260040180806020018281038252602e81526020018062002601602e913960400191505060405180910390fd5b600054610100900460ff16158015620004e4576000805460ff1961ff0019909116610100171660011790555b8251620004f990606a906020860190620005d1565b5081516200050f90606b906020850190620005d1565b50620005226380ac58cd60e01b6200054c565b62000534635b5e139f60e01b6200054c565b6200027863780e9d6360e01b6200054c565b3b151590565b6001600160e01b03198082161415620005ac576040805162461bcd60e51b815260206004820152601c60248201527f4552433136353a20696e76616c696420696e7465726661636520696400000000604482015290519081900360640190fd5b6001600160e01b0319166000908152603360205260409020805460ff19166001179055565b828054600181600116156101000203166002900490600052602060002090601f01602090048101928262000609576000855562000654565b82601f106200062457805160ff191683800117855562000654565b8280016001018555821562000654579182015b828111156200065457825182559160200191906001019062000637565b506200066292915062000666565b5090565b5b8082111562000662576000815560010162000667565b611f74806200068d6000396000f3fe608060405234801561001057600080fd5b506004361061018e5760003560e01c80636352211e116100de578063a22cb46511610097578063c2ca0ac511610071578063c2ca0ac514610696578063c7fecbcc146106b3578063c87b56dd146106bb578063e985e9c5146106d85761018e565b8063a22cb4651461057c578063b7f1d072146105aa578063b88d4fde146105d05761018e565b80636352211e1461046057806363b495891461047d5780636c0360eb1461053e57806370a08231146105465780638da5cb5b1461056c57806395d89b41146105745761018e565b806323b872dd1161014b57806340c10f191161012557806340c10f191461037157806342842e0e1461039d5780634f6ccce7146103d357806355f804b3146103f05761018e565b806323b872dd146102f25780632419f51b146103285780632f745c59146103455761018e565b806301ffc9a71461019357806306fdde03146101ce578063081812fc1461024b578063095ea7b31461028457806313af4035146102b257806318160ddd146102d8575b600080fd5b6101ba600480360360208110156101a957600080fd5b50356001600160e01b031916610706565b604080519115158252519081900360200190f35b6101d6610729565b6040805160208082528351818301528351919283929083019185019080838360005b838110156102105781810151838201526020016101f8565b50505050905090810190601f16801561023d5780820380516001836020036101000a031916815260200191505b509250505060405180910390f35b6102686004803603602081101561026157600080fd5b50356107bf565b604080516001600160a01b039092168252519081900360200190f35b6102b06004803603604081101561029a57600080fd5b506001600160a01b038135169060200135610821565b005b6102b0600480360360208110156102c857600080fd5b50356001600160a01b03166108fc565b6102e0610950565b60408051918252519081900360200190f35b6102b06004803603606081101561030857600080fd5b506001600160a01b03813581169160208101359091169060400135610961565b6102e06004803603602081101561033e57600080fd5b50356109b8565b6102e06004803603604081101561035b57600080fd5b506001600160a01b0381351690602001356109be565b6102b06004803603604081101561038757600080fd5b506001600160a01b0381351690602001356109e9565b6102b0600480360360608110156103b357600080fd5b506001600160a01b038135811691602081013590911690604001356109f7565b6102e0600480360360208110156103e957600080fd5b5035610a12565b6102b06004803603602081101561040657600080fd5b81019060208101813564010000000081111561042157600080fd5b82018360208201111561043357600080fd5b8035906020019184600183028401116401000000008311171561045557600080fd5b5090925090506109f3565b6102686004803603602081101561047657600080fd5b5035610a28565b6102b06004803603608081101561049357600080fd5b6001600160a01b0382351691908101906040810160208201356401000000008111156104be57600080fd5b8201836020820111156104d057600080fd5b803590602001918460208302840111640100000000831117156104f257600080fd5b919080806020026020016040519081016040528093929190818152602001838360200280828437600092019190915250929550506001600160a01b038335169350505060200135610a50565b6101d6610b26565b6102e06004803603602081101561055c57600080fd5b50356001600160a01b0316610b87565b610268610bef565b6101d6610bfe565b6102b06004803603604081101561059257600080fd5b506001600160a01b0381351690602001351515610c5f565b6102b0600480360360208110156105c057600080fd5b50356001600160a01b0316610d64565b6102b0600480360360808110156105e657600080fd5b6001600160a01b0382358116926020810135909116916040820135919081019060808101606082013564010000000081111561062157600080fd5b82018360208201111561063357600080fd5b8035906020019184600183028401116401000000008311171561065557600080fd5b91908080601f016020809104026020016040519081016040528093929190818152602001838380828437600092019190915250929550610d86945050505050565b6102b0600480360360208110156106ac57600080fd5b5035610de4565b610268610e31565b6101d6600480360360208110156106d157600080fd5b5035610e40565b6101ba600480360360408110156106ee57600080fd5b506001600160a01b03813581169160200135166110c1565b6001600160e01b0319811660009081526033602052604090205460ff165b919050565b606a8054604080516020601f60026000196101006001881615020190951694909404938401819004810282018101909252828152606093909290918301828280156107b55780601f1061078a576101008083540402835291602001916107b5565b820191906000526020600020905b81548152906001019060200180831161079857829003601f168201915b5050505050905090565b60006107ca826110f5565b6108055760405162461bcd60e51b815260040180806020018281038252602c815260200180611e69602c913960400191505060405180910390fd5b506000908152606860205260409020546001600160a01b031690565b600061082c82610a28565b9050806001600160a01b0316836001600160a01b0316141561087f5760405162461bcd60e51b8152600401808060200182810382526021815260200180611eed6021913960400191505060405180910390fd5b806001600160a01b0316610891611102565b6001600160a01b031614806108b257506108b2816108ad611102565b6110c1565b6108ed5760405162461bcd60e51b8152600401808060200182810382526038815260200180611dbc6038913960400191505060405180910390fd5b6108f78383611106565b505050565b610904611174565b610944576040805162461bcd60e51b815260206004820152600c60248201526b1d5b985d5d1a1bdc9a5e995960a21b604482015290519081900360640190fd5b61094d81611197565b50565b600061095c60666111e9565b905090565b61097261096c611102565b826111f4565b6109ad5760405162461bcd60e51b8152600401808060200182810382526031815260200180611f0e6031913960400191505060405180910390fd5b6108f7838383611298565b50600a90565b6001600160a01b03821660009081526065602052604081206109e090836113e4565b90505b92915050565b6109f382826113f0565b5050565b6108f783838360405180602001604052806000815250610d86565b600080610a2060668461151e565b509392505050565b60006109e382604051806060016040528060298152602001611e1e602991396066919061153a565b60005b8351811015610a8157610a7985858381518110610a6c57fe5b60200260200101516113f0565b600101610a53565b50816001600160a01b03166323b872dd33610a9a610bef565b865185026040518463ffffffff1660e01b815260040180846001600160a01b03168152602001836001600160a01b031681526020018281526020019350505050602060405180830381600087803b158015610af457600080fd5b505af1158015610b08573d6000803e3d6000fd5b505050506040513d6020811015610b1e57600080fd5b505050505050565b606d8054604080516020601f60026000196101006001881615020190951694909404938401819004810282018101909252828152606093909290918301828280156107b55780601f1061078a576101008083540402835291602001916107b5565b60006001600160a01b038216610bce5760405162461bcd60e51b815260040180806020018281038252602a815260200180611df4602a913960400191505060405180910390fd5b6001600160a01b03821660009081526065602052604090206109e3906111e9565b6097546001600160a01b031690565b606b8054604080516020601f60026000196101006001881615020190951694909404938401819004810282018101909252828152606093909290918301828280156107b55780601f1061078a576101008083540402835291602001916107b5565b610c67611102565b6001600160a01b0316826001600160a01b03161415610ccd576040805162461bcd60e51b815260206004820152601960248201527f4552433732313a20617070726f766520746f2063616c6c657200000000000000604482015290519081900360640190fd5b8060696000610cda611102565b6001600160a01b03908116825260208083019390935260409182016000908120918716808252919093529120805460ff191692151592909217909155610d1e611102565b6001600160a01b03167f17307eab39ab6107e8899845ad3d59bd9653f200f220920489ca2b5937696c318360405180821515815260200191505060405180910390a35050565b609880546001600160a01b0319166001600160a01b0392909216919091179055565b610d97610d91611102565b836111f4565b610dd25760405162461bcd60e51b8152600401808060200182810382526031815260200180611f0e6031913960400191505060405180910390fd5b610dde84848484611551565b50505050565b604080516020808252600490820152631d195cdd60e21b81830152905182917f6df1d8db2a036436ffe0b2d1833f2c5f1e624818dfce2578c0faa4b83ef9998d919081900360600190a250565b6098546001600160a01b031681565b6060610e4b826110f5565b610e865760405162461bcd60e51b815260040180806020018281038252602f815260200180611ebe602f913960400191505060405180910390fd5b6000828152606c602090815260408083208054825160026001831615610100026000190190921691909104601f810185900485028201850190935282815292909190830182828015610f195780601f10610eee57610100808354040283529160200191610f19565b820191906000526020600020905b815481529060010190602001808311610efc57829003601f168201915b505050505090506000610f2a610b26565b9050805160001415610f3e57509050610724565b815115610fff5780826040516020018083805190602001908083835b60208310610f795780518252601f199092019160209182019101610f5a565b51815160209384036101000a600019018019909216911617905285519190930192850191508083835b60208310610fc15780518252601f199092019160209182019101610fa2565b6001836020036101000a0380198251168184511680821785525050505050509050019250505060405160208183030381529060405292505050610724565b80611009856115a3565b6040516020018083805190602001908083835b6020831061103b5780518252601f19909201916020918201910161101c565b51815160209384036101000a600019018019909216911617905285519190930192850191508083835b602083106110835780518252601f199092019160209182019101611064565b6001836020036101000a0380198251168184511680821785525050505050509050019250505060405160208183030381529060405292505050919050565b6001600160a01b03918216600090815260696020908152604080832093909416825291909152205460ff1690565b3b151590565b60006109e360668361167e565b3390565b600081815260686020526040902080546001600160a01b0319166001600160a01b038416908117909155819061113b82610a28565b6001600160a01b03167f8c5be1e5ebec7d5bd14f71427d1e84f3dd0314c0f7b2291e5b200ac8c7c3b92560405160405180910390a45050565b600061117e610bef565b6001600160a01b0316336001600160a01b031614905090565b609780546001600160a01b038381166001600160a01b0319831681179093556040519116919082907f8292fce18fa69edf4db7b94ea2e58241df0ae57f97e0a6c9b29067028bf92d7690600090a35050565b60006109e38261168a565b60006111ff826110f5565b61123a5760405162461bcd60e51b815260040180806020018281038252602c815260200180611d90602c913960400191505060405180910390fd5b600061124583610a28565b9050806001600160a01b0316846001600160a01b031614806112805750836001600160a01b0316611275846107bf565b6001600160a01b0316145b80611290575061129081856110c1565b949350505050565b826001600160a01b03166112ab82610a28565b6001600160a01b0316146112f05760405162461bcd60e51b8152600401808060200182810382526029815260200180611e956029913960400191505060405180910390fd5b6001600160a01b0382166113355760405162461bcd60e51b8152600401808060200182810382526024815260200180611d6c6024913960400191505060405180910390fd5b6113408383836108f7565b61134b600082611106565b6001600160a01b038316600090815260656020526040902061136d908261168e565b506001600160a01b0382166000908152606560205260409020611390908261169a565b5061139d606682846116a6565b5080826001600160a01b0316846001600160a01b03167fddf252ad1be2c89b69c2b068fc378daa952ba7f163c4a11628f55a4df523b3ef60405160405180910390a4505050565b60006109e083836116bc565b6001600160a01b03821661144b576040805162461bcd60e51b815260206004820181905260248201527f4552433732313a206d696e7420746f20746865207a65726f2061646472657373604482015290519081900360640190fd5b611454816110f5565b156114a6576040805162461bcd60e51b815260206004820152601c60248201527f4552433732313a20746f6b656e20616c7265616479206d696e74656400000000604482015290519081900360640190fd5b6114b2600083836108f7565b6001600160a01b03821660009081526065602052604090206114d4908261169a565b506114e1606682846116a6565b5060405181906001600160a01b038416906000907fddf252ad1be2c89b69c2b068fc378daa952ba7f163c4a11628f55a4df523b3ef908290a45050565b600080808061152d8686611720565b9097909650945050505050565b600061154784848461179b565b90505b9392505050565b61155c848484611298565b61156884848484611865565b610dde5760405162461bcd60e51b8152600401808060200182810382526032815260200180611d3a6032913960400191505060405180910390fd5b6060816115c857506040805180820190915260018152600360fc1b6020820152610724565b8160005b81156115e057600101600a820491506115cc565b60008167ffffffffffffffff811180156115f957600080fd5b506040519080825280601f01601f191660200182016040528015611624576020820181803683370190505b50859350905060001982015b831561167557600a840660300160f81b8282806001900393508151811061165357fe5b60200101906001600160f81b031916908160001a905350600a84049350611630565b50949350505050565b60006109e083836119cd565b5490565b60006109e083836119e5565b60006109e08383611aab565b600061154784846001600160a01b038516611af5565b815460009082106116fe5760405162461bcd60e51b8152600401808060200182810382526022815260200180611d186022913960400191505060405180910390fd5b82600001828154811061170d57fe5b9060005260206000200154905092915050565b8154600090819083106117645760405162461bcd60e51b8152600401808060200182810382526022815260200180611e476022913960400191505060405180910390fd5b600084600001848154811061177557fe5b906000526020600020906002020190508060000154816001015492509250509250929050565b600082815260018401602052604081205482816118365760405162461bcd60e51b81526004018080602001828103825283818151815260200191508051906020019080838360005b838110156117fb5781810151838201526020016117e3565b50505050905090810190601f1680156118285780820380516001836020036101000a031916815260200191505b509250505060405180910390fd5b5084600001600182038154811061184957fe5b9060005260206000209060020201600101549150509392505050565b6000611879846001600160a01b03166110ef565b61188557506001611290565b6000611993630a85bd0160e11b61189a611102565b88878760405160240180856001600160a01b03168152602001846001600160a01b0316815260200183815260200180602001828103825283818151815260200191508051906020019080838360005b838110156119015781810151838201526020016118e9565b50505050905090810190601f16801561192e5780820380516001836020036101000a031916815260200191505b5095505050505050604051602081830303815290604052906001600160e01b0319166020820180516001600160e01b038381831617835250505050604051806060016040528060328152602001611d3a603291396001600160a01b0388169190611b8c565b905060008180602001905160208110156119ac57600080fd5b50516001600160e01b031916630a85bd0160e11b1492505050949350505050565b60009081526001919091016020526040902054151590565b60008181526001830160205260408120548015611aa15783546000198083019190810190600090879083908110611a1857fe5b9060005260206000200154905080876000018481548110611a3557fe5b600091825260208083209091019290925582815260018981019092526040902090840190558654879080611a6557fe5b600190038181906000526020600020016000905590558660010160008781526020019081526020016000206000905560019450505050506109e3565b60009150506109e3565b6000611ab783836119cd565b611aed575081546001818101845560008481526020808220909301849055845484825282860190935260409020919091556109e3565b5060006109e3565b600082815260018401602052604081205480611b5a57505060408051808201825283815260208082018481528654600181810189556000898152848120955160029093029095019182559151908201558654868452818801909252929091205561154a565b82856000016001830381548110611b6d57fe5b906000526020600020906002020160010181905550600091505061154a565b6060611547848460008585611ba0856110ef565b611bf1576040805162461bcd60e51b815260206004820152601d60248201527f416464726573733a2063616c6c20746f206e6f6e2d636f6e7472616374000000604482015290519081900360640190fd5b600080866001600160a01b031685876040518082805190602001908083835b60208310611c2f5780518252601f199092019160209182019101611c10565b6001836020036101000a03801982511681845116808217855250505050505090500191505060006040518083038185875af1925050503d8060008114611c91576040519150601f19603f3d011682016040523d82523d6000602084013e611c96565b606091505b5091509150611ca6828286611cb1565b979650505050505050565b60608315611cc057508161154a565b825115611cd05782518084602001fd5b60405162461bcd60e51b81526020600482018181528451602484015284518593919283926044019190850190808383600083156117fb5781810151838201526020016117e356fe456e756d657261626c655365743a20696e646578206f7574206f6620626f756e64734552433732313a207472616e7366657220746f206e6f6e20455243373231526563656976657220696d706c656d656e7465724552433732313a207472616e7366657220746f20746865207a65726f20616464726573734552433732313a206f70657261746f7220717565727920666f72206e6f6e6578697374656e7420746f6b656e4552433732313a20617070726f76652063616c6c6572206973206e6f74206f776e6572206e6f7220617070726f76656420666f7220616c6c4552433732313a2062616c616e636520717565727920666f7220746865207a65726f20616464726573734552433732313a206f776e657220717565727920666f72206e6f6e6578697374656e7420746f6b656e456e756d657261626c654d61703a20696e646578206f7574206f6620626f756e64734552433732313a20617070726f76656420717565727920666f72206e6f6e6578697374656e7420746f6b656e4552433732313a207472616e73666572206f6620746f6b656e2074686174206973206e6f74206f776e4552433732314d657461646174613a2055524920717565727920666f72206e6f6e6578697374656e7420746f6b656e4552433732313a20617070726f76616c20746f2063757272656e74206f776e65724552433732313a207472616e736665722063616c6c6572206973206e6f74206f776e6572206e6f7220617070726f766564a26469706673582212204ce7aeb4c4de6bbdfb325d469713369b78c6b50a87ca18c0161dfc70ac05581564736f6c63430007060033496e697469616c697a61626c653a20636f6e747261637420697320616c726561647920696e697469616c697a6564",
  "immutableReferences": {},
  "source": "// SPDX-License-Identifier: MIT\n\npragma solidity 0.7.6;\n\nimport \"@openzeppelin/contracts-upgradeable/token/ERC721/ERC721Upgradeable.sol\";\nimport \"@openzeppelin/contracts-upgradeable/token/ERC20/IERC20Upgradeable.sol\";\nimport \"./dependencies/Ownable.sol\";\n\ninterface ITokenURIGenerator {\n    function tokenURI(uint tokenId) external view returns (string memory);\n}\n\ncontract TestERC721 is ERC721Upgradeable, Ownable {\n    ITokenURIGenerator public renderingContract;\n\n    constructor(string memory _name, string memory _symbol) public {\n        __ERC721_init(_name, _symbol);\n        _setupOwner(msg.sender);\n    }\n\n    function mint(address to, uint tokenId) external {\n        _mint(to, tokenId);\n    }\n\n    function setBaseURI(string calldata uri) external {\n\n    }\n\n    function setRenderingContract(ITokenURIGenerator _contract) external {\n        renderingContract = _contract;\n    }\n\n    function reveal(uint256 _index) external {\n        emit TokenURIRevealed(_index, \"test\");\n    }\n\n    function getBatchIdAtIndex(uint256 _index) external view returns (uint256) {\n        return 10;\n    }\n\n    function _canSetOwner() internal virtual view override returns (bool) {\n        return msg.sender == owner();\n    }\n\n    function mintWithPrice(address to, uint[] memory tokenIds, address currency, uint256 pricePerToken) external {\n        for(uint i=0; i<tokenIds.length; i++) {\n            _mint(to, tokenIds[i]);\n        }\n        IERC20Upgradeable(currency).transferFrom(msg.sender, owner(), pricePerToken * tokenIds.length);\n    }\n\n    event TokenURIRevealed(uint256 indexed index, string revealedURI);\n}\n",
  "sourcePath": "/Users/dmitry/workspaces/workspace-rarible/protocol-contracts/projects/tokens-test/contracts/TestERC721.sol",
  "compiler": {
    "name": "solc",
    "version": "0.7.6+commit.7338295f.Emscripten.clang"
  },
  "schemaVersion": "3.4.14",
  "updatedAt": "2024-06-19T08:16:28.710Z",
  "devdoc": {
    "kind": "dev",
    "methods": {
      "approve(address,uint256)": {
        "details": "See {IERC721-approve}."
      },
      "balanceOf(address)": {
        "details": "See {IERC721-balanceOf}."
      },
      "baseURI()": {
        "details": "Returns the base URI set via {_setBaseURI}. This will be automatically added as a prefix in {tokenURI} to each token's URI, or to the token ID if no specific URI is set for that token ID."
      },
      "getApproved(uint256)": {
        "details": "See {IERC721-getApproved}."
      },
      "isApprovedForAll(address,address)": {
        "details": "See {IERC721-isApprovedForAll}."
      },
      "name()": {
        "details": "See {IERC721Metadata-name}."
      },
      "ownerOf(uint256)": {
        "details": "See {IERC721-ownerOf}."
      },
      "safeTransferFrom(address,address,uint256)": {
        "details": "See {IERC721-safeTransferFrom}."
      },
      "safeTransferFrom(address,address,uint256,bytes)": {
        "details": "See {IERC721-safeTransferFrom}."
      },
      "setApprovalForAll(address,bool)": {
        "details": "See {IERC721-setApprovalForAll}."
      },
      "setOwner(address)": {
        "params": {
          "_newOwner": "The address to set as the new owner of the contract."
        }
      },
      "supportsInterface(bytes4)": {
        "details": "See {IERC165-supportsInterface}. Time complexity O(1), guaranteed to always use less than 30 000 gas."
      },
      "symbol()": {
        "details": "See {IERC721Metadata-symbol}."
      },
      "tokenByIndex(uint256)": {
        "details": "See {IERC721Enumerable-tokenByIndex}."
      },
      "tokenOfOwnerByIndex(address,uint256)": {
        "details": "See {IERC721Enumerable-tokenOfOwnerByIndex}."
      },
      "tokenURI(uint256)": {
        "details": "See {IERC721Metadata-tokenURI}."
      },
      "totalSupply()": {
        "details": "See {IERC721Enumerable-totalSupply}."
      },
      "transferFrom(address,address,uint256)": {
        "details": "See {IERC721-transferFrom}."
      }
    },
    "version": 1
  },
  "userdoc": {
    "kind": "user",
    "methods": {
      "owner()": {
        "notice": "Returns the owner of the contract."
      },
      "setOwner(address)": {
        "notice": "Lets an authorized wallet set a new owner for the contract."
      }
    },
    "version": 1
  }
}