{
  "contractName": "TestERC721",
  "abi": [
    {
      "inputs": [
        {
          "internalType": "string",
          "name": "_name",
          "type": "string"
        },
        {
          "internalType": "string",
          "name": "_symbol",
          "type": "string"
        }
      ],
      "stateMutability": "nonpayable",
      "type": "constructor"
    },
    {
      "anonymous": false,
      "inputs": [
        {
          "indexed": true,
          "internalType": "address",
          "name": "owner",
          "type": "address"
        },
        {
          "indexed": true,
          "internalType": "address",
          "name": "approved",
          "type": "address"
        },
        {
          "indexed": true,
          "internalType": "uint256",
          "name": "tokenId",
          "type": "uint256"
        }
      ],
      "name": "Approval",
      "type": "event"
    },
    {
      "anonymous": false,
      "inputs": [
        {
          "indexed": true,
          "internalType": "address",
          "name": "owner",
          "type": "address"
        },
        {
          "indexed": true,
          "internalType": "address",
          "name": "operator",
          "type": "address"
        },
        {
          "indexed": false,
          "internalType": "bool",
          "name": "approved",
          "type": "bool"
        }
      ],
      "name": "ApprovalForAll",
      "type": "event"
    },
    {
      "anonymous": false,
      "inputs": [
        {
          "indexed": true,
          "internalType": "address",
          "name": "prevOwner",
          "type": "address"
        },
        {
          "indexed": true,
          "internalType": "address",
          "name": "newOwner",
          "type": "address"
        }
      ],
      "name": "OwnerUpdated",
      "type": "event"
    },
    {
      "anonymous": false,
      "inputs": [
        {
          "indexed": true,
          "internalType": "uint256",
          "name": "index",
          "type": "uint256"
        },
        {
          "indexed": false,
          "internalType": "string",
          "name": "revealedURI",
          "type": "string"
        }
      ],
      "name": "TokenURIRevealed",
      "type": "event"
    },
    {
      "anonymous": false,
      "inputs": [
        {
          "indexed": true,
          "internalType": "address",
          "name": "from",
          "type": "address"
        },
        {
          "indexed": true,
          "internalType": "address",
          "name": "to",
          "type": "address"
        },
        {
          "indexed": true,
          "internalType": "uint256",
          "name": "tokenId",
          "type": "uint256"
        }
      ],
      "name": "Transfer",
      "type": "event"
    },
    {
      "inputs": [
        {
          "internalType": "address",
          "name": "to",
          "type": "address"
        },
        {
          "internalType": "uint256",
          "name": "tokenId",
          "type": "uint256"
        }
      ],
      "name": "approve",
      "outputs": [],
      "stateMutability": "nonpayable",
      "type": "function"
    },
    {
      "inputs": [
        {
          "internalType": "address",
          "name": "owner",
          "type": "address"
        }
      ],
      "name": "balanceOf",
      "outputs": [
        {
          "internalType": "uint256",
          "name": "",
          "type": "uint256"
        }
      ],
      "stateMutability": "view",
      "type": "function"
    },
    {
      "inputs": [],
      "name": "baseURI",
      "outputs": [
        {
          "internalType": "string",
          "name": "",
          "type": "string"
        }
      ],
      "stateMutability": "view",
      "type": "function"
    },
    {
      "inputs": [
        {
          "internalType": "uint256",
          "name": "tokenId",
          "type": "uint256"
        }
      ],
      "name": "getApproved",
      "outputs": [
        {
          "internalType": "address",
          "name": "",
          "type": "address"
        }
      ],
      "stateMutability": "view",
      "type": "function"
    },
    {
      "inputs": [
        {
          "internalType": "address",
          "name": "owner",
          "type": "address"
        },
        {
          "internalType": "address",
          "name": "operator",
          "type": "address"
        }
      ],
      "name": "isApprovedForAll",
      "outputs": [
        {
          "internalType": "bool",
          "name": "",
          "type": "bool"
        }
      ],
      "stateMutability": "view",
      "type": "function"
    },
    {
      "inputs": [],
      "name": "name",
      "outputs": [
        {
          "internalType": "string",
          "name": "",
          "type": "string"
        }
      ],
      "stateMutability": "view",
      "type": "function"
    },
    {
      "inputs": [],
      "name": "owner",
      "outputs": [
        {
          "internalType": "address",
          "name": "",
          "type": "address"
        }
      ],
      "stateMutability": "view",
      "type": "function"
    },
    {
      "inputs": [
        {
          "internalType": "uint256",
          "name": "tokenId",
          "type": "uint256"
        }
      ],
      "name": "ownerOf",
      "outputs": [
        {
          "internalType": "address",
          "name": "",
          "type": "address"
        }
      ],
      "stateMutability": "view",
      "type": "function"
    },
    {
      "inputs": [
        {
          "internalType": "address",
          "name": "from",
          "type": "address"
        },
        {
          "internalType": "address",
          "name": "to",
          "type": "address"
        },
        {
          "internalType": "uint256",
          "name": "tokenId",
          "type": "uint256"
        }
      ],
      "name": "safeTransferFrom",
      "outputs": [],
      "stateMutability": "nonpayable",
      "type": "function"
    },
    {
      "inputs": [
        {
          "internalType": "address",
          "name": "from",
          "type": "address"
        },
        {
          "internalType": "address",
          "name": "to",
          "type": "address"
        },
        {
          "internalType": "uint256",
          "name": "tokenId",
          "type": "uint256"
        },
        {
          "internalType": "bytes",
          "name": "_data",
          "type": "bytes"
        }
      ],
      "name": "safeTransferFrom",
      "outputs": [],
      "stateMutability": "nonpayable",
      "type": "function"
    },
    {
      "inputs": [
        {
          "internalType": "address",
          "name": "operator",
          "type": "address"
        },
        {
          "internalType": "bool",
          "name": "approved",
          "type": "bool"
        }
      ],
      "name": "setApprovalForAll",
      "outputs": [],
      "stateMutability": "nonpayable",
      "type": "function"
    },
    {
      "inputs": [
        {
          "internalType": "address",
          "name": "_newOwner",
          "type": "address"
        }
      ],
      "name": "setOwner",
      "outputs": [],
      "stateMutability": "nonpayable",
      "type": "function"
    },
    {
      "inputs": [
        {
          "internalType": "bytes4",
          "name": "interfaceId",
          "type": "bytes4"
        }
      ],
      "name": "supportsInterface",
      "outputs": [
        {
          "internalType": "bool",
          "name": "",
          "type": "bool"
        }
      ],
      "stateMutability": "view",
      "type": "function"
    },
    {
      "inputs": [],
      "name": "symbol",
      "outputs": [
        {
          "internalType": "string",
          "name": "",
          "type": "string"
        }
      ],
      "stateMutability": "view",
      "type": "function"
    },
    {
      "inputs": [
        {
          "internalType": "uint256",
          "name": "index",
          "type": "uint256"
        }
      ],
      "name": "tokenByIndex",
      "outputs": [
        {
          "internalType": "uint256",
          "name": "",
          "type": "uint256"
        }
      ],
      "stateMutability": "view",
      "type": "function"
    },
    {
      "inputs": [
        {
          "internalType": "address",
          "name": "owner",
          "type": "address"
        },
        {
          "internalType": "uint256",
          "name": "index",
          "type": "uint256"
        }
      ],
      "name": "tokenOfOwnerByIndex",
      "outputs": [
        {
          "internalType": "uint256",
          "name": "",
          "type": "uint256"
        }
      ],
      "stateMutability": "view",
      "type": "function"
    },
    {
      "inputs": [
        {
          "internalType": "uint256",
          "name": "tokenId",
          "type": "uint256"
        }
      ],
      "name": "tokenURI",
      "outputs": [
        {
          "internalType": "string",
          "name": "",
          "type": "string"
        }
      ],
      "stateMutability": "view",
      "type": "function"
    },
    {
      "inputs": [],
      "name": "totalSupply",
      "outputs": [
        {
          "internalType": "uint256",
          "name": "",
          "type": "uint256"
        }
      ],
      "stateMutability": "view",
      "type": "function"
    },
    {
      "inputs": [
        {
          "internalType": "address",
          "name": "from",
          "type": "address"
        },
        {
          "internalType": "address",
          "name": "to",
          "type": "address"
        },
        {
          "internalType": "uint256",
          "name": "tokenId",
          "type": "uint256"
        }
      ],
      "name": "transferFrom",
      "outputs": [],
      "stateMutability": "nonpayable",
      "type": "function"
    },
    {
      "inputs": [
        {
          "internalType": "address",
          "name": "to",
          "type": "address"
        },
        {
          "internalType": "uint256",
          "name": "tokenId",
          "type": "uint256"
        }
      ],
      "name": "mint",
      "outputs": [],
      "stateMutability": "nonpayable",
      "type": "function"
    },
    {
      "inputs": [
        {
          "internalType": "string",
          "name": "uri",
          "type": "string"
        }
      ],
      "name": "setBaseURI",
      "outputs": [],
      "stateMutability": "nonpayable",
      "type": "function"
    },
    {
      "inputs": [
        {
          "internalType": "uint256",
          "name": "_index",
          "type": "uint256"
        }
      ],
      "name": "reveal",
      "outputs": [],
      "stateMutability": "nonpayable",
      "type": "function"
    },
    {
      "inputs": [
        {
          "internalType": "uint256",
          "name": "_index",
          "type": "uint256"
        }
      ],
      "name": "getBatchIdAtIndex",
      "outputs": [
        {
          "internalType": "uint256",
          "name": "",
          "type": "uint256"
        }
      ],
      "stateMutability": "view",
      "type": "function"
    },
    {
      "inputs": [
        {
          "internalType": "address",
          "name": "to",
          "type": "address"
        },
        {
          "internalType": "uint256[]",
          "name": "tokenIds",
          "type": "uint256[]"
        },
        {
          "internalType": "address",
          "name": "currency",
          "type": "address"
        },
        {
          "internalType": "uint256",
          "name": "pricePerToken",
          "type": "uint256"
        }
      ],
      "name": "mintWithPrice",
      "outputs": [],
      "stateMutability": "nonpayable",
      "type": "function"
    }
  ],
  "bytecode": "0x60806040523480156200001157600080fd5b506040516200259a3803806200259a833981810160405260408110156200003757600080fd5b81019080805160405193929190846401000000008211156200005857600080fd5b9083019060208201858111156200006e57600080fd5b82516401000000008111828201881017156200008957600080fd5b82525081516020918201929091019080838360005b83811015620000b85781810151838201526020016200009e565b50505050905090810190601f168015620000e65780820380516001836020036101000a031916815260200191505b50604052602001805160405193929190846401000000008211156200010a57600080fd5b9083019060208201858111156200012057600080fd5b82516401000000008111828201881017156200013b57600080fd5b82525081516020918201929091019080838360005b838110156200016a57818101518382015260200162000150565b50505050905090810190601f168015620001985780820380516001836020036101000a031916815260200191505b50604052505050620001b18282620001c460201b60201c565b620001bc3362000290565b50506200067d565b600054610100900460ff1680620001e05750620001e0620002e2565b80620001ef575060005460ff16155b6200022c5760405162461bcd60e51b815260040180806020018281038252602e8152602001806200256c602e913960400191505060405180910390fd5b600054610100900460ff1615801562000258576000805460ff1961ff0019909116610100171660011790555b6200026262000300565b6200026c620003aa565b62000278838362000450565b80156200028b576000805461ff00191690555b505050565b609780546001600160a01b038381166001600160a01b0319831681179093556040519116919082907f8292fce18fa69edf4db7b94ea2e58241df0ae57f97e0a6c9b29067028bf92d7690600090a35050565b6000620002fa306200054660201b6200105a1760201c565b15905090565b600054610100900460ff16806200031c57506200031c620002e2565b806200032b575060005460ff16155b620003685760405162461bcd60e51b815260040180806020018281038252602e8152602001806200256c602e913960400191505060405180910390fd5b600054610100900460ff1615801562000394576000805460ff1961ff0019909116610100171660011790555b8015620003a7576000805461ff00191690555b50565b600054610100900460ff1680620003c65750620003c6620002e2565b80620003d5575060005460ff16155b620004125760405162461bcd60e51b815260040180806020018281038252602e8152602001806200256c602e913960400191505060405180910390fd5b600054610100900460ff161580156200043e576000805460ff1961ff0019909116610100171660011790555b620003946301ffc9a760e01b6200054c565b600054610100900460ff16806200046c57506200046c620002e2565b806200047b575060005460ff16155b620004b85760405162461bcd60e51b815260040180806020018281038252602e8152602001806200256c602e913960400191505060405180910390fd5b600054610100900460ff16158015620004e4576000805460ff1961ff0019909116610100171660011790555b8251620004f990606a906020860190620005d1565b5081516200050f90606b906020850190620005d1565b50620005226380ac58cd60e01b6200054c565b62000534635b5e139f60e01b6200054c565b6200027863780e9d6360e01b6200054c565b3b151590565b6001600160e01b03198082161415620005ac576040805162461bcd60e51b815260206004820152601c60248201527f4552433136353a20696e76616c696420696e7465726661636520696400000000604482015290519081900360640190fd5b6001600160e01b0319166000908152603360205260409020805460ff19166001179055565b828054600181600116156101000203166002900490600052602060002090601f01602090048101928262000609576000855562000654565b82601f106200062457805160ff191683800117855562000654565b8280016001018555821562000654579182015b828111156200065457825182559160200191906001019062000637565b506200066292915062000666565b5090565b5b8082111562000662576000815560010162000667565b611edf806200068d6000396000f3fe608060405234801561001057600080fd5b50600436106101585760003560e01c806355f804b3116100c357806395d89b411161007c57806395d89b411461053e578063a22cb46514610546578063b88d4fde14610574578063c2ca0ac51461063a578063c87b56dd14610657578063e985e9c51461067457610158565b806355f804b3146103ba5780636352211e1461042a57806363b49589146104475780636c0360eb1461050857806370a08231146105105780638da5cb5b1461053657610158565b806323b872dd1161011557806323b872dd146102bc5780632419f51b146102f25780632f745c591461030f57806340c10f191461033b57806342842e0e146103675780634f6ccce71461039d57610158565b806301ffc9a71461015d57806306fdde0314610198578063081812fc14610215578063095ea7b31461024e57806313af40351461027c57806318160ddd146102a2575b600080fd5b6101846004803603602081101561017357600080fd5b50356001600160e01b0319166106a2565b604080519115158252519081900360200190f35b6101a06106c5565b6040805160208082528351818301528351919283929083019185019080838360005b838110156101da5781810151838201526020016101c2565b50505050905090810190601f1680156102075780820380516001836020036101000a031916815260200191505b509250505060405180910390f35b6102326004803603602081101561022b57600080fd5b503561075b565b604080516001600160a01b039092168252519081900360200190f35b61027a6004803603604081101561026457600080fd5b506001600160a01b0381351690602001356107bd565b005b61027a6004803603602081101561029257600080fd5b50356001600160a01b0316610898565b6102aa6108ec565b60408051918252519081900360200190f35b61027a600480360360608110156102d257600080fd5b506001600160a01b038135811691602081013590911690604001356108fd565b6102aa6004803603602081101561030857600080fd5b5035610954565b6102aa6004803603604081101561032557600080fd5b506001600160a01b03813516906020013561095a565b61027a6004803603604081101561035157600080fd5b506001600160a01b038135169060200135610985565b61027a6004803603606081101561037d57600080fd5b506001600160a01b03813581169160208101359091169060400135610993565b6102aa600480360360208110156103b357600080fd5b50356109ae565b61027a600480360360208110156103d057600080fd5b8101906020810181356401000000008111156103eb57600080fd5b8201836020820111156103fd57600080fd5b8035906020019184600183028401116401000000008311171561041f57600080fd5b50909250905061098f565b6102326004803603602081101561044057600080fd5b50356109c4565b61027a6004803603608081101561045d57600080fd5b6001600160a01b03823516919081019060408101602082013564010000000081111561048857600080fd5b82018360208201111561049a57600080fd5b803590602001918460208302840111640100000000831117156104bc57600080fd5b919080806020026020016040519081016040528093929190818152602001838360200280828437600092019190915250929550506001600160a01b0383351693505050602001356109ec565b6101a0610ac2565b6102aa6004803603602081101561052657600080fd5b50356001600160a01b0316610b23565b610232610b8b565b6101a0610b9a565b61027a6004803603604081101561055c57600080fd5b506001600160a01b0381351690602001351515610bfb565b61027a6004803603608081101561058a57600080fd5b6001600160a01b038235811692602081013590911691604082013591908101906080810160608201356401000000008111156105c557600080fd5b8201836020820111156105d757600080fd5b803590602001918460018302840111640100000000831117156105f957600080fd5b91908080601f016020809104026020016040519081016040528093929190818152602001838380828437600092019190915250929550610d00945050505050565b61027a6004803603602081101561065057600080fd5b5035610d5e565b6101a06004803603602081101561066d57600080fd5b5035610dab565b6101846004803603604081101561068a57600080fd5b506001600160a01b038135811691602001351661102c565b6001600160e01b0319811660009081526033602052604090205460ff165b919050565b606a8054604080516020601f60026000196101006001881615020190951694909404938401819004810282018101909252828152606093909290918301828280156107515780601f1061072657610100808354040283529160200191610751565b820191906000526020600020905b81548152906001019060200180831161073457829003601f168201915b5050505050905090565b600061076682611060565b6107a15760405162461bcd60e51b815260040180806020018281038252602c815260200180611dd4602c913960400191505060405180910390fd5b506000908152606860205260409020546001600160a01b031690565b60006107c8826109c4565b9050806001600160a01b0316836001600160a01b0316141561081b5760405162461bcd60e51b8152600401808060200182810382526021815260200180611e586021913960400191505060405180910390fd5b806001600160a01b031661082d61106d565b6001600160a01b0316148061084e575061084e8161084961106d565b61102c565b6108895760405162461bcd60e51b8152600401808060200182810382526038815260200180611d276038913960400191505060405180910390fd5b6108938383611071565b505050565b6108a06110df565b6108e0576040805162461bcd60e51b815260206004820152600c60248201526b1d5b985d5d1a1bdc9a5e995960a21b604482015290519081900360640190fd5b6108e981611102565b50565b60006108f86066611154565b905090565b61090e61090861106d565b8261115f565b6109495760405162461bcd60e51b8152600401808060200182810382526031815260200180611e796031913960400191505060405180910390fd5b610893838383611203565b50600a90565b6001600160a01b038216600090815260656020526040812061097c908361134f565b90505b92915050565b61098f828261135b565b5050565b61089383838360405180602001604052806000815250610d00565b6000806109bc606684611489565b509392505050565b600061097f82604051806060016040528060298152602001611d8960299139606691906114a5565b60005b8351811015610a1d57610a1585858381518110610a0857fe5b602002602001015161135b565b6001016109ef565b50816001600160a01b03166323b872dd33610a36610b8b565b865185026040518463ffffffff1660e01b815260040180846001600160a01b03168152602001836001600160a01b031681526020018281526020019350505050602060405180830381600087803b158015610a9057600080fd5b505af1158015610aa4573d6000803e3d6000fd5b505050506040513d6020811015610aba57600080fd5b505050505050565b606d8054604080516020601f60026000196101006001881615020190951694909404938401819004810282018101909252828152606093909290918301828280156107515780601f1061072657610100808354040283529160200191610751565b60006001600160a01b038216610b6a5760405162461bcd60e51b815260040180806020018281038252602a815260200180611d5f602a913960400191505060405180910390fd5b6001600160a01b038216600090815260656020526040902061097f90611154565b6097546001600160a01b031690565b606b8054604080516020601f60026000196101006001881615020190951694909404938401819004810282018101909252828152606093909290918301828280156107515780601f1061072657610100808354040283529160200191610751565b610c0361106d565b6001600160a01b0316826001600160a01b03161415610c69576040805162461bcd60e51b815260206004820152601960248201527f4552433732313a20617070726f766520746f2063616c6c657200000000000000604482015290519081900360640190fd5b8060696000610c7661106d565b6001600160a01b03908116825260208083019390935260409182016000908120918716808252919093529120805460ff191692151592909217909155610cba61106d565b6001600160a01b03167f17307eab39ab6107e8899845ad3d59bd9653f200f220920489ca2b5937696c318360405180821515815260200191505060405180910390a35050565b610d11610d0b61106d565b8361115f565b610d4c5760405162461bcd60e51b8152600401808060200182810382526031815260200180611e796031913960400191505060405180910390fd5b610d58848484846114bc565b50505050565b604080516020808252600490820152631d195cdd60e21b81830152905182917f6df1d8db2a036436ffe0b2d1833f2c5f1e624818dfce2578c0faa4b83ef9998d919081900360600190a250565b6060610db682611060565b610df15760405162461bcd60e51b815260040180806020018281038252602f815260200180611e29602f913960400191505060405180910390fd5b6000828152606c602090815260408083208054825160026001831615610100026000190190921691909104601f810185900485028201850190935282815292909190830182828015610e845780601f10610e5957610100808354040283529160200191610e84565b820191906000526020600020905b815481529060010190602001808311610e6757829003601f168201915b505050505090506000610e95610ac2565b9050805160001415610ea9575090506106c0565b815115610f6a5780826040516020018083805190602001908083835b60208310610ee45780518252601f199092019160209182019101610ec5565b51815160209384036101000a600019018019909216911617905285519190930192850191508083835b60208310610f2c5780518252601f199092019160209182019101610f0d565b6001836020036101000a03801982511681845116808217855250505050505090500192505050604051602081830303815290604052925050506106c0565b80610f748561150e565b6040516020018083805190602001908083835b60208310610fa65780518252601f199092019160209182019101610f87565b51815160209384036101000a600019018019909216911617905285519190930192850191508083835b60208310610fee5780518252601f199092019160209182019101610fcf565b6001836020036101000a0380198251168184511680821785525050505050509050019250505060405160208183030381529060405292505050919050565b6001600160a01b03918216600090815260696020908152604080832093909416825291909152205460ff1690565b3b151590565b600061097f6066836115e9565b3390565b600081815260686020526040902080546001600160a01b0319166001600160a01b03841690811790915581906110a6826109c4565b6001600160a01b03167f8c5be1e5ebec7d5bd14f71427d1e84f3dd0314c0f7b2291e5b200ac8c7c3b92560405160405180910390a45050565b60006110e9610b8b565b6001600160a01b0316336001600160a01b031614905090565b609780546001600160a01b038381166001600160a01b0319831681179093556040519116919082907f8292fce18fa69edf4db7b94ea2e58241df0ae57f97e0a6c9b29067028bf92d7690600090a35050565b600061097f826115f5565b600061116a82611060565b6111a55760405162461bcd60e51b815260040180806020018281038252602c815260200180611cfb602c913960400191505060405180910390fd5b60006111b0836109c4565b9050806001600160a01b0316846001600160a01b031614806111eb5750836001600160a01b03166111e08461075b565b6001600160a01b0316145b806111fb57506111fb818561102c565b949350505050565b826001600160a01b0316611216826109c4565b6001600160a01b03161461125b5760405162461bcd60e51b8152600401808060200182810382526029815260200180611e006029913960400191505060405180910390fd5b6001600160a01b0382166112a05760405162461bcd60e51b8152600401808060200182810382526024815260200180611cd76024913960400191505060405180910390fd5b6112ab838383610893565b6112b6600082611071565b6001600160a01b03831660009081526065602052604090206112d890826115f9565b506001600160a01b03821660009081526065602052604090206112fb9082611605565b5061130860668284611611565b5080826001600160a01b0316846001600160a01b03167fddf252ad1be2c89b69c2b068fc378daa952ba7f163c4a11628f55a4df523b3ef60405160405180910390a4505050565b600061097c8383611627565b6001600160a01b0382166113b6576040805162461bcd60e51b815260206004820181905260248201527f4552433732313a206d696e7420746f20746865207a65726f2061646472657373604482015290519081900360640190fd5b6113bf81611060565b15611411576040805162461bcd60e51b815260206004820152601c60248201527f4552433732313a20746f6b656e20616c7265616479206d696e74656400000000604482015290519081900360640190fd5b61141d60008383610893565b6001600160a01b038216600090815260656020526040902061143f9082611605565b5061144c60668284611611565b5060405181906001600160a01b038416906000907fddf252ad1be2c89b69c2b068fc378daa952ba7f163c4a11628f55a4df523b3ef908290a45050565b6000808080611498868661168b565b9097909650945050505050565b60006114b2848484611706565b90505b9392505050565b6114c7848484611203565b6114d3848484846117d0565b610d585760405162461bcd60e51b8152600401808060200182810382526032815260200180611ca56032913960400191505060405180910390fd5b60608161153357506040805180820190915260018152600360fc1b60208201526106c0565b8160005b811561154b57600101600a82049150611537565b60008167ffffffffffffffff8111801561156457600080fd5b506040519080825280601f01601f19166020018201604052801561158f576020820181803683370190505b50859350905060001982015b83156115e057600a840660300160f81b828280600190039350815181106115be57fe5b60200101906001600160f81b031916908160001a905350600a8404935061159b565b50949350505050565b600061097c8383611938565b5490565b600061097c8383611950565b600061097c8383611a16565b60006114b284846001600160a01b038516611a60565b815460009082106116695760405162461bcd60e51b8152600401808060200182810382526022815260200180611c836022913960400191505060405180910390fd5b82600001828154811061167857fe5b9060005260206000200154905092915050565b8154600090819083106116cf5760405162461bcd60e51b8152600401808060200182810382526022815260200180611db26022913960400191505060405180910390fd5b60008460000184815481106116e057fe5b906000526020600020906002020190508060000154816001015492509250509250929050565b600082815260018401602052604081205482816117a15760405162461bcd60e51b81526004018080602001828103825283818151815260200191508051906020019080838360005b8381101561176657818101518382015260200161174e565b50505050905090810190601f1680156117935780820380516001836020036101000a031916815260200191505b509250505060405180910390fd5b508460000160018203815481106117b457fe5b9060005260206000209060020201600101549150509392505050565b60006117e4846001600160a01b031661105a565b6117f0575060016111fb565b60006118fe630a85bd0160e11b61180561106d565b88878760405160240180856001600160a01b03168152602001846001600160a01b0316815260200183815260200180602001828103825283818151815260200191508051906020019080838360005b8381101561186c578181015183820152602001611854565b50505050905090810190601f1680156118995780820380516001836020036101000a031916815260200191505b5095505050505050604051602081830303815290604052906001600160e01b0319166020820180516001600160e01b038381831617835250505050604051806060016040528060328152602001611ca5603291396001600160a01b0388169190611af7565b9050600081806020019051602081101561191757600080fd5b50516001600160e01b031916630a85bd0160e11b1492505050949350505050565b60009081526001919091016020526040902054151590565b60008181526001830160205260408120548015611a0c578354600019808301919081019060009087908390811061198357fe5b90600052602060002001549050808760000184815481106119a057fe5b6000918252602080832090910192909255828152600189810190925260409020908401905586548790806119d057fe5b6001900381819060005260206000200160009055905586600101600087815260200190815260200160002060009055600194505050505061097f565b600091505061097f565b6000611a228383611938565b611a585750815460018181018455600084815260208082209093018490558454848252828601909352604090209190915561097f565b50600061097f565b600082815260018401602052604081205480611ac55750506040805180820182528381526020808201848152865460018181018955600089815284812095516002909302909501918255915190820155865486845281880190925292909120556114b5565b82856000016001830381548110611ad857fe5b90600052602060002090600202016001018190555060009150506114b5565b60606114b2848460008585611b0b8561105a565b611b5c576040805162461bcd60e51b815260206004820152601d60248201527f416464726573733a2063616c6c20746f206e6f6e2d636f6e7472616374000000604482015290519081900360640190fd5b600080866001600160a01b031685876040518082805190602001908083835b60208310611b9a5780518252601f199092019160209182019101611b7b565b6001836020036101000a03801982511681845116808217855250505050505090500191505060006040518083038185875af1925050503d8060008114611bfc576040519150601f19603f3d011682016040523d82523d6000602084013e611c01565b606091505b5091509150611c11828286611c1c565b979650505050505050565b60608315611c2b5750816114b5565b825115611c3b5782518084602001fd5b60405162461bcd60e51b815260206004820181815284516024840152845185939192839260440191908501908083836000831561176657818101518382015260200161174e56fe456e756d657261626c655365743a20696e646578206f7574206f6620626f756e64734552433732313a207472616e7366657220746f206e6f6e20455243373231526563656976657220696d706c656d656e7465724552433732313a207472616e7366657220746f20746865207a65726f20616464726573734552433732313a206f70657261746f7220717565727920666f72206e6f6e6578697374656e7420746f6b656e4552433732313a20617070726f76652063616c6c6572206973206e6f74206f776e6572206e6f7220617070726f76656420666f7220616c6c4552433732313a2062616c616e636520717565727920666f7220746865207a65726f20616464726573734552433732313a206f776e657220717565727920666f72206e6f6e6578697374656e7420746f6b656e456e756d657261626c654d61703a20696e646578206f7574206f6620626f756e64734552433732313a20617070726f76656420717565727920666f72206e6f6e6578697374656e7420746f6b656e4552433732313a207472616e73666572206f6620746f6b656e2074686174206973206e6f74206f776e4552433732314d657461646174613a2055524920717565727920666f72206e6f6e6578697374656e7420746f6b656e4552433732313a20617070726f76616c20746f2063757272656e74206f776e65724552433732313a207472616e736665722063616c6c6572206973206e6f74206f776e6572206e6f7220617070726f766564a2646970667358221220c3bd1abf868615a90af16e7e6dda932e682649679e2410ec126f9f5f132450f564736f6c63430007060033496e697469616c697a61626c653a20636f6e747261637420697320616c726561647920696e697469616c697a6564",
  "immutableReferences": {},
  "source": "// SPDX-License-Identifier: MIT\n\npragma solidity 0.7.6;\n\nimport \"@openzeppelin/contracts-upgradeable/token/ERC721/ERC721Upgradeable.sol\";\nimport \"@openzeppelin/contracts-upgradeable/token/ERC20/IERC20Upgradeable.sol\";\nimport \"./dependencies/Ownable.sol\";\n\ncontract TestERC721 is ERC721Upgradeable, Ownable {\n    constructor(string memory _name, string memory _symbol) public {\n        __ERC721_init(_name, _symbol);\n        _setupOwner(msg.sender);\n    }\n\n    function mint(address to, uint tokenId) external {\n        _mint(to, tokenId);\n    }\n\n    function setBaseURI(string calldata uri) external {\n\n    }\n\n    function reveal(uint256 _index) external {\n        emit TokenURIRevealed(_index, \"test\");\n    }\n\n    function getBatchIdAtIndex(uint256 _index) external view returns (uint256) {\n        return 10;\n    }\n\n    function _canSetOwner() internal virtual view override returns (bool) {\n        return msg.sender == owner();\n    }\n\n    function mintWithPrice(address to, uint[] memory tokenIds, address currency, uint256 pricePerToken) external {\n        for(uint i=0; i<tokenIds.length; i++) {\n            _mint(to, tokenIds[i]);\n        }\n        IERC20Upgradeable(currency).transferFrom(msg.sender, owner(), pricePerToken * tokenIds.length);\n    }\n\n    event TokenURIRevealed(uint256 indexed index, string revealedURI);\n}\n",
  "sourcePath": "/Users/dmitry/workspaces/workspace-rarible/protocol-contracts/projects/tokens-test/contracts/TestERC721.sol",
  "compiler": {
    "name": "solc",
    "version": "0.7.6+commit.7338295f.Emscripten.clang"
  },
  "schemaVersion": "3.4.14",
  "updatedAt": "2024-05-24T07:52:24.198Z",
  "devdoc": {
    "kind": "dev",
    "methods": {
      "approve(address,uint256)": {
        "details": "See {IERC721-approve}."
      },
      "balanceOf(address)": {
        "details": "See {IERC721-balanceOf}."
      },
      "baseURI()": {
        "details": "Returns the base URI set via {_setBaseURI}. This will be automatically added as a prefix in {tokenURI} to each token's URI, or to the token ID if no specific URI is set for that token ID."
      },
      "getApproved(uint256)": {
        "details": "See {IERC721-getApproved}."
      },
      "isApprovedForAll(address,address)": {
        "details": "See {IERC721-isApprovedForAll}."
      },
      "name()": {
        "details": "See {IERC721Metadata-name}."
      },
      "ownerOf(uint256)": {
        "details": "See {IERC721-ownerOf}."
      },
      "safeTransferFrom(address,address,uint256)": {
        "details": "See {IERC721-safeTransferFrom}."
      },
      "safeTransferFrom(address,address,uint256,bytes)": {
        "details": "See {IERC721-safeTransferFrom}."
      },
      "setApprovalForAll(address,bool)": {
        "details": "See {IERC721-setApprovalForAll}."
      },
      "setOwner(address)": {
        "params": {
          "_newOwner": "The address to set as the new owner of the contract."
        }
      },
      "supportsInterface(bytes4)": {
        "details": "See {IERC165-supportsInterface}. Time complexity O(1), guaranteed to always use less than 30 000 gas."
      },
      "symbol()": {
        "details": "See {IERC721Metadata-symbol}."
      },
      "tokenByIndex(uint256)": {
        "details": "See {IERC721Enumerable-tokenByIndex}."
      },
      "tokenOfOwnerByIndex(address,uint256)": {
        "details": "See {IERC721Enumerable-tokenOfOwnerByIndex}."
      },
      "tokenURI(uint256)": {
        "details": "See {IERC721Metadata-tokenURI}."
      },
      "totalSupply()": {
        "details": "See {IERC721Enumerable-totalSupply}."
      },
      "transferFrom(address,address,uint256)": {
        "details": "See {IERC721-transferFrom}."
      }
    },
    "version": 1
  },
  "userdoc": {
    "kind": "user",
    "methods": {
      "owner()": {
        "notice": "Returns the owner of the contract."
      },
      "setOwner(address)": {
        "notice": "Lets an authorized wallet set a new owner for the contract."
      }
    },
    "version": 1
  }
}