{
  "contractName": "TestERC721",
  "abi": [
    {
      "inputs": [
        {
          "internalType": "string",
          "name": "_name",
          "type": "string"
        },
        {
          "internalType": "string",
          "name": "_symbol",
          "type": "string"
        }
      ],
      "stateMutability": "nonpayable",
      "type": "constructor"
    },
    {
      "anonymous": false,
      "inputs": [
        {
          "indexed": true,
          "internalType": "address",
          "name": "owner",
          "type": "address"
        },
        {
          "indexed": true,
          "internalType": "address",
          "name": "approved",
          "type": "address"
        },
        {
          "indexed": true,
          "internalType": "uint256",
          "name": "tokenId",
          "type": "uint256"
        }
      ],
      "name": "Approval",
      "type": "event"
    },
    {
      "anonymous": false,
      "inputs": [
        {
          "indexed": true,
          "internalType": "address",
          "name": "owner",
          "type": "address"
        },
        {
          "indexed": true,
          "internalType": "address",
          "name": "operator",
          "type": "address"
        },
        {
          "indexed": false,
          "internalType": "bool",
          "name": "approved",
          "type": "bool"
        }
      ],
      "name": "ApprovalForAll",
      "type": "event"
    },
    {
      "anonymous": false,
      "inputs": [
        {
          "indexed": false,
          "internalType": "uint256",
          "name": "_fromTokenId",
          "type": "uint256"
        },
        {
          "indexed": false,
          "internalType": "uint256",
          "name": "_toTokenId",
          "type": "uint256"
        }
      ],
      "name": "BatchMetadataUpdate",
      "type": "event"
    },
    {
      "anonymous": false,
      "inputs": [
        {
          "indexed": false,
          "internalType": "uint256",
          "name": "_tokenId",
          "type": "uint256"
        }
      ],
      "name": "MetadataUpdate",
      "type": "event"
    },
    {
      "anonymous": false,
      "inputs": [
        {
          "indexed": true,
          "internalType": "address",
          "name": "prevOwner",
          "type": "address"
        },
        {
          "indexed": true,
          "internalType": "address",
          "name": "newOwner",
          "type": "address"
        }
      ],
      "name": "OwnerUpdated",
      "type": "event"
    },
    {
      "anonymous": false,
      "inputs": [
        {
          "indexed": true,
          "internalType": "uint256",
          "name": "index",
          "type": "uint256"
        },
        {
          "indexed": false,
          "internalType": "string",
          "name": "revealedURI",
          "type": "string"
        }
      ],
      "name": "TokenURIRevealed",
      "type": "event"
    },
    {
      "anonymous": false,
      "inputs": [
        {
          "indexed": true,
          "internalType": "address",
          "name": "from",
          "type": "address"
        },
        {
          "indexed": true,
          "internalType": "address",
          "name": "to",
          "type": "address"
        },
        {
          "indexed": true,
          "internalType": "uint256",
          "name": "tokenId",
          "type": "uint256"
        }
      ],
      "name": "Transfer",
      "type": "event"
    },
    {
      "inputs": [
        {
          "internalType": "address",
          "name": "to",
          "type": "address"
        },
        {
          "internalType": "uint256",
          "name": "tokenId",
          "type": "uint256"
        }
      ],
      "name": "approve",
      "outputs": [],
      "stateMutability": "nonpayable",
      "type": "function"
    },
    {
      "inputs": [
        {
          "internalType": "address",
          "name": "owner",
          "type": "address"
        }
      ],
      "name": "balanceOf",
      "outputs": [
        {
          "internalType": "uint256",
          "name": "",
          "type": "uint256"
        }
      ],
      "stateMutability": "view",
      "type": "function"
    },
    {
      "inputs": [],
      "name": "baseURI",
      "outputs": [
        {
          "internalType": "string",
          "name": "",
          "type": "string"
        }
      ],
      "stateMutability": "view",
      "type": "function"
    },
    {
      "inputs": [
        {
          "internalType": "uint256",
          "name": "tokenId",
          "type": "uint256"
        }
      ],
      "name": "getApproved",
      "outputs": [
        {
          "internalType": "address",
          "name": "",
          "type": "address"
        }
      ],
      "stateMutability": "view",
      "type": "function"
    },
    {
      "inputs": [
        {
          "internalType": "address",
          "name": "owner",
          "type": "address"
        },
        {
          "internalType": "address",
          "name": "operator",
          "type": "address"
        }
      ],
      "name": "isApprovedForAll",
      "outputs": [
        {
          "internalType": "bool",
          "name": "",
          "type": "bool"
        }
      ],
      "stateMutability": "view",
      "type": "function"
    },
    {
      "inputs": [],
      "name": "name",
      "outputs": [
        {
          "internalType": "string",
          "name": "",
          "type": "string"
        }
      ],
      "stateMutability": "view",
      "type": "function"
    },
    {
      "inputs": [],
      "name": "owner",
      "outputs": [
        {
          "internalType": "address",
          "name": "",
          "type": "address"
        }
      ],
      "stateMutability": "view",
      "type": "function"
    },
    {
      "inputs": [
        {
          "internalType": "uint256",
          "name": "tokenId",
          "type": "uint256"
        }
      ],
      "name": "ownerOf",
      "outputs": [
        {
          "internalType": "address",
          "name": "",
          "type": "address"
        }
      ],
      "stateMutability": "view",
      "type": "function"
    },
    {
      "inputs": [],
      "name": "renderingContract",
      "outputs": [
        {
          "internalType": "contract ITokenURIGenerator",
          "name": "",
          "type": "address"
        }
      ],
      "stateMutability": "view",
      "type": "function"
    },
    {
      "inputs": [
        {
          "internalType": "address",
          "name": "from",
          "type": "address"
        },
        {
          "internalType": "address",
          "name": "to",
          "type": "address"
        },
        {
          "internalType": "uint256",
          "name": "tokenId",
          "type": "uint256"
        }
      ],
      "name": "safeTransferFrom",
      "outputs": [],
      "stateMutability": "nonpayable",
      "type": "function"
    },
    {
      "inputs": [
        {
          "internalType": "address",
          "name": "from",
          "type": "address"
        },
        {
          "internalType": "address",
          "name": "to",
          "type": "address"
        },
        {
          "internalType": "uint256",
          "name": "tokenId",
          "type": "uint256"
        },
        {
          "internalType": "bytes",
          "name": "_data",
          "type": "bytes"
        }
      ],
      "name": "safeTransferFrom",
      "outputs": [],
      "stateMutability": "nonpayable",
      "type": "function"
    },
    {
      "inputs": [
        {
          "internalType": "address",
          "name": "operator",
          "type": "address"
        },
        {
          "internalType": "bool",
          "name": "approved",
          "type": "bool"
        }
      ],
      "name": "setApprovalForAll",
      "outputs": [],
      "stateMutability": "nonpayable",
      "type": "function"
    },
    {
      "inputs": [
        {
          "internalType": "address",
          "name": "_newOwner",
          "type": "address"
        }
      ],
      "name": "setOwner",
      "outputs": [],
      "stateMutability": "nonpayable",
      "type": "function"
    },
    {
      "inputs": [
        {
          "internalType": "contract ITokenURIGenerator",
          "name": "_contract",
          "type": "address"
        }
      ],
      "name": "setRenderingContract",
      "outputs": [],
      "stateMutability": "nonpayable",
      "type": "function"
    },
    {
      "inputs": [
        {
          "internalType": "bytes4",
          "name": "interfaceId",
          "type": "bytes4"
        }
      ],
      "name": "supportsInterface",
      "outputs": [
        {
          "internalType": "bool",
          "name": "",
          "type": "bool"
        }
      ],
      "stateMutability": "view",
      "type": "function"
    },
    {
      "inputs": [],
      "name": "symbol",
      "outputs": [
        {
          "internalType": "string",
          "name": "",
          "type": "string"
        }
      ],
      "stateMutability": "view",
      "type": "function"
    },
    {
      "inputs": [
        {
          "internalType": "uint256",
          "name": "index",
          "type": "uint256"
        }
      ],
      "name": "tokenByIndex",
      "outputs": [
        {
          "internalType": "uint256",
          "name": "",
          "type": "uint256"
        }
      ],
      "stateMutability": "view",
      "type": "function"
    },
    {
      "inputs": [
        {
          "internalType": "address",
          "name": "owner",
          "type": "address"
        },
        {
          "internalType": "uint256",
          "name": "index",
          "type": "uint256"
        }
      ],
      "name": "tokenOfOwnerByIndex",
      "outputs": [
        {
          "internalType": "uint256",
          "name": "",
          "type": "uint256"
        }
      ],
      "stateMutability": "view",
      "type": "function"
    },
    {
      "inputs": [
        {
          "internalType": "uint256",
          "name": "tokenId",
          "type": "uint256"
        }
      ],
      "name": "tokenURI",
      "outputs": [
        {
          "internalType": "string",
          "name": "",
          "type": "string"
        }
      ],
      "stateMutability": "view",
      "type": "function"
    },
    {
      "inputs": [],
      "name": "totalSupply",
      "outputs": [
        {
          "internalType": "uint256",
          "name": "",
          "type": "uint256"
        }
      ],
      "stateMutability": "view",
      "type": "function"
    },
    {
      "inputs": [
        {
          "internalType": "address",
          "name": "from",
          "type": "address"
        },
        {
          "internalType": "address",
          "name": "to",
          "type": "address"
        },
        {
          "internalType": "uint256",
          "name": "tokenId",
          "type": "uint256"
        }
      ],
      "name": "transferFrom",
      "outputs": [],
      "stateMutability": "nonpayable",
      "type": "function"
    },
    {
      "inputs": [
        {
          "internalType": "address",
          "name": "to",
          "type": "address"
        },
        {
          "internalType": "uint256",
          "name": "tokenId",
          "type": "uint256"
        }
      ],
      "name": "mint",
      "outputs": [],
      "stateMutability": "nonpayable",
      "type": "function"
    },
    {
      "inputs": [
        {
          "internalType": "address",
          "name": "to",
          "type": "address"
        },
        {
          "internalType": "uint256",
          "name": "tokenId",
          "type": "uint256"
        }
      ],
      "name": "mintFromContract",
      "outputs": [],
      "stateMutability": "nonpayable",
      "type": "function"
    },
    {
      "inputs": [
        {
          "internalType": "string",
          "name": "uri",
          "type": "string"
        }
      ],
      "name": "setBaseURI",
      "outputs": [],
      "stateMutability": "nonpayable",
      "type": "function"
    },
    {
      "inputs": [
        {
          "internalType": "uint256",
          "name": "_index",
          "type": "uint256"
        }
      ],
      "name": "reveal",
      "outputs": [],
      "stateMutability": "nonpayable",
      "type": "function"
    },
    {
      "inputs": [
        {
          "internalType": "uint256",
          "name": "_index",
          "type": "uint256"
        }
      ],
      "name": "getBatchIdAtIndex",
      "outputs": [
        {
          "internalType": "uint256",
          "name": "",
          "type": "uint256"
        }
      ],
      "stateMutability": "view",
      "type": "function"
    },
    {
      "inputs": [
        {
          "internalType": "address",
          "name": "to",
          "type": "address"
        },
        {
          "internalType": "uint256[]",
          "name": "tokenIds",
          "type": "uint256[]"
        },
        {
          "internalType": "address",
          "name": "currency",
          "type": "address"
        },
        {
          "internalType": "uint256",
          "name": "pricePerToken",
          "type": "uint256"
        }
      ],
      "name": "mintWithPrice",
      "outputs": [],
      "stateMutability": "nonpayable",
      "type": "function"
    },
    {
      "inputs": [
        {
          "internalType": "uint256",
          "name": "_tokenId",
          "type": "uint256"
        }
      ],
      "name": "updateMetaData",
      "outputs": [],
      "stateMutability": "nonpayable",
      "type": "function"
    },
    {
      "inputs": [
        {
          "internalType": "uint256",
          "name": "_fromTokenId",
          "type": "uint256"
        },
        {
          "internalType": "uint256",
          "name": "_toTokenId",
          "type": "uint256"
        }
      ],
      "name": "updateBatchMetaData",
      "outputs": [],
      "stateMutability": "nonpayable",
      "type": "function"
    }
  ],
  "bytecode": "0x60806040523480156200001157600080fd5b506040516200288838038062002888833981810160405260408110156200003757600080fd5b81019080805160405193929190846401000000008211156200005857600080fd5b9083019060208201858111156200006e57600080fd5b82516401000000008111828201881017156200008957600080fd5b82525081516020918201929091019080838360005b83811015620000b85781810151838201526020016200009e565b50505050905090810190601f168015620000e65780820380516001836020036101000a031916815260200191505b50604052602001805160405193929190846401000000008211156200010a57600080fd5b9083019060208201858111156200012057600080fd5b82516401000000008111828201881017156200013b57600080fd5b82525081516020918201929091019080838360005b838110156200016a57818101518382015260200162000150565b50505050905090810190601f168015620001985780820380516001836020036101000a031916815260200191505b50604052505050620001b18282620001c460201b60201c565b620001bc3362000290565b50506200067d565b600054610100900460ff1680620001e05750620001e0620002e2565b80620001ef575060005460ff16155b6200022c5760405162461bcd60e51b815260040180806020018281038252602e8152602001806200285a602e913960400191505060405180910390fd5b600054610100900460ff1615801562000258576000805460ff1961ff0019909116610100171660011790555b6200026262000300565b6200026c620003aa565b62000278838362000450565b80156200028b576000805461ff00191690555b505050565b609780546001600160a01b038381166001600160a01b0319831681179093556040519116919082907f8292fce18fa69edf4db7b94ea2e58241df0ae57f97e0a6c9b29067028bf92d7690600090a35050565b6000620002fa306200054660201b6200121b1760201c565b15905090565b600054610100900460ff16806200031c57506200031c620002e2565b806200032b575060005460ff16155b620003685760405162461bcd60e51b815260040180806020018281038252602e8152602001806200285a602e913960400191505060405180910390fd5b600054610100900460ff1615801562000394576000805460ff1961ff0019909116610100171660011790555b8015620003a7576000805461ff00191690555b50565b600054610100900460ff1680620003c65750620003c6620002e2565b80620003d5575060005460ff16155b620004125760405162461bcd60e51b815260040180806020018281038252602e8152602001806200285a602e913960400191505060405180910390fd5b600054610100900460ff161580156200043e576000805460ff1961ff0019909116610100171660011790555b620003946301ffc9a760e01b6200054c565b600054610100900460ff16806200046c57506200046c620002e2565b806200047b575060005460ff16155b620004b85760405162461bcd60e51b815260040180806020018281038252602e8152602001806200285a602e913960400191505060405180910390fd5b600054610100900460ff16158015620004e4576000805460ff1961ff0019909116610100171660011790555b8251620004f990606a906020860190620005d1565b5081516200050f90606b906020850190620005d1565b50620005226380ac58cd60e01b6200054c565b62000534635b5e139f60e01b6200054c565b6200027863780e9d6360e01b6200054c565b3b151590565b6001600160e01b03198082161415620005ac576040805162461bcd60e51b815260206004820152601c60248201527f4552433136353a20696e76616c696420696e7465726661636520696400000000604482015290519081900360640190fd5b6001600160e01b0319166000908152603360205260409020805460ff19166001179055565b828054600181600116156101000203166002900490600052602060002090601f01602090048101928262000609576000855562000654565b82601f106200062457805160ff191683800117855562000654565b8280016001018555821562000654579182015b828111156200065457825182559160200191906001019062000637565b506200066292915062000666565b5090565b5b8082111562000662576000815560010162000667565b6121cd806200068d6000396000f3fe608060405234801561001057600080fd5b50600436106101cf5760003560e01c806363b4958911610104578063a55b0b32116100a2578063c2ca0ac511610071578063c2ca0ac514610743578063c7fecbcc14610760578063c87b56dd14610768578063e985e9c514610785576101cf565b8063a55b0b321461060e578063b7f1d0721461063a578063b88d4fde14610660578063bccc6ac514610726576101cf565b806370a08231116100de57806370a08231146105aa5780638da5cb5b146105d057806395d89b41146105d8578063a22cb465146105e0576101cf565b806363b49589146104be5780636577ddf81461057f5780636c0360eb146105a2576101cf565b80632419f51b1161017157806342842e0e1161014b57806342842e0e146103de5780634f6ccce71461041457806355f804b3146104315780636352211e146104a1576101cf565b80632419f51b146103695780632f745c591461038657806340c10f19146103b2576101cf565b8063095ea7b3116101ad578063095ea7b3146102c557806313af4035146102f357806318160ddd1461031957806323b872dd14610333576101cf565b806301ffc9a7146101d457806306fdde031461020f578063081812fc1461028c575b600080fd5b6101fb600480360360208110156101ea57600080fd5b50356001600160e01b0319166107b3565b604080519115158252519081900360200190f35b6102176107d6565b6040805160208082528351818301528351919283929083019185019080838360005b83811015610251578181015183820152602001610239565b50505050905090810190601f16801561027e5780820380516001836020036101000a031916815260200191505b509250505060405180910390f35b6102a9600480360360208110156102a257600080fd5b503561086c565b604080516001600160a01b039092168252519081900360200190f35b6102f1600480360360408110156102db57600080fd5b506001600160a01b0381351690602001356108ce565b005b6102f16004803603602081101561030957600080fd5b50356001600160a01b03166109a9565b6103216109fd565b60408051918252519081900360200190f35b6102f16004803603606081101561034957600080fd5b506001600160a01b03813581169160208101359091169060400135610a0e565b6103216004803603602081101561037f57600080fd5b5035610a65565b6103216004803603604081101561039c57600080fd5b506001600160a01b038135169060200135610a6b565b6102f1600480360360408110156103c857600080fd5b506001600160a01b038135169060200135610a96565b6102f1600480360360608110156103f457600080fd5b506001600160a01b03813581169160208101359091169060400135610aa4565b6103216004803603602081101561042a57600080fd5b5035610abf565b6102f16004803603602081101561044757600080fd5b81019060208101813564010000000081111561046257600080fd5b82018360208201111561047457600080fd5b8035906020019184600183028401116401000000008311171561049657600080fd5b509092509050610aa0565b6102a9600480360360208110156104b757600080fd5b5035610ad5565b6102f1600480360360808110156104d457600080fd5b6001600160a01b0382351691908101906040810160208201356401000000008111156104ff57600080fd5b82018360208201111561051157600080fd5b8035906020019184602083028401116401000000008311171561053357600080fd5b919080806020026020016040519081016040528093929190818152602001838360200280828437600092019190915250929550506001600160a01b038335169350505060200135610afd565b6102f16004803603604081101561059557600080fd5b5080359060200135610bd3565b610217610c12565b610321600480360360208110156105c057600080fd5b50356001600160a01b0316610c73565b6102a9610cdb565b610217610cea565b6102f1600480360360408110156105f657600080fd5b506001600160a01b0381351690602001351515610d4b565b6102f16004803603604081101561062457600080fd5b506001600160a01b038135169060200135610e50565b6102f16004803603602081101561065057600080fd5b50356001600160a01b0316610e5a565b6102f16004803603608081101561067657600080fd5b6001600160a01b038235811692602081013590911691604082013591908101906080810160608201356401000000008111156106b157600080fd5b8201836020820111156106c357600080fd5b803590602001918460018302840111640100000000831117156106e557600080fd5b91908080601f016020809104026020016040519081016040528093929190818152602001838380828437600092019190915250929550610e7c945050505050565b6102f16004803603602081101561073c57600080fd5b5035610eda565b6102f16004803603602081101561075957600080fd5b5035610f10565b6102a9610f5d565b6102176004803603602081101561077e57600080fd5b5035610f6c565b6101fb6004803603604081101561079b57600080fd5b506001600160a01b03813581169160200135166111ed565b6001600160e01b0319811660009081526033602052604090205460ff165b919050565b606a8054604080516020601f60026000196101006001881615020190951694909404938401819004810282018101909252828152606093909290918301828280156108625780601f1061083757610100808354040283529160200191610862565b820191906000526020600020905b81548152906001019060200180831161084557829003601f168201915b5050505050905090565b600061087782611221565b6108b25760405162461bcd60e51b815260040180806020018281038252602c8152602001806120c2602c913960400191505060405180910390fd5b506000908152606860205260409020546001600160a01b031690565b60006108d982610ad5565b9050806001600160a01b0316836001600160a01b0316141561092c5760405162461bcd60e51b81526004018080602001828103825260218152602001806121466021913960400191505060405180910390fd5b806001600160a01b031661093e61122e565b6001600160a01b0316148061095f575061095f8161095a61122e565b6111ed565b61099a5760405162461bcd60e51b81526004018080602001828103825260388152602001806120156038913960400191505060405180910390fd5b6109a48383611232565b505050565b6109b16112a0565b6109f1576040805162461bcd60e51b815260206004820152600c60248201526b1d5b985d5d1a1bdc9a5e995960a21b604482015290519081900360640190fd5b6109fa816112c3565b50565b6000610a096066611315565b905090565b610a1f610a1961122e565b82611320565b610a5a5760405162461bcd60e51b81526004018080602001828103825260318152602001806121676031913960400191505060405180910390fd5b6109a48383836113c4565b50600a90565b6001600160a01b0382166000908152606560205260408120610a8d9083611510565b90505b92915050565b610aa0828261151c565b5050565b6109a483838360405180602001604052806000815250610e7c565b600080610acd60668461164a565b509392505050565b6000610a90826040518060600160405280602981526020016120776029913960669190611666565b60005b8351811015610b2e57610b2685858381518110610b1957fe5b602002602001015161151c565b600101610b00565b50816001600160a01b03166323b872dd33610b47610cdb565b865185026040518463ffffffff1660e01b815260040180846001600160a01b03168152602001836001600160a01b031681526020018281526020019350505050602060405180830381600087803b158015610ba157600080fd5b505af1158015610bb5573d6000803e3d6000fd5b505050506040513d6020811015610bcb57600080fd5b505050505050565b604080518381526020810183905281517f6bd5c950a8d8df17f772f5af37cb3655737899cbf903264b9795592da439661c929181900390910190a15050565b606d8054604080516020601f60026000196101006001881615020190951694909404938401819004810282018101909252828152606093909290918301828280156108625780601f1061083757610100808354040283529160200191610862565b60006001600160a01b038216610cba5760405162461bcd60e51b815260040180806020018281038252602a81526020018061204d602a913960400191505060405180910390fd5b6001600160a01b0382166000908152606560205260409020610a9090611315565b6097546001600160a01b031690565b606b8054604080516020601f60026000196101006001881615020190951694909404938401819004810282018101909252828152606093909290918301828280156108625780601f1061083757610100808354040283529160200191610862565b610d5361122e565b6001600160a01b0316826001600160a01b03161415610db9576040805162461bcd60e51b815260206004820152601960248201527f4552433732313a20617070726f766520746f2063616c6c657200000000000000604482015290519081900360640190fd5b8060696000610dc661122e565b6001600160a01b03908116825260208083019390935260409182016000908120918716808252919093529120805460ff191692151592909217909155610e0a61122e565b6001600160a01b03167f17307eab39ab6107e8899845ad3d59bd9653f200f220920489ca2b5937696c318360405180821515815260200191505060405180910390a35050565b610aa0828261167d565b609880546001600160a01b0319166001600160a01b0392909216919091179055565b610e8d610e8761122e565b83611320565b610ec85760405162461bcd60e51b81526004018080602001828103825260318152602001806121676031913960400191505060405180910390fd5b610ed4848484846117aa565b50505050565b6040805182815290517ff8e1a15aba9398e019f0b49df1a4fde98ee17ae345cb5f6b5e2c27f5033e8ce79181900360200190a150565b604080516020808252600490820152631d195cdd60e21b81830152905182917f6df1d8db2a036436ffe0b2d1833f2c5f1e624818dfce2578c0faa4b83ef9998d919081900360600190a250565b6098546001600160a01b031681565b6060610f7782611221565b610fb25760405162461bcd60e51b815260040180806020018281038252602f815260200180612117602f913960400191505060405180910390fd5b6000828152606c602090815260408083208054825160026001831615610100026000190190921691909104601f8101859004850282018501909352828152929091908301828280156110455780601f1061101a57610100808354040283529160200191611045565b820191906000526020600020905b81548152906001019060200180831161102857829003601f168201915b505050505090506000611056610c12565b905080516000141561106a575090506107d1565b81511561112b5780826040516020018083805190602001908083835b602083106110a55780518252601f199092019160209182019101611086565b51815160209384036101000a600019018019909216911617905285519190930192850191508083835b602083106110ed5780518252601f1990920191602091820191016110ce565b6001836020036101000a03801982511681845116808217855250505050505090500192505050604051602081830303815290604052925050506107d1565b80611135856117fc565b6040516020018083805190602001908083835b602083106111675780518252601f199092019160209182019101611148565b51815160209384036101000a600019018019909216911617905285519190930192850191508083835b602083106111af5780518252601f199092019160209182019101611190565b6001836020036101000a0380198251168184511680821785525050505050509050019250505060405160208183030381529060405292505050919050565b6001600160a01b03918216600090815260696020908152604080832093909416825291909152205460ff1690565b3b151590565b6000610a906066836118d7565b3390565b600081815260686020526040902080546001600160a01b0319166001600160a01b038416908117909155819061126782610ad5565b6001600160a01b03167f8c5be1e5ebec7d5bd14f71427d1e84f3dd0314c0f7b2291e5b200ac8c7c3b92560405160405180910390a45050565b60006112aa610cdb565b6001600160a01b0316336001600160a01b031614905090565b609780546001600160a01b038381166001600160a01b0319831681179093556040519116919082907f8292fce18fa69edf4db7b94ea2e58241df0ae57f97e0a6c9b29067028bf92d7690600090a35050565b6000610a90826118e3565b600061132b82611221565b6113665760405162461bcd60e51b815260040180806020018281038252602c815260200180611fe9602c913960400191505060405180910390fd5b600061137183610ad5565b9050806001600160a01b0316846001600160a01b031614806113ac5750836001600160a01b03166113a18461086c565b6001600160a01b0316145b806113bc57506113bc81856111ed565b949350505050565b826001600160a01b03166113d782610ad5565b6001600160a01b03161461141c5760405162461bcd60e51b81526004018080602001828103825260298152602001806120ee6029913960400191505060405180910390fd5b6001600160a01b0382166114615760405162461bcd60e51b8152600401808060200182810382526024815260200180611fc56024913960400191505060405180910390fd5b61146c8383836109a4565b611477600082611232565b6001600160a01b038316600090815260656020526040902061149990826118e7565b506001600160a01b03821660009081526065602052604090206114bc90826118f3565b506114c9606682846118ff565b5080826001600160a01b0316846001600160a01b03167fddf252ad1be2c89b69c2b068fc378daa952ba7f163c4a11628f55a4df523b3ef60405160405180910390a4505050565b6000610a8d8383611915565b6001600160a01b038216611577576040805162461bcd60e51b815260206004820181905260248201527f4552433732313a206d696e7420746f20746865207a65726f2061646472657373604482015290519081900360640190fd5b61158081611221565b156115d2576040805162461bcd60e51b815260206004820152601c60248201527f4552433732313a20746f6b656e20616c7265616479206d696e74656400000000604482015290519081900360640190fd5b6115de600083836109a4565b6001600160a01b038216600090815260656020526040902061160090826118f3565b5061160d606682846118ff565b5060405181906001600160a01b038416906000907fddf252ad1be2c89b69c2b068fc378daa952ba7f163c4a11628f55a4df523b3ef908290a45050565b60008080806116598686611979565b9097909650945050505050565b60006116738484846119f4565b90505b9392505050565b6001600160a01b0382166116d8576040805162461bcd60e51b815260206004820181905260248201527f4552433732313a206d696e7420746f20746865207a65726f2061646472657373604482015290519081900360640190fd5b6116e181611221565b15611733576040805162461bcd60e51b815260206004820152601c60248201527f4552433732313a20746f6b656e20616c7265616479206d696e74656400000000604482015290519081900360640190fd5b61173e3083836109a4565b6001600160a01b038216600090815260656020526040902061176090826118f3565b5061176d606682846118ff565b5060405181906001600160a01b0384169030907fddf252ad1be2c89b69c2b068fc378daa952ba7f163c4a11628f55a4df523b3ef90600090a45050565b6117b58484846113c4565b6117c184848484611abe565b610ed45760405162461bcd60e51b8152600401808060200182810382526032815260200180611f936032913960400191505060405180910390fd5b60608161182157506040805180820190915260018152600360fc1b60208201526107d1565b8160005b811561183957600101600a82049150611825565b60008167ffffffffffffffff8111801561185257600080fd5b506040519080825280601f01601f19166020018201604052801561187d576020820181803683370190505b50859350905060001982015b83156118ce57600a840660300160f81b828280600190039350815181106118ac57fe5b60200101906001600160f81b031916908160001a905350600a84049350611889565b50949350505050565b6000610a8d8383611c26565b5490565b6000610a8d8383611c3e565b6000610a8d8383611d04565b600061167384846001600160a01b038516611d4e565b815460009082106119575760405162461bcd60e51b8152600401808060200182810382526022815260200180611f716022913960400191505060405180910390fd5b82600001828154811061196657fe5b9060005260206000200154905092915050565b8154600090819083106119bd5760405162461bcd60e51b81526004018080602001828103825260228152602001806120a06022913960400191505060405180910390fd5b60008460000184815481106119ce57fe5b906000526020600020906002020190508060000154816001015492509250509250929050565b60008281526001840160205260408120548281611a8f5760405162461bcd60e51b81526004018080602001828103825283818151815260200191508051906020019080838360005b83811015611a54578181015183820152602001611a3c565b50505050905090810190601f168015611a815780820380516001836020036101000a031916815260200191505b509250505060405180910390fd5b50846000016001820381548110611aa257fe5b9060005260206000209060020201600101549150509392505050565b6000611ad2846001600160a01b031661121b565b611ade575060016113bc565b6000611bec630a85bd0160e11b611af361122e565b88878760405160240180856001600160a01b03168152602001846001600160a01b0316815260200183815260200180602001828103825283818151815260200191508051906020019080838360005b83811015611b5a578181015183820152602001611b42565b50505050905090810190601f168015611b875780820380516001836020036101000a031916815260200191505b5095505050505050604051602081830303815290604052906001600160e01b0319166020820180516001600160e01b038381831617835250505050604051806060016040528060328152602001611f93603291396001600160a01b0388169190611de5565b90506000818060200190516020811015611c0557600080fd5b50516001600160e01b031916630a85bd0160e11b1492505050949350505050565b60009081526001919091016020526040902054151590565b60008181526001830160205260408120548015611cfa5783546000198083019190810190600090879083908110611c7157fe5b9060005260206000200154905080876000018481548110611c8e57fe5b600091825260208083209091019290925582815260018981019092526040902090840190558654879080611cbe57fe5b60019003818190600052602060002001600090559055866001016000878152602001908152602001600020600090556001945050505050610a90565b6000915050610a90565b6000611d108383611c26565b611d4657508154600181810184556000848152602080822090930184905584548482528286019093526040902091909155610a90565b506000610a90565b600082815260018401602052604081205480611db3575050604080518082018252838152602080820184815286546001818101895560008981528481209551600290930290950191825591519082015586548684528188019092529290912055611676565b82856000016001830381548110611dc657fe5b9060005260206000209060020201600101819055506000915050611676565b6060611673848460008585611df98561121b565b611e4a576040805162461bcd60e51b815260206004820152601d60248201527f416464726573733a2063616c6c20746f206e6f6e2d636f6e7472616374000000604482015290519081900360640190fd5b600080866001600160a01b031685876040518082805190602001908083835b60208310611e885780518252601f199092019160209182019101611e69565b6001836020036101000a03801982511681845116808217855250505050505090500191505060006040518083038185875af1925050503d8060008114611eea576040519150601f19603f3d011682016040523d82523d6000602084013e611eef565b606091505b5091509150611eff828286611f0a565b979650505050505050565b60608315611f19575081611676565b825115611f295782518084602001fd5b60405162461bcd60e51b8152602060048201818152845160248401528451859391928392604401919085019080838360008315611a54578181015183820152602001611a3c56fe456e756d657261626c655365743a20696e646578206f7574206f6620626f756e64734552433732313a207472616e7366657220746f206e6f6e20455243373231526563656976657220696d706c656d656e7465724552433732313a207472616e7366657220746f20746865207a65726f20616464726573734552433732313a206f70657261746f7220717565727920666f72206e6f6e6578697374656e7420746f6b656e4552433732313a20617070726f76652063616c6c6572206973206e6f74206f776e6572206e6f7220617070726f76656420666f7220616c6c4552433732313a2062616c616e636520717565727920666f7220746865207a65726f20616464726573734552433732313a206f776e657220717565727920666f72206e6f6e6578697374656e7420746f6b656e456e756d657261626c654d61703a20696e646578206f7574206f6620626f756e64734552433732313a20617070726f76656420717565727920666f72206e6f6e6578697374656e7420746f6b656e4552433732313a207472616e73666572206f6620746f6b656e2074686174206973206e6f74206f776e4552433732314d657461646174613a2055524920717565727920666f72206e6f6e6578697374656e7420746f6b656e4552433732313a20617070726f76616c20746f2063757272656e74206f776e65724552433732313a207472616e736665722063616c6c6572206973206e6f74206f776e6572206e6f7220617070726f766564a26469706673582212205012a26f7ba78cdff07cca7e2afc54cd231125aefa26118c919f0600029ac2f564736f6c63430007060033496e697469616c697a61626c653a20636f6e747261637420697320616c726561647920696e697469616c697a6564",
  "immutableReferences": {},
  "source": "// SPDX-License-Identifier: MIT\n\npragma solidity 0.7.6;\n\nimport \"@openzeppelin/contracts-upgradeable/token/ERC20/IERC20Upgradeable.sol\";\nimport \"./dependencies/ERC721Upgradeable.sol\";\nimport \"./dependencies/Ownable.sol\";\nimport \"./dependencies/RenderingContract.sol\";\nimport \"./dependencies/IERC4906.sol\";\n\n\ncontract TestERC721 is ERC721Upgradeable, Ownable, RenderingContract, IERC4906 {\n    constructor(string memory _name, string memory _symbol) public {\n        __ERC721_init(_name, _symbol);\n        _setupOwner(msg.sender);\n    }\n\n    function mint(address to, uint tokenId) external {\n        _mint(to, tokenId);\n    }\n\n    function mintFromContract(address to, uint tokenId) external {\n        _mintFromContract(to, tokenId);\n    }\n\n    function setBaseURI(string calldata uri) external {\n\n    }\n\n    function reveal(uint256 _index) external {\n        emit TokenURIRevealed(_index, \"test\");\n    }\n\n    function getBatchIdAtIndex(uint256 _index) external view returns (uint256) {\n        return 10;\n    }\n\n    function _canSetOwner() internal virtual view override returns (bool) {\n        return msg.sender == owner();\n    }\n\n    function mintWithPrice(address to, uint[] memory tokenIds, address currency, uint256 pricePerToken) external {\n        for (uint i = 0; i < tokenIds.length; i++) {\n            _mint(to, tokenIds[i]);\n        }\n        IERC20Upgradeable(currency).transferFrom(msg.sender, owner(), pricePerToken * tokenIds.length);\n    }\n\n    function updateMetaData(uint256 _tokenId) external {\n        emit MetadataUpdate(_tokenId);\n    }\n\n    function updateBatchMetaData(uint256 _fromTokenId, uint256 _toTokenId) external {\n        emit BatchMetadataUpdate(_fromTokenId, _toTokenId);\n    }\n\n    event TokenURIRevealed(uint256 indexed index, string revealedURI);\n}\n",
  "sourcePath": "/Users/dmitry/workspaces/workspace-rarible/protocol-contracts/projects/tokens-test/contracts/TestERC721.sol",
  "compiler": {
    "name": "solc",
    "version": "0.7.6+commit.7338295f.Emscripten.clang"
  },
  "schemaVersion": "3.4.14",
  "updatedAt": "2025-03-27T08:19:02.648Z",
  "devdoc": {
    "kind": "dev",
    "methods": {
      "approve(address,uint256)": {
        "details": "See {IERC721-approve}."
      },
      "balanceOf(address)": {
        "details": "See {IERC721-balanceOf}."
      },
      "baseURI()": {
        "details": "Returns the base URI set via {_setBaseURI}. This will be automatically added as a prefix in {tokenURI} to each token's URI, or to the token ID if no specific URI is set for that token ID."
      },
      "getApproved(uint256)": {
        "details": "See {IERC721-getApproved}."
      },
      "isApprovedForAll(address,address)": {
        "details": "See {IERC721-isApprovedForAll}."
      },
      "name()": {
        "details": "See {IERC721Metadata-name}."
      },
      "ownerOf(uint256)": {
        "details": "See {IERC721-ownerOf}."
      },
      "safeTransferFrom(address,address,uint256)": {
        "details": "See {IERC721-safeTransferFrom}."
      },
      "safeTransferFrom(address,address,uint256,bytes)": {
        "details": "See {IERC721-safeTransferFrom}."
      },
      "setApprovalForAll(address,bool)": {
        "details": "See {IERC721-setApprovalForAll}."
      },
      "setOwner(address)": {
        "params": {
          "_newOwner": "The address to set as the new owner of the contract."
        }
      },
      "supportsInterface(bytes4)": {
        "details": "See {IERC165-supportsInterface}. Time complexity O(1), guaranteed to always use less than 30 000 gas."
      },
      "symbol()": {
        "details": "See {IERC721Metadata-symbol}."
      },
      "tokenByIndex(uint256)": {
        "details": "See {IERC721Enumerable-tokenByIndex}."
      },
      "tokenOfOwnerByIndex(address,uint256)": {
        "details": "See {IERC721Enumerable-tokenOfOwnerByIndex}."
      },
      "tokenURI(uint256)": {
        "details": "See {IERC721Metadata-tokenURI}."
      },
      "totalSupply()": {
        "details": "See {IERC721Enumerable-totalSupply}."
      },
      "transferFrom(address,address,uint256)": {
        "details": "See {IERC721-transferFrom}."
      }
    },
    "version": 1
  },
  "userdoc": {
    "kind": "user",
    "methods": {
      "owner()": {
        "notice": "Returns the owner of the contract."
      },
      "setOwner(address)": {
        "notice": "Lets an authorized wallet set a new owner for the contract."
      }
    },
    "version": 1
  }
}