{
  "contractName": "TestERC721",
  "abi": [
    {
      "anonymous": false,
      "inputs": [
        {
          "indexed": true,
          "internalType": "address",
          "name": "owner",
          "type": "address"
        },
        {
          "indexed": true,
          "internalType": "address",
          "name": "approved",
          "type": "address"
        },
        {
          "indexed": true,
          "internalType": "uint256",
          "name": "tokenId",
          "type": "uint256"
        }
      ],
      "name": "Approval",
      "type": "event"
    },
    {
      "anonymous": false,
      "inputs": [
        {
          "indexed": true,
          "internalType": "address",
          "name": "owner",
          "type": "address"
        },
        {
          "indexed": true,
          "internalType": "address",
          "name": "operator",
          "type": "address"
        },
        {
          "indexed": false,
          "internalType": "bool",
          "name": "approved",
          "type": "bool"
        }
      ],
      "name": "ApprovalForAll",
      "type": "event"
    },
    {
      "anonymous": false,
      "inputs": [
        {
          "indexed": true,
          "internalType": "address",
          "name": "from",
          "type": "address"
        },
        {
          "indexed": true,
          "internalType": "address",
          "name": "to",
          "type": "address"
        },
        {
          "indexed": true,
          "internalType": "uint256",
          "name": "tokenId",
          "type": "uint256"
        }
      ],
      "name": "Transfer",
      "type": "event"
    },
    {
      "inputs": [
        {
          "internalType": "address",
          "name": "to",
          "type": "address"
        },
        {
          "internalType": "uint256",
          "name": "tokenId",
          "type": "uint256"
        }
      ],
      "name": "approve",
      "outputs": [],
      "stateMutability": "nonpayable",
      "type": "function"
    },
    {
      "inputs": [
        {
          "internalType": "address",
          "name": "owner",
          "type": "address"
        }
      ],
      "name": "balanceOf",
      "outputs": [
        {
          "internalType": "uint256",
          "name": "",
          "type": "uint256"
        }
      ],
      "stateMutability": "view",
      "type": "function"
    },
    {
      "inputs": [],
      "name": "baseURI",
      "outputs": [
        {
          "internalType": "string",
          "name": "",
          "type": "string"
        }
      ],
      "stateMutability": "view",
      "type": "function"
    },
    {
      "inputs": [
        {
          "internalType": "uint256",
          "name": "tokenId",
          "type": "uint256"
        }
      ],
      "name": "getApproved",
      "outputs": [
        {
          "internalType": "address",
          "name": "",
          "type": "address"
        }
      ],
      "stateMutability": "view",
      "type": "function"
    },
    {
      "inputs": [
        {
          "internalType": "address",
          "name": "owner",
          "type": "address"
        },
        {
          "internalType": "address",
          "name": "operator",
          "type": "address"
        }
      ],
      "name": "isApprovedForAll",
      "outputs": [
        {
          "internalType": "bool",
          "name": "",
          "type": "bool"
        }
      ],
      "stateMutability": "view",
      "type": "function"
    },
    {
      "inputs": [],
      "name": "name",
      "outputs": [
        {
          "internalType": "string",
          "name": "",
          "type": "string"
        }
      ],
      "stateMutability": "view",
      "type": "function"
    },
    {
      "inputs": [
        {
          "internalType": "uint256",
          "name": "tokenId",
          "type": "uint256"
        }
      ],
      "name": "ownerOf",
      "outputs": [
        {
          "internalType": "address",
          "name": "",
          "type": "address"
        }
      ],
      "stateMutability": "view",
      "type": "function"
    },
    {
      "inputs": [
        {
          "internalType": "address",
          "name": "from",
          "type": "address"
        },
        {
          "internalType": "address",
          "name": "to",
          "type": "address"
        },
        {
          "internalType": "uint256",
          "name": "tokenId",
          "type": "uint256"
        }
      ],
      "name": "safeTransferFrom",
      "outputs": [],
      "stateMutability": "nonpayable",
      "type": "function"
    },
    {
      "inputs": [
        {
          "internalType": "address",
          "name": "from",
          "type": "address"
        },
        {
          "internalType": "address",
          "name": "to",
          "type": "address"
        },
        {
          "internalType": "uint256",
          "name": "tokenId",
          "type": "uint256"
        },
        {
          "internalType": "bytes",
          "name": "_data",
          "type": "bytes"
        }
      ],
      "name": "safeTransferFrom",
      "outputs": [],
      "stateMutability": "nonpayable",
      "type": "function"
    },
    {
      "inputs": [
        {
          "internalType": "address",
          "name": "operator",
          "type": "address"
        },
        {
          "internalType": "bool",
          "name": "approved",
          "type": "bool"
        }
      ],
      "name": "setApprovalForAll",
      "outputs": [],
      "stateMutability": "nonpayable",
      "type": "function"
    },
    {
      "inputs": [
        {
          "internalType": "bytes4",
          "name": "interfaceId",
          "type": "bytes4"
        }
      ],
      "name": "supportsInterface",
      "outputs": [
        {
          "internalType": "bool",
          "name": "",
          "type": "bool"
        }
      ],
      "stateMutability": "view",
      "type": "function"
    },
    {
      "inputs": [],
      "name": "symbol",
      "outputs": [
        {
          "internalType": "string",
          "name": "",
          "type": "string"
        }
      ],
      "stateMutability": "view",
      "type": "function"
    },
    {
      "inputs": [
        {
          "internalType": "uint256",
          "name": "index",
          "type": "uint256"
        }
      ],
      "name": "tokenByIndex",
      "outputs": [
        {
          "internalType": "uint256",
          "name": "",
          "type": "uint256"
        }
      ],
      "stateMutability": "view",
      "type": "function"
    },
    {
      "inputs": [
        {
          "internalType": "address",
          "name": "owner",
          "type": "address"
        },
        {
          "internalType": "uint256",
          "name": "index",
          "type": "uint256"
        }
      ],
      "name": "tokenOfOwnerByIndex",
      "outputs": [
        {
          "internalType": "uint256",
          "name": "",
          "type": "uint256"
        }
      ],
      "stateMutability": "view",
      "type": "function"
    },
    {
      "inputs": [
        {
          "internalType": "uint256",
          "name": "tokenId",
          "type": "uint256"
        }
      ],
      "name": "tokenURI",
      "outputs": [
        {
          "internalType": "string",
          "name": "",
          "type": "string"
        }
      ],
      "stateMutability": "view",
      "type": "function"
    },
    {
      "inputs": [],
      "name": "totalSupply",
      "outputs": [
        {
          "internalType": "uint256",
          "name": "",
          "type": "uint256"
        }
      ],
      "stateMutability": "view",
      "type": "function"
    },
    {
      "inputs": [
        {
          "internalType": "address",
          "name": "from",
          "type": "address"
        },
        {
          "internalType": "address",
          "name": "to",
          "type": "address"
        },
        {
          "internalType": "uint256",
          "name": "tokenId",
          "type": "uint256"
        }
      ],
      "name": "transferFrom",
      "outputs": [],
      "stateMutability": "nonpayable",
      "type": "function"
    },
    {
      "inputs": [
        {
          "internalType": "address",
          "name": "to",
          "type": "address"
        },
        {
          "internalType": "uint256",
          "name": "tokenId",
          "type": "uint256"
        }
      ],
      "name": "mint",
      "outputs": [],
      "stateMutability": "nonpayable",
      "type": "function"
    },
    {
      "inputs": [
        {
          "internalType": "string",
          "name": "baseUri",
          "type": "string"
        }
      ],
      "name": "setBaseUri",
      "outputs": [],
      "stateMutability": "nonpayable",
      "type": "function"
    }
  ],
  "bytecode": "0x608060405234801561001057600080fd5b50611b7e806100206000396000f3fe608060405234801561001057600080fd5b50600436106101215760003560e01c80634f6ccce7116100ad578063a0bcfc7f11610071578063a0bcfc7f14610393578063a22cb46514610403578063b88d4fde14610431578063c87b56dd146104f7578063e985e9c51461051457610121565b80634f6ccce7146103235780636352211e146103405780636c0360eb1461035d57806370a082311461036557806395d89b411461038b57610121565b806318160ddd116100f457806318160ddd1461024557806323b872dd1461025f5780632f745c591461029557806340c10f19146102c157806342842e0e146102ed57610121565b806301ffc9a71461012657806306fdde0314610161578063081812fc146101de578063095ea7b314610217575b600080fd5b61014d6004803603602081101561013c57600080fd5b50356001600160e01b031916610542565b604080519115158252519081900360200190f35b610169610565565b6040805160208082528351818301528351919283929083019185019080838360005b838110156101a357818101518382015260200161018b565b50505050905090810190601f1680156101d05780820380516001836020036101000a031916815260200191505b509250505060405180910390f35b6101fb600480360360208110156101f457600080fd5b50356105fb565b604080516001600160a01b039092168252519081900360200190f35b6102436004803603604081101561022d57600080fd5b506001600160a01b03813516906020013561065d565b005b61024d610738565b60408051918252519081900360200190f35b6102436004803603606081101561027557600080fd5b506001600160a01b03813581169160208101359091169060400135610749565b61024d600480360360408110156102ab57600080fd5b506001600160a01b0381351690602001356107a0565b610243600480360360408110156102d757600080fd5b506001600160a01b0381351690602001356107cb565b6102436004803603606081101561030357600080fd5b506001600160a01b038135811691602081013590911690604001356107d9565b61024d6004803603602081101561033957600080fd5b50356107f4565b6101fb6004803603602081101561035657600080fd5b503561080a565b610169610832565b61024d6004803603602081101561037b57600080fd5b50356001600160a01b0316610893565b6101696108fb565b610243600480360360208110156103a957600080fd5b8101906020810181356401000000008111156103c457600080fd5b8201836020820111156103d657600080fd5b803590602001918460018302840111640100000000831117156103f857600080fd5b5090925090506107d5565b6102436004803603604081101561041957600080fd5b506001600160a01b038135169060200135151561095c565b6102436004803603608081101561044757600080fd5b6001600160a01b0382358116926020810135909116916040820135919081019060808101606082013564010000000081111561048257600080fd5b82018360208201111561049457600080fd5b803590602001918460018302840111640100000000831117156104b657600080fd5b91908080601f016020809104026020016040519081016040528093929190818152602001838380828437600092019190915250929550610a61945050505050565b6101696004803603602081101561050d57600080fd5b5035610abf565b61014d6004803603604081101561052a57600080fd5b506001600160a01b0381358116916020013516610d40565b6001600160e01b0319811660009081526033602052604090205460ff165b919050565b606a8054604080516020601f60026000196101006001881615020190951694909404938401819004810282018101909252828152606093909290918301828280156105f15780601f106105c6576101008083540402835291602001916105f1565b820191906000526020600020905b8154815290600101906020018083116105d457829003601f168201915b5050505050905090565b600061060682610d6e565b6106415760405162461bcd60e51b815260040180806020018281038252602c815260200180611a73602c913960400191505060405180910390fd5b506000908152606860205260409020546001600160a01b031690565b60006106688261080a565b9050806001600160a01b0316836001600160a01b031614156106bb5760405162461bcd60e51b8152600401808060200182810382526021815260200180611af76021913960400191505060405180910390fd5b806001600160a01b03166106cd610d7b565b6001600160a01b031614806106ee57506106ee816106e9610d7b565b610d40565b6107295760405162461bcd60e51b81526004018080602001828103825260388152602001806119c66038913960400191505060405180910390fd5b6107338383610d7f565b505050565b60006107446066610ded565b905090565b61075a610754610d7b565b82610df8565b6107955760405162461bcd60e51b8152600401808060200182810382526031815260200180611b186031913960400191505060405180910390fd5b610733838383610e9c565b6001600160a01b03821660009081526065602052604081206107c29083610fe8565b90505b92915050565b6107d58282610ff4565b5050565b61073383838360405180602001604052806000815250610a61565b600080610802606684611122565b509392505050565b60006107c582604051806060016040528060298152602001611a28602991396066919061113e565b606d8054604080516020601f60026000196101006001881615020190951694909404938401819004810282018101909252828152606093909290918301828280156105f15780601f106105c6576101008083540402835291602001916105f1565b60006001600160a01b0382166108da5760405162461bcd60e51b815260040180806020018281038252602a8152602001806119fe602a913960400191505060405180910390fd5b6001600160a01b03821660009081526065602052604090206107c590610ded565b606b8054604080516020601f60026000196101006001881615020190951694909404938401819004810282018101909252828152606093909290918301828280156105f15780601f106105c6576101008083540402835291602001916105f1565b610964610d7b565b6001600160a01b0316826001600160a01b031614156109ca576040805162461bcd60e51b815260206004820152601960248201527f4552433732313a20617070726f766520746f2063616c6c657200000000000000604482015290519081900360640190fd5b80606960006109d7610d7b565b6001600160a01b03908116825260208083019390935260409182016000908120918716808252919093529120805460ff191692151592909217909155610a1b610d7b565b6001600160a01b03167f17307eab39ab6107e8899845ad3d59bd9653f200f220920489ca2b5937696c318360405180821515815260200191505060405180910390a35050565b610a72610a6c610d7b565b83610df8565b610aad5760405162461bcd60e51b8152600401808060200182810382526031815260200180611b186031913960400191505060405180910390fd5b610ab984848484611155565b50505050565b6060610aca82610d6e565b610b055760405162461bcd60e51b815260040180806020018281038252602f815260200180611ac8602f913960400191505060405180910390fd5b6000828152606c602090815260408083208054825160026001831615610100026000190190921691909104601f810185900485028201850190935282815292909190830182828015610b985780601f10610b6d57610100808354040283529160200191610b98565b820191906000526020600020905b815481529060010190602001808311610b7b57829003601f168201915b505050505090506000610ba9610832565b9050805160001415610bbd57509050610560565b815115610c7e5780826040516020018083805190602001908083835b60208310610bf85780518252601f199092019160209182019101610bd9565b51815160209384036101000a600019018019909216911617905285519190930192850191508083835b60208310610c405780518252601f199092019160209182019101610c21565b6001836020036101000a0380198251168184511680821785525050505050509050019250505060405160208183030381529060405292505050610560565b80610c88856111a7565b6040516020018083805190602001908083835b60208310610cba5780518252601f199092019160209182019101610c9b565b51815160209384036101000a600019018019909216911617905285519190930192850191508083835b60208310610d025780518252601f199092019160209182019101610ce3565b6001836020036101000a0380198251168184511680821785525050505050509050019250505060405160208183030381529060405292505050919050565b6001600160a01b03918216600090815260696020908152604080832093909416825291909152205460ff1690565b60006107c5606683611282565b3390565b600081815260686020526040902080546001600160a01b0319166001600160a01b0384169081179091558190610db48261080a565b6001600160a01b03167f8c5be1e5ebec7d5bd14f71427d1e84f3dd0314c0f7b2291e5b200ac8c7c3b92560405160405180910390a45050565b60006107c58261128e565b6000610e0382610d6e565b610e3e5760405162461bcd60e51b815260040180806020018281038252602c81526020018061199a602c913960400191505060405180910390fd5b6000610e498361080a565b9050806001600160a01b0316846001600160a01b03161480610e845750836001600160a01b0316610e79846105fb565b6001600160a01b0316145b80610e945750610e948185610d40565b949350505050565b826001600160a01b0316610eaf8261080a565b6001600160a01b031614610ef45760405162461bcd60e51b8152600401808060200182810382526029815260200180611a9f6029913960400191505060405180910390fd5b6001600160a01b038216610f395760405162461bcd60e51b81526004018080602001828103825260248152602001806119766024913960400191505060405180910390fd5b610f44838383610733565b610f4f600082610d7f565b6001600160a01b0383166000908152606560205260409020610f719082611292565b506001600160a01b0382166000908152606560205260409020610f94908261129e565b50610fa1606682846112aa565b5080826001600160a01b0316846001600160a01b03167fddf252ad1be2c89b69c2b068fc378daa952ba7f163c4a11628f55a4df523b3ef60405160405180910390a4505050565b60006107c283836112c0565b6001600160a01b03821661104f576040805162461bcd60e51b815260206004820181905260248201527f4552433732313a206d696e7420746f20746865207a65726f2061646472657373604482015290519081900360640190fd5b61105881610d6e565b156110aa576040805162461bcd60e51b815260206004820152601c60248201527f4552433732313a20746f6b656e20616c7265616479206d696e74656400000000604482015290519081900360640190fd5b6110b660008383610733565b6001600160a01b03821660009081526065602052604090206110d8908261129e565b506110e5606682846112aa565b5060405181906001600160a01b038416906000907fddf252ad1be2c89b69c2b068fc378daa952ba7f163c4a11628f55a4df523b3ef908290a45050565b60008080806111318686611324565b9097909650945050505050565b600061114b84848461139f565b90505b9392505050565b611160848484610e9c565b61116c84848484611469565b610ab95760405162461bcd60e51b81526004018080602001828103825260328152602001806119446032913960400191505060405180910390fd5b6060816111cc57506040805180820190915260018152600360fc1b6020820152610560565b8160005b81156111e457600101600a820491506111d0565b60008167ffffffffffffffff811180156111fd57600080fd5b506040519080825280601f01601f191660200182016040528015611228576020820181803683370190505b50859350905060001982015b831561127957600a840660300160f81b8282806001900393508151811061125757fe5b60200101906001600160f81b031916908160001a905350600a84049350611234565b50949350505050565b60006107c283836115d1565b5490565b60006107c283836115e9565b60006107c283836116af565b600061114b84846001600160a01b0385166116f9565b815460009082106113025760405162461bcd60e51b81526004018080602001828103825260228152602001806119226022913960400191505060405180910390fd5b82600001828154811061131157fe5b9060005260206000200154905092915050565b8154600090819083106113685760405162461bcd60e51b8152600401808060200182810382526022815260200180611a516022913960400191505060405180910390fd5b600084600001848154811061137957fe5b906000526020600020906002020190508060000154816001015492509250509250929050565b6000828152600184016020526040812054828161143a5760405162461bcd60e51b81526004018080602001828103825283818151815260200191508051906020019080838360005b838110156113ff5781810151838201526020016113e7565b50505050905090810190601f16801561142c5780820380516001836020036101000a031916815260200191505b509250505060405180910390fd5b5084600001600182038154811061144d57fe5b9060005260206000209060020201600101549150509392505050565b600061147d846001600160a01b0316611790565b61148957506001610e94565b6000611597630a85bd0160e11b61149e610d7b565b88878760405160240180856001600160a01b03168152602001846001600160a01b0316815260200183815260200180602001828103825283818151815260200191508051906020019080838360005b838110156115055781810151838201526020016114ed565b50505050905090810190601f1680156115325780820380516001836020036101000a031916815260200191505b5095505050505050604051602081830303815290604052906001600160e01b0319166020820180516001600160e01b038381831617835250505050604051806060016040528060328152602001611944603291396001600160a01b0388169190611796565b905060008180602001905160208110156115b057600080fd5b50516001600160e01b031916630a85bd0160e11b1492505050949350505050565b60009081526001919091016020526040902054151590565b600081815260018301602052604081205480156116a5578354600019808301919081019060009087908390811061161c57fe5b906000526020600020015490508087600001848154811061163957fe5b60009182526020808320909101929092558281526001898101909252604090209084019055865487908061166957fe5b600190038181906000526020600020016000905590558660010160008781526020019081526020016000206000905560019450505050506107c5565b60009150506107c5565b60006116bb83836115d1565b6116f1575081546001818101845560008481526020808220909301849055845484825282860190935260409020919091556107c5565b5060006107c5565b60008281526001840160205260408120548061175e57505060408051808201825283815260208082018481528654600181810189556000898152848120955160029093029095019182559151908201558654868452818801909252929091205561114e565b8285600001600183038154811061177157fe5b906000526020600020906002020160010181905550600091505061114e565b3b151590565b606061114b8484600085856117aa85611790565b6117fb576040805162461bcd60e51b815260206004820152601d60248201527f416464726573733a2063616c6c20746f206e6f6e2d636f6e7472616374000000604482015290519081900360640190fd5b600080866001600160a01b031685876040518082805190602001908083835b602083106118395780518252601f19909201916020918201910161181a565b6001836020036101000a03801982511681845116808217855250505050505090500191505060006040518083038185875af1925050503d806000811461189b576040519150601f19603f3d011682016040523d82523d6000602084013e6118a0565b606091505b50915091506118b08282866118bb565b979650505050505050565b606083156118ca57508161114e565b8251156118da5782518084602001fd5b60405162461bcd60e51b81526020600482018181528451602484015284518593919283926044019190850190808383600083156113ff5781810151838201526020016113e756fe456e756d657261626c655365743a20696e646578206f7574206f6620626f756e64734552433732313a207472616e7366657220746f206e6f6e20455243373231526563656976657220696d706c656d656e7465724552433732313a207472616e7366657220746f20746865207a65726f20616464726573734552433732313a206f70657261746f7220717565727920666f72206e6f6e6578697374656e7420746f6b656e4552433732313a20617070726f76652063616c6c6572206973206e6f74206f776e6572206e6f7220617070726f76656420666f7220616c6c4552433732313a2062616c616e636520717565727920666f7220746865207a65726f20616464726573734552433732313a206f776e657220717565727920666f72206e6f6e6578697374656e7420746f6b656e456e756d657261626c654d61703a20696e646578206f7574206f6620626f756e64734552433732313a20617070726f76656420717565727920666f72206e6f6e6578697374656e7420746f6b656e4552433732313a207472616e73666572206f6620746f6b656e2074686174206973206e6f74206f776e4552433732314d657461646174613a2055524920717565727920666f72206e6f6e6578697374656e7420746f6b656e4552433732313a20617070726f76616c20746f2063757272656e74206f776e65724552433732313a207472616e736665722063616c6c6572206973206e6f74206f776e6572206e6f7220617070726f766564a264697066735822122064138d70504278effdbae89ee4136013818f835182d475e4b99b0cf3f248e44764736f6c63430007060033",
  "immutableReferences": {},
  "source": "// SPDX-License-Identifier: MIT\n\npragma solidity 0.7.6;\n\nimport \"@openzeppelin/contracts-upgradeable/token/ERC721/ERC721Upgradeable.sol\";\n\ncontract TestERC721 is ERC721Upgradeable {\n    function mint(address to, uint tokenId) external {\n        _mint(to, tokenId);\n    }\n\n    function setBaseUri(string calldata baseUri) external {\n\n    }\n}\n",
  "sourcePath": "/Users/eugene/Projects/rarible/protocol-contracts/tokens-test/contracts/TestERC721.sol",
  "compiler": {
    "name": "solc",
    "version": "0.7.6+commit.7338295f.Emscripten.clang"
  },
  "schemaVersion": "3.4.13",
  "updatedAt": "2023-06-26T08:15:36.421Z",
  "devdoc": {
    "kind": "dev",
    "methods": {
      "approve(address,uint256)": {
        "details": "See {IERC721-approve}."
      },
      "balanceOf(address)": {
        "details": "See {IERC721-balanceOf}."
      },
      "baseURI()": {
        "details": "Returns the base URI set via {_setBaseURI}. This will be automatically added as a prefix in {tokenURI} to each token's URI, or to the token ID if no specific URI is set for that token ID."
      },
      "getApproved(uint256)": {
        "details": "See {IERC721-getApproved}."
      },
      "isApprovedForAll(address,address)": {
        "details": "See {IERC721-isApprovedForAll}."
      },
      "name()": {
        "details": "See {IERC721Metadata-name}."
      },
      "ownerOf(uint256)": {
        "details": "See {IERC721-ownerOf}."
      },
      "safeTransferFrom(address,address,uint256)": {
        "details": "See {IERC721-safeTransferFrom}."
      },
      "safeTransferFrom(address,address,uint256,bytes)": {
        "details": "See {IERC721-safeTransferFrom}."
      },
      "setApprovalForAll(address,bool)": {
        "details": "See {IERC721-setApprovalForAll}."
      },
      "supportsInterface(bytes4)": {
        "details": "See {IERC165-supportsInterface}. Time complexity O(1), guaranteed to always use less than 30 000 gas."
      },
      "symbol()": {
        "details": "See {IERC721Metadata-symbol}."
      },
      "tokenByIndex(uint256)": {
        "details": "See {IERC721Enumerable-tokenByIndex}."
      },
      "tokenOfOwnerByIndex(address,uint256)": {
        "details": "See {IERC721Enumerable-tokenOfOwnerByIndex}."
      },
      "tokenURI(uint256)": {
        "details": "See {IERC721Metadata-tokenURI}."
      },
      "totalSupply()": {
        "details": "See {IERC721Enumerable-totalSupply}."
      },
      "transferFrom(address,address,uint256)": {
        "details": "See {IERC721-transferFrom}."
      }
    },
    "version": 1
  },
  "userdoc": {
    "kind": "user",
    "methods": {},
    "version": 1
  }
}