{
  "contractName": "TestERC721",
  "abi": [
    {
      "inputs": [
        {
          "internalType": "string",
          "name": "_name",
          "type": "string"
        },
        {
          "internalType": "string",
          "name": "_symbol",
          "type": "string"
        }
      ],
      "stateMutability": "nonpayable",
      "type": "constructor"
    },
    {
      "anonymous": false,
      "inputs": [
        {
          "indexed": true,
          "internalType": "address",
          "name": "owner",
          "type": "address"
        },
        {
          "indexed": true,
          "internalType": "address",
          "name": "approved",
          "type": "address"
        },
        {
          "indexed": true,
          "internalType": "uint256",
          "name": "tokenId",
          "type": "uint256"
        }
      ],
      "name": "Approval",
      "type": "event"
    },
    {
      "anonymous": false,
      "inputs": [
        {
          "indexed": true,
          "internalType": "address",
          "name": "owner",
          "type": "address"
        },
        {
          "indexed": true,
          "internalType": "address",
          "name": "operator",
          "type": "address"
        },
        {
          "indexed": false,
          "internalType": "bool",
          "name": "approved",
          "type": "bool"
        }
      ],
      "name": "ApprovalForAll",
      "type": "event"
    },
    {
      "anonymous": false,
      "inputs": [
        {
          "indexed": true,
          "internalType": "address",
          "name": "prevOwner",
          "type": "address"
        },
        {
          "indexed": true,
          "internalType": "address",
          "name": "newOwner",
          "type": "address"
        }
      ],
      "name": "OwnerUpdated",
      "type": "event"
    },
    {
      "anonymous": false,
      "inputs": [
        {
          "indexed": true,
          "internalType": "uint256",
          "name": "index",
          "type": "uint256"
        },
        {
          "indexed": false,
          "internalType": "string",
          "name": "revealedURI",
          "type": "string"
        }
      ],
      "name": "TokenURIRevealed",
      "type": "event"
    },
    {
      "anonymous": false,
      "inputs": [
        {
          "indexed": true,
          "internalType": "address",
          "name": "from",
          "type": "address"
        },
        {
          "indexed": true,
          "internalType": "address",
          "name": "to",
          "type": "address"
        },
        {
          "indexed": true,
          "internalType": "uint256",
          "name": "tokenId",
          "type": "uint256"
        }
      ],
      "name": "Transfer",
      "type": "event"
    },
    {
      "inputs": [
        {
          "internalType": "address",
          "name": "to",
          "type": "address"
        },
        {
          "internalType": "uint256",
          "name": "tokenId",
          "type": "uint256"
        }
      ],
      "name": "approve",
      "outputs": [],
      "stateMutability": "nonpayable",
      "type": "function"
    },
    {
      "inputs": [
        {
          "internalType": "address",
          "name": "owner",
          "type": "address"
        }
      ],
      "name": "balanceOf",
      "outputs": [
        {
          "internalType": "uint256",
          "name": "",
          "type": "uint256"
        }
      ],
      "stateMutability": "view",
      "type": "function"
    },
    {
      "inputs": [],
      "name": "baseURI",
      "outputs": [
        {
          "internalType": "string",
          "name": "",
          "type": "string"
        }
      ],
      "stateMutability": "view",
      "type": "function"
    },
    {
      "inputs": [
        {
          "internalType": "uint256",
          "name": "tokenId",
          "type": "uint256"
        }
      ],
      "name": "getApproved",
      "outputs": [
        {
          "internalType": "address",
          "name": "",
          "type": "address"
        }
      ],
      "stateMutability": "view",
      "type": "function"
    },
    {
      "inputs": [
        {
          "internalType": "address",
          "name": "owner",
          "type": "address"
        },
        {
          "internalType": "address",
          "name": "operator",
          "type": "address"
        }
      ],
      "name": "isApprovedForAll",
      "outputs": [
        {
          "internalType": "bool",
          "name": "",
          "type": "bool"
        }
      ],
      "stateMutability": "view",
      "type": "function"
    },
    {
      "inputs": [],
      "name": "name",
      "outputs": [
        {
          "internalType": "string",
          "name": "",
          "type": "string"
        }
      ],
      "stateMutability": "view",
      "type": "function"
    },
    {
      "inputs": [],
      "name": "owner",
      "outputs": [
        {
          "internalType": "address",
          "name": "",
          "type": "address"
        }
      ],
      "stateMutability": "view",
      "type": "function"
    },
    {
      "inputs": [
        {
          "internalType": "uint256",
          "name": "tokenId",
          "type": "uint256"
        }
      ],
      "name": "ownerOf",
      "outputs": [
        {
          "internalType": "address",
          "name": "",
          "type": "address"
        }
      ],
      "stateMutability": "view",
      "type": "function"
    },
    {
      "inputs": [
        {
          "internalType": "address",
          "name": "from",
          "type": "address"
        },
        {
          "internalType": "address",
          "name": "to",
          "type": "address"
        },
        {
          "internalType": "uint256",
          "name": "tokenId",
          "type": "uint256"
        }
      ],
      "name": "safeTransferFrom",
      "outputs": [],
      "stateMutability": "nonpayable",
      "type": "function"
    },
    {
      "inputs": [
        {
          "internalType": "address",
          "name": "from",
          "type": "address"
        },
        {
          "internalType": "address",
          "name": "to",
          "type": "address"
        },
        {
          "internalType": "uint256",
          "name": "tokenId",
          "type": "uint256"
        },
        {
          "internalType": "bytes",
          "name": "_data",
          "type": "bytes"
        }
      ],
      "name": "safeTransferFrom",
      "outputs": [],
      "stateMutability": "nonpayable",
      "type": "function"
    },
    {
      "inputs": [
        {
          "internalType": "address",
          "name": "operator",
          "type": "address"
        },
        {
          "internalType": "bool",
          "name": "approved",
          "type": "bool"
        }
      ],
      "name": "setApprovalForAll",
      "outputs": [],
      "stateMutability": "nonpayable",
      "type": "function"
    },
    {
      "inputs": [
        {
          "internalType": "address",
          "name": "_newOwner",
          "type": "address"
        }
      ],
      "name": "setOwner",
      "outputs": [],
      "stateMutability": "nonpayable",
      "type": "function"
    },
    {
      "inputs": [
        {
          "internalType": "bytes4",
          "name": "interfaceId",
          "type": "bytes4"
        }
      ],
      "name": "supportsInterface",
      "outputs": [
        {
          "internalType": "bool",
          "name": "",
          "type": "bool"
        }
      ],
      "stateMutability": "view",
      "type": "function"
    },
    {
      "inputs": [],
      "name": "symbol",
      "outputs": [
        {
          "internalType": "string",
          "name": "",
          "type": "string"
        }
      ],
      "stateMutability": "view",
      "type": "function"
    },
    {
      "inputs": [
        {
          "internalType": "uint256",
          "name": "index",
          "type": "uint256"
        }
      ],
      "name": "tokenByIndex",
      "outputs": [
        {
          "internalType": "uint256",
          "name": "",
          "type": "uint256"
        }
      ],
      "stateMutability": "view",
      "type": "function"
    },
    {
      "inputs": [
        {
          "internalType": "address",
          "name": "owner",
          "type": "address"
        },
        {
          "internalType": "uint256",
          "name": "index",
          "type": "uint256"
        }
      ],
      "name": "tokenOfOwnerByIndex",
      "outputs": [
        {
          "internalType": "uint256",
          "name": "",
          "type": "uint256"
        }
      ],
      "stateMutability": "view",
      "type": "function"
    },
    {
      "inputs": [
        {
          "internalType": "uint256",
          "name": "tokenId",
          "type": "uint256"
        }
      ],
      "name": "tokenURI",
      "outputs": [
        {
          "internalType": "string",
          "name": "",
          "type": "string"
        }
      ],
      "stateMutability": "view",
      "type": "function"
    },
    {
      "inputs": [],
      "name": "totalSupply",
      "outputs": [
        {
          "internalType": "uint256",
          "name": "",
          "type": "uint256"
        }
      ],
      "stateMutability": "view",
      "type": "function"
    },
    {
      "inputs": [
        {
          "internalType": "address",
          "name": "from",
          "type": "address"
        },
        {
          "internalType": "address",
          "name": "to",
          "type": "address"
        },
        {
          "internalType": "uint256",
          "name": "tokenId",
          "type": "uint256"
        }
      ],
      "name": "transferFrom",
      "outputs": [],
      "stateMutability": "nonpayable",
      "type": "function"
    },
    {
      "inputs": [
        {
          "internalType": "address",
          "name": "to",
          "type": "address"
        },
        {
          "internalType": "uint256",
          "name": "tokenId",
          "type": "uint256"
        }
      ],
      "name": "mint",
      "outputs": [],
      "stateMutability": "nonpayable",
      "type": "function"
    },
    {
      "inputs": [
        {
          "internalType": "string",
          "name": "uri",
          "type": "string"
        }
      ],
      "name": "setBaseURI",
      "outputs": [],
      "stateMutability": "nonpayable",
      "type": "function"
    },
    {
      "inputs": [
        {
          "internalType": "uint256",
          "name": "_index",
          "type": "uint256"
        }
      ],
      "name": "reveal",
      "outputs": [],
      "stateMutability": "nonpayable",
      "type": "function"
    },
    {
      "inputs": [
        {
          "internalType": "uint256",
          "name": "_index",
          "type": "uint256"
        }
      ],
      "name": "getBatchIdAtIndex",
      "outputs": [
        {
          "internalType": "uint256",
          "name": "",
          "type": "uint256"
        }
      ],
      "stateMutability": "view",
      "type": "function"
    }
  ],
  "bytecode": "0x60806040523480156200001157600080fd5b50604051620023f8380380620023f8833981810160405260408110156200003757600080fd5b81019080805160405193929190846401000000008211156200005857600080fd5b9083019060208201858111156200006e57600080fd5b82516401000000008111828201881017156200008957600080fd5b82525081516020918201929091019080838360005b83811015620000b85781810151838201526020016200009e565b50505050905090810190601f168015620000e65780820380516001836020036101000a031916815260200191505b50604052602001805160405193929190846401000000008211156200010a57600080fd5b9083019060208201858111156200012057600080fd5b82516401000000008111828201881017156200013b57600080fd5b82525081516020918201929091019080838360005b838110156200016a57818101518382015260200162000150565b50505050905090810190601f168015620001985780820380516001836020036101000a031916815260200191505b50604052505050620001b18282620001c460201b60201c565b620001bc3362000290565b50506200067d565b600054610100900460ff1680620001e05750620001e0620002e2565b80620001ef575060005460ff16155b6200022c5760405162461bcd60e51b815260040180806020018281038252602e815260200180620023ca602e913960400191505060405180910390fd5b600054610100900460ff1615801562000258576000805460ff1961ff0019909116610100171660011790555b6200026262000300565b6200026c620003aa565b62000278838362000450565b80156200028b576000805461ff00191690555b505050565b609780546001600160a01b038381166001600160a01b0319831681179093556040519116919082907f8292fce18fa69edf4db7b94ea2e58241df0ae57f97e0a6c9b29067028bf92d7690600090a35050565b6000620002fa306200054660201b62000eb81760201c565b15905090565b600054610100900460ff16806200031c57506200031c620002e2565b806200032b575060005460ff16155b620003685760405162461bcd60e51b815260040180806020018281038252602e815260200180620023ca602e913960400191505060405180910390fd5b600054610100900460ff1615801562000394576000805460ff1961ff0019909116610100171660011790555b8015620003a7576000805461ff00191690555b50565b600054610100900460ff1680620003c65750620003c6620002e2565b80620003d5575060005460ff16155b620004125760405162461bcd60e51b815260040180806020018281038252602e815260200180620023ca602e913960400191505060405180910390fd5b600054610100900460ff161580156200043e576000805460ff1961ff0019909116610100171660011790555b620003946301ffc9a760e01b6200054c565b600054610100900460ff16806200046c57506200046c620002e2565b806200047b575060005460ff16155b620004b85760405162461bcd60e51b815260040180806020018281038252602e815260200180620023ca602e913960400191505060405180910390fd5b600054610100900460ff16158015620004e4576000805460ff1961ff0019909116610100171660011790555b8251620004f990606a906020860190620005d1565b5081516200050f90606b906020850190620005d1565b50620005226380ac58cd60e01b6200054c565b62000534635b5e139f60e01b6200054c565b6200027863780e9d6360e01b6200054c565b3b151590565b6001600160e01b03198082161415620005ac576040805162461bcd60e51b815260206004820152601c60248201527f4552433136353a20696e76616c696420696e7465726661636520696400000000604482015290519081900360640190fd5b6001600160e01b0319166000908152603360205260409020805460ff19166001179055565b828054600181600116156101000203166002900490600052602060002090601f01602090048101928262000609576000855562000654565b82601f106200062457805160ff191683800117855562000654565b8280016001018555821562000654579182015b828111156200065457825182559160200191906001019062000637565b506200066292915062000666565b5090565b5b8082111562000662576000815560010162000667565b611d3d806200068d6000396000f3fe608060405234801561001057600080fd5b506004361061014d5760003560e01c80634f6ccce7116100c357806395d89b411161007c57806395d89b4114610472578063a22cb4651461047a578063b88d4fde146104a8578063c2ca0ac51461056e578063c87b56dd1461058b578063e985e9c5146105a85761014d565b80634f6ccce71461039257806355f804b3146103af5780636352211e1461041f5780636c0360eb1461043c57806370a08231146104445780638da5cb5b1461046a5761014d565b806318160ddd1161011557806318160ddd1461029757806323b872dd146102b15780632419f51b146102e75780632f745c591461030457806340c10f191461033057806342842e0e1461035c5761014d565b806301ffc9a71461015257806306fdde031461018d578063081812fc1461020a578063095ea7b31461024357806313af403514610271575b600080fd5b6101796004803603602081101561016857600080fd5b50356001600160e01b0319166105d6565b604080519115158252519081900360200190f35b6101956105f9565b6040805160208082528351818301528351919283929083019185019080838360005b838110156101cf5781810151838201526020016101b7565b50505050905090810190601f1680156101fc5780820380516001836020036101000a031916815260200191505b509250505060405180910390f35b6102276004803603602081101561022057600080fd5b503561068f565b604080516001600160a01b039092168252519081900360200190f35b61026f6004803603604081101561025957600080fd5b506001600160a01b0381351690602001356106f1565b005b61026f6004803603602081101561028757600080fd5b50356001600160a01b03166107cc565b61029f610820565b60408051918252519081900360200190f35b61026f600480360360608110156102c757600080fd5b506001600160a01b03813581169160208101359091169060400135610831565b61029f600480360360208110156102fd57600080fd5b5035610888565b61029f6004803603604081101561031a57600080fd5b506001600160a01b03813516906020013561088e565b61026f6004803603604081101561034657600080fd5b506001600160a01b0381351690602001356108b9565b61026f6004803603606081101561037257600080fd5b506001600160a01b038135811691602081013590911690604001356108c7565b61029f600480360360208110156103a857600080fd5b50356108e2565b61026f600480360360208110156103c557600080fd5b8101906020810181356401000000008111156103e057600080fd5b8201836020820111156103f257600080fd5b8035906020019184600183028401116401000000008311171561041457600080fd5b5090925090506108c3565b6102276004803603602081101561043557600080fd5b50356108f8565b610195610920565b61029f6004803603602081101561045a57600080fd5b50356001600160a01b0316610981565b6102276109e9565b6101956109f8565b61026f6004803603604081101561049057600080fd5b506001600160a01b0381351690602001351515610a59565b61026f600480360360808110156104be57600080fd5b6001600160a01b038235811692602081013590911691604082013591908101906080810160608201356401000000008111156104f957600080fd5b82018360208201111561050b57600080fd5b8035906020019184600183028401116401000000008311171561052d57600080fd5b91908080601f016020809104026020016040519081016040528093929190818152602001838380828437600092019190915250929550610b5e945050505050565b61026f6004803603602081101561058457600080fd5b5035610bbc565b610195600480360360208110156105a157600080fd5b5035610c09565b610179600480360360408110156105be57600080fd5b506001600160a01b0381358116916020013516610e8a565b6001600160e01b0319811660009081526033602052604090205460ff165b919050565b606a8054604080516020601f60026000196101006001881615020190951694909404938401819004810282018101909252828152606093909290918301828280156106855780601f1061065a57610100808354040283529160200191610685565b820191906000526020600020905b81548152906001019060200180831161066857829003601f168201915b5050505050905090565b600061069a82610ebe565b6106d55760405162461bcd60e51b815260040180806020018281038252602c815260200180611c32602c913960400191505060405180910390fd5b506000908152606860205260409020546001600160a01b031690565b60006106fc826108f8565b9050806001600160a01b0316836001600160a01b0316141561074f5760405162461bcd60e51b8152600401808060200182810382526021815260200180611cb66021913960400191505060405180910390fd5b806001600160a01b0316610761610ecb565b6001600160a01b0316148061078257506107828161077d610ecb565b610e8a565b6107bd5760405162461bcd60e51b8152600401808060200182810382526038815260200180611b856038913960400191505060405180910390fd5b6107c78383610ecf565b505050565b6107d4610f3d565b610814576040805162461bcd60e51b815260206004820152600c60248201526b1d5b985d5d1a1bdc9a5e995960a21b604482015290519081900360640190fd5b61081d81610f60565b50565b600061082c6066610fb2565b905090565b61084261083c610ecb565b82610fbd565b61087d5760405162461bcd60e51b8152600401808060200182810382526031815260200180611cd76031913960400191505060405180910390fd5b6107c7838383611061565b50600a90565b6001600160a01b03821660009081526065602052604081206108b090836111ad565b90505b92915050565b6108c382826111b9565b5050565b6107c783838360405180602001604052806000815250610b5e565b6000806108f06066846112e7565b509392505050565b60006108b382604051806060016040528060298152602001611be76029913960669190611303565b606d8054604080516020601f60026000196101006001881615020190951694909404938401819004810282018101909252828152606093909290918301828280156106855780601f1061065a57610100808354040283529160200191610685565b60006001600160a01b0382166109c85760405162461bcd60e51b815260040180806020018281038252602a815260200180611bbd602a913960400191505060405180910390fd5b6001600160a01b03821660009081526065602052604090206108b390610fb2565b6097546001600160a01b031690565b606b8054604080516020601f60026000196101006001881615020190951694909404938401819004810282018101909252828152606093909290918301828280156106855780601f1061065a57610100808354040283529160200191610685565b610a61610ecb565b6001600160a01b0316826001600160a01b03161415610ac7576040805162461bcd60e51b815260206004820152601960248201527f4552433732313a20617070726f766520746f2063616c6c657200000000000000604482015290519081900360640190fd5b8060696000610ad4610ecb565b6001600160a01b03908116825260208083019390935260409182016000908120918716808252919093529120805460ff191692151592909217909155610b18610ecb565b6001600160a01b03167f17307eab39ab6107e8899845ad3d59bd9653f200f220920489ca2b5937696c318360405180821515815260200191505060405180910390a35050565b610b6f610b69610ecb565b83610fbd565b610baa5760405162461bcd60e51b8152600401808060200182810382526031815260200180611cd76031913960400191505060405180910390fd5b610bb68484848461131a565b50505050565b604080516020808252600490820152631d195cdd60e21b81830152905182917f6df1d8db2a036436ffe0b2d1833f2c5f1e624818dfce2578c0faa4b83ef9998d919081900360600190a250565b6060610c1482610ebe565b610c4f5760405162461bcd60e51b815260040180806020018281038252602f815260200180611c87602f913960400191505060405180910390fd5b6000828152606c602090815260408083208054825160026001831615610100026000190190921691909104601f810185900485028201850190935282815292909190830182828015610ce25780601f10610cb757610100808354040283529160200191610ce2565b820191906000526020600020905b815481529060010190602001808311610cc557829003601f168201915b505050505090506000610cf3610920565b9050805160001415610d07575090506105f4565b815115610dc85780826040516020018083805190602001908083835b60208310610d425780518252601f199092019160209182019101610d23565b51815160209384036101000a600019018019909216911617905285519190930192850191508083835b60208310610d8a5780518252601f199092019160209182019101610d6b565b6001836020036101000a03801982511681845116808217855250505050505090500192505050604051602081830303815290604052925050506105f4565b80610dd28561136c565b6040516020018083805190602001908083835b60208310610e045780518252601f199092019160209182019101610de5565b51815160209384036101000a600019018019909216911617905285519190930192850191508083835b60208310610e4c5780518252601f199092019160209182019101610e2d565b6001836020036101000a0380198251168184511680821785525050505050509050019250505060405160208183030381529060405292505050919050565b6001600160a01b03918216600090815260696020908152604080832093909416825291909152205460ff1690565b3b151590565b60006108b3606683611447565b3390565b600081815260686020526040902080546001600160a01b0319166001600160a01b0384169081179091558190610f04826108f8565b6001600160a01b03167f8c5be1e5ebec7d5bd14f71427d1e84f3dd0314c0f7b2291e5b200ac8c7c3b92560405160405180910390a45050565b6000610f476109e9565b6001600160a01b0316336001600160a01b031614905090565b609780546001600160a01b038381166001600160a01b0319831681179093556040519116919082907f8292fce18fa69edf4db7b94ea2e58241df0ae57f97e0a6c9b29067028bf92d7690600090a35050565b60006108b382611453565b6000610fc882610ebe565b6110035760405162461bcd60e51b815260040180806020018281038252602c815260200180611b59602c913960400191505060405180910390fd5b600061100e836108f8565b9050806001600160a01b0316846001600160a01b031614806110495750836001600160a01b031661103e8461068f565b6001600160a01b0316145b8061105957506110598185610e8a565b949350505050565b826001600160a01b0316611074826108f8565b6001600160a01b0316146110b95760405162461bcd60e51b8152600401808060200182810382526029815260200180611c5e6029913960400191505060405180910390fd5b6001600160a01b0382166110fe5760405162461bcd60e51b8152600401808060200182810382526024815260200180611b356024913960400191505060405180910390fd5b6111098383836107c7565b611114600082610ecf565b6001600160a01b03831660009081526065602052604090206111369082611457565b506001600160a01b03821660009081526065602052604090206111599082611463565b506111666066828461146f565b5080826001600160a01b0316846001600160a01b03167fddf252ad1be2c89b69c2b068fc378daa952ba7f163c4a11628f55a4df523b3ef60405160405180910390a4505050565b60006108b08383611485565b6001600160a01b038216611214576040805162461bcd60e51b815260206004820181905260248201527f4552433732313a206d696e7420746f20746865207a65726f2061646472657373604482015290519081900360640190fd5b61121d81610ebe565b1561126f576040805162461bcd60e51b815260206004820152601c60248201527f4552433732313a20746f6b656e20616c7265616479206d696e74656400000000604482015290519081900360640190fd5b61127b600083836107c7565b6001600160a01b038216600090815260656020526040902061129d9082611463565b506112aa6066828461146f565b5060405181906001600160a01b038416906000907fddf252ad1be2c89b69c2b068fc378daa952ba7f163c4a11628f55a4df523b3ef908290a45050565b60008080806112f686866114e9565b9097909650945050505050565b6000611310848484611564565b90505b9392505050565b611325848484611061565b6113318484848461162e565b610bb65760405162461bcd60e51b8152600401808060200182810382526032815260200180611b036032913960400191505060405180910390fd5b60608161139157506040805180820190915260018152600360fc1b60208201526105f4565b8160005b81156113a957600101600a82049150611395565b60008167ffffffffffffffff811180156113c257600080fd5b506040519080825280601f01601f1916602001820160405280156113ed576020820181803683370190505b50859350905060001982015b831561143e57600a840660300160f81b8282806001900393508151811061141c57fe5b60200101906001600160f81b031916908160001a905350600a840493506113f9565b50949350505050565b60006108b08383611796565b5490565b60006108b083836117ae565b60006108b08383611874565b600061131084846001600160a01b0385166118be565b815460009082106114c75760405162461bcd60e51b8152600401808060200182810382526022815260200180611ae16022913960400191505060405180910390fd5b8260000182815481106114d657fe5b9060005260206000200154905092915050565b81546000908190831061152d5760405162461bcd60e51b8152600401808060200182810382526022815260200180611c106022913960400191505060405180910390fd5b600084600001848154811061153e57fe5b906000526020600020906002020190508060000154816001015492509250509250929050565b600082815260018401602052604081205482816115ff5760405162461bcd60e51b81526004018080602001828103825283818151815260200191508051906020019080838360005b838110156115c45781810151838201526020016115ac565b50505050905090810190601f1680156115f15780820380516001836020036101000a031916815260200191505b509250505060405180910390fd5b5084600001600182038154811061161257fe5b9060005260206000209060020201600101549150509392505050565b6000611642846001600160a01b0316610eb8565b61164e57506001611059565b600061175c630a85bd0160e11b611663610ecb565b88878760405160240180856001600160a01b03168152602001846001600160a01b0316815260200183815260200180602001828103825283818151815260200191508051906020019080838360005b838110156116ca5781810151838201526020016116b2565b50505050905090810190601f1680156116f75780820380516001836020036101000a031916815260200191505b5095505050505050604051602081830303815290604052906001600160e01b0319166020820180516001600160e01b038381831617835250505050604051806060016040528060328152602001611b03603291396001600160a01b0388169190611955565b9050600081806020019051602081101561177557600080fd5b50516001600160e01b031916630a85bd0160e11b1492505050949350505050565b60009081526001919091016020526040902054151590565b6000818152600183016020526040812054801561186a57835460001980830191908101906000908790839081106117e157fe5b90600052602060002001549050808760000184815481106117fe57fe5b60009182526020808320909101929092558281526001898101909252604090209084019055865487908061182e57fe5b600190038181906000526020600020016000905590558660010160008781526020019081526020016000206000905560019450505050506108b3565b60009150506108b3565b60006118808383611796565b6118b6575081546001818101845560008481526020808220909301849055845484825282860190935260409020919091556108b3565b5060006108b3565b600082815260018401602052604081205480611923575050604080518082018252838152602080820184815286546001818101895560008981528481209551600290930290950191825591519082015586548684528188019092529290912055611313565b8285600001600183038154811061193657fe5b9060005260206000209060020201600101819055506000915050611313565b606061131084846000858561196985610eb8565b6119ba576040805162461bcd60e51b815260206004820152601d60248201527f416464726573733a2063616c6c20746f206e6f6e2d636f6e7472616374000000604482015290519081900360640190fd5b600080866001600160a01b031685876040518082805190602001908083835b602083106119f85780518252601f1990920191602091820191016119d9565b6001836020036101000a03801982511681845116808217855250505050505090500191505060006040518083038185875af1925050503d8060008114611a5a576040519150601f19603f3d011682016040523d82523d6000602084013e611a5f565b606091505b5091509150611a6f828286611a7a565b979650505050505050565b60608315611a89575081611313565b825115611a995782518084602001fd5b60405162461bcd60e51b81526020600482018181528451602484015284518593919283926044019190850190808383600083156115c45781810151838201526020016115ac56fe456e756d657261626c655365743a20696e646578206f7574206f6620626f756e64734552433732313a207472616e7366657220746f206e6f6e20455243373231526563656976657220696d706c656d656e7465724552433732313a207472616e7366657220746f20746865207a65726f20616464726573734552433732313a206f70657261746f7220717565727920666f72206e6f6e6578697374656e7420746f6b656e4552433732313a20617070726f76652063616c6c6572206973206e6f74206f776e6572206e6f7220617070726f76656420666f7220616c6c4552433732313a2062616c616e636520717565727920666f7220746865207a65726f20616464726573734552433732313a206f776e657220717565727920666f72206e6f6e6578697374656e7420746f6b656e456e756d657261626c654d61703a20696e646578206f7574206f6620626f756e64734552433732313a20617070726f76656420717565727920666f72206e6f6e6578697374656e7420746f6b656e4552433732313a207472616e73666572206f6620746f6b656e2074686174206973206e6f74206f776e4552433732314d657461646174613a2055524920717565727920666f72206e6f6e6578697374656e7420746f6b656e4552433732313a20617070726f76616c20746f2063757272656e74206f776e65724552433732313a207472616e736665722063616c6c6572206973206e6f74206f776e6572206e6f7220617070726f766564a26469706673582212201097afccf34978e9638bbfd4820ad1d47be9b75f0dfe80087ae2f1b8c84c2edf64736f6c63430007060033496e697469616c697a61626c653a20636f6e747261637420697320616c726561647920696e697469616c697a6564",
  "immutableReferences": {},
  "source": "// SPDX-License-Identifier: MIT\n\npragma solidity 0.7.6;\n\nimport \"@openzeppelin/contracts-upgradeable/token/ERC721/ERC721Upgradeable.sol\";\nimport \"./dependencies/Ownable.sol\";\n\ncontract TestERC721 is ERC721Upgradeable, Ownable {\n    constructor(string memory _name, string memory _symbol) public {\n        __ERC721_init(_name, _symbol);\n        _setupOwner(msg.sender);\n    }\n\n    function mint(address to, uint tokenId) external {\n        _mint(to, tokenId);\n    }\n\n    function setBaseURI(string calldata uri) external {\n\n    }\n\n    function reveal(uint256 _index) external {\n        emit TokenURIRevealed(_index, \"test\");\n    }\n\n    function getBatchIdAtIndex(uint256 _index) external view returns (uint256) {\n        return 10;\n    }\n\n    function _canSetOwner() internal virtual view override returns (bool) {\n        return msg.sender == owner();\n    }\n\n    event TokenURIRevealed(uint256 indexed index, string revealedURI);\n}\n",
  "sourcePath": "/Users/dmitry/workspaces/workspace-rarible/protocol-contracts/projects/tokens-test/contracts/TestERC721.sol",
  "compiler": {
    "name": "solc",
    "version": "0.7.6+commit.7338295f.Emscripten.clang"
  },
  "schemaVersion": "3.4.16",
  "updatedAt": "2024-05-03T06:53:43.429Z",
  "devdoc": {
    "kind": "dev",
    "methods": {
      "approve(address,uint256)": {
        "details": "See {IERC721-approve}."
      },
      "balanceOf(address)": {
        "details": "See {IERC721-balanceOf}."
      },
      "baseURI()": {
        "details": "Returns the base URI set via {_setBaseURI}. This will be automatically added as a prefix in {tokenURI} to each token's URI, or to the token ID if no specific URI is set for that token ID."
      },
      "getApproved(uint256)": {
        "details": "See {IERC721-getApproved}."
      },
      "isApprovedForAll(address,address)": {
        "details": "See {IERC721-isApprovedForAll}."
      },
      "name()": {
        "details": "See {IERC721Metadata-name}."
      },
      "ownerOf(uint256)": {
        "details": "See {IERC721-ownerOf}."
      },
      "safeTransferFrom(address,address,uint256)": {
        "details": "See {IERC721-safeTransferFrom}."
      },
      "safeTransferFrom(address,address,uint256,bytes)": {
        "details": "See {IERC721-safeTransferFrom}."
      },
      "setApprovalForAll(address,bool)": {
        "details": "See {IERC721-setApprovalForAll}."
      },
      "setOwner(address)": {
        "params": {
          "_newOwner": "The address to set as the new owner of the contract."
        }
      },
      "supportsInterface(bytes4)": {
        "details": "See {IERC165-supportsInterface}. Time complexity O(1), guaranteed to always use less than 30 000 gas."
      },
      "symbol()": {
        "details": "See {IERC721Metadata-symbol}."
      },
      "tokenByIndex(uint256)": {
        "details": "See {IERC721Enumerable-tokenByIndex}."
      },
      "tokenOfOwnerByIndex(address,uint256)": {
        "details": "See {IERC721Enumerable-tokenOfOwnerByIndex}."
      },
      "tokenURI(uint256)": {
        "details": "See {IERC721Metadata-tokenURI}."
      },
      "totalSupply()": {
        "details": "See {IERC721Enumerable-totalSupply}."
      },
      "transferFrom(address,address,uint256)": {
        "details": "See {IERC721-transferFrom}."
      }
    },
    "version": 1
  },
  "userdoc": {
    "kind": "user",
    "methods": {
      "owner()": {
        "notice": "Returns the owner of the contract."
      },
      "setOwner(address)": {
        "notice": "Lets an authorized wallet set a new owner for the contract."
      }
    },
    "version": 1
  }
}