{
  "contractName": "TestERC721EX",
  "abi": [
    {
      "inputs": [
        {
          "internalType": "string",
          "name": "_name",
          "type": "string"
        },
        {
          "internalType": "string",
          "name": "_symbol",
          "type": "string"
        },
        {
          "internalType": "string",
          "name": "uri",
          "type": "string"
        }
      ],
      "stateMutability": "nonpayable",
      "type": "constructor"
    },
    {
      "anonymous": false,
      "inputs": [
        {
          "indexed": true,
          "internalType": "address",
          "name": "owner",
          "type": "address"
        },
        {
          "indexed": true,
          "internalType": "address",
          "name": "approved",
          "type": "address"
        },
        {
          "indexed": true,
          "internalType": "uint256",
          "name": "tokenId",
          "type": "uint256"
        }
      ],
      "name": "Approval",
      "type": "event"
    },
    {
      "anonymous": false,
      "inputs": [
        {
          "indexed": true,
          "internalType": "address",
          "name": "owner",
          "type": "address"
        },
        {
          "indexed": true,
          "internalType": "address",
          "name": "operator",
          "type": "address"
        },
        {
          "indexed": false,
          "internalType": "bool",
          "name": "approved",
          "type": "bool"
        }
      ],
      "name": "ApprovalForAll",
      "type": "event"
    },
    {
      "anonymous": false,
      "inputs": [
        {
          "indexed": false,
          "internalType": "address",
          "name": "owner",
          "type": "address"
        },
        {
          "indexed": false,
          "internalType": "string",
          "name": "name",
          "type": "string"
        },
        {
          "indexed": false,
          "internalType": "string",
          "name": "symbol",
          "type": "string"
        }
      ],
      "name": "CreateERC721Rarible",
      "type": "event"
    },
    {
      "anonymous": false,
      "inputs": [
        {
          "indexed": true,
          "internalType": "uint256",
          "name": "index",
          "type": "uint256"
        },
        {
          "indexed": false,
          "internalType": "string",
          "name": "revealedURI",
          "type": "string"
        }
      ],
      "name": "TokenURIRevealed",
      "type": "event"
    },
    {
      "anonymous": false,
      "inputs": [
        {
          "indexed": true,
          "internalType": "address",
          "name": "from",
          "type": "address"
        },
        {
          "indexed": true,
          "internalType": "address",
          "name": "to",
          "type": "address"
        },
        {
          "indexed": true,
          "internalType": "uint256",
          "name": "tokenId",
          "type": "uint256"
        }
      ],
      "name": "Transfer",
      "type": "event"
    },
    {
      "inputs": [
        {
          "internalType": "address",
          "name": "to",
          "type": "address"
        },
        {
          "internalType": "uint256",
          "name": "tokenId",
          "type": "uint256"
        }
      ],
      "name": "approve",
      "outputs": [],
      "stateMutability": "nonpayable",
      "type": "function"
    },
    {
      "inputs": [
        {
          "internalType": "address",
          "name": "owner",
          "type": "address"
        }
      ],
      "name": "balanceOf",
      "outputs": [
        {
          "internalType": "uint256",
          "name": "",
          "type": "uint256"
        }
      ],
      "stateMutability": "view",
      "type": "function"
    },
    {
      "inputs": [],
      "name": "baseURI",
      "outputs": [
        {
          "internalType": "string",
          "name": "",
          "type": "string"
        }
      ],
      "stateMutability": "view",
      "type": "function"
    },
    {
      "inputs": [
        {
          "internalType": "uint256",
          "name": "tokenId",
          "type": "uint256"
        }
      ],
      "name": "getApproved",
      "outputs": [
        {
          "internalType": "address",
          "name": "",
          "type": "address"
        }
      ],
      "stateMutability": "view",
      "type": "function"
    },
    {
      "inputs": [
        {
          "internalType": "address",
          "name": "owner",
          "type": "address"
        },
        {
          "internalType": "address",
          "name": "operator",
          "type": "address"
        }
      ],
      "name": "isApprovedForAll",
      "outputs": [
        {
          "internalType": "bool",
          "name": "",
          "type": "bool"
        }
      ],
      "stateMutability": "view",
      "type": "function"
    },
    {
      "inputs": [],
      "name": "name",
      "outputs": [
        {
          "internalType": "string",
          "name": "",
          "type": "string"
        }
      ],
      "stateMutability": "view",
      "type": "function"
    },
    {
      "inputs": [
        {
          "internalType": "uint256",
          "name": "tokenId",
          "type": "uint256"
        }
      ],
      "name": "ownerOf",
      "outputs": [
        {
          "internalType": "address",
          "name": "",
          "type": "address"
        }
      ],
      "stateMutability": "view",
      "type": "function"
    },
    {
      "inputs": [
        {
          "internalType": "address",
          "name": "from",
          "type": "address"
        },
        {
          "internalType": "address",
          "name": "to",
          "type": "address"
        },
        {
          "internalType": "uint256",
          "name": "tokenId",
          "type": "uint256"
        }
      ],
      "name": "safeTransferFrom",
      "outputs": [],
      "stateMutability": "nonpayable",
      "type": "function"
    },
    {
      "inputs": [
        {
          "internalType": "address",
          "name": "from",
          "type": "address"
        },
        {
          "internalType": "address",
          "name": "to",
          "type": "address"
        },
        {
          "internalType": "uint256",
          "name": "tokenId",
          "type": "uint256"
        },
        {
          "internalType": "bytes",
          "name": "_data",
          "type": "bytes"
        }
      ],
      "name": "safeTransferFrom",
      "outputs": [],
      "stateMutability": "nonpayable",
      "type": "function"
    },
    {
      "inputs": [
        {
          "internalType": "address",
          "name": "operator",
          "type": "address"
        },
        {
          "internalType": "bool",
          "name": "approved",
          "type": "bool"
        }
      ],
      "name": "setApprovalForAll",
      "outputs": [],
      "stateMutability": "nonpayable",
      "type": "function"
    },
    {
      "inputs": [
        {
          "internalType": "bytes4",
          "name": "interfaceId",
          "type": "bytes4"
        }
      ],
      "name": "supportsInterface",
      "outputs": [
        {
          "internalType": "bool",
          "name": "",
          "type": "bool"
        }
      ],
      "stateMutability": "view",
      "type": "function"
    },
    {
      "inputs": [],
      "name": "symbol",
      "outputs": [
        {
          "internalType": "string",
          "name": "",
          "type": "string"
        }
      ],
      "stateMutability": "view",
      "type": "function"
    },
    {
      "inputs": [
        {
          "internalType": "uint256",
          "name": "index",
          "type": "uint256"
        }
      ],
      "name": "tokenByIndex",
      "outputs": [
        {
          "internalType": "uint256",
          "name": "",
          "type": "uint256"
        }
      ],
      "stateMutability": "view",
      "type": "function"
    },
    {
      "inputs": [
        {
          "internalType": "address",
          "name": "owner",
          "type": "address"
        },
        {
          "internalType": "uint256",
          "name": "index",
          "type": "uint256"
        }
      ],
      "name": "tokenOfOwnerByIndex",
      "outputs": [
        {
          "internalType": "uint256",
          "name": "",
          "type": "uint256"
        }
      ],
      "stateMutability": "view",
      "type": "function"
    },
    {
      "inputs": [
        {
          "internalType": "uint256",
          "name": "tokenId",
          "type": "uint256"
        }
      ],
      "name": "tokenURI",
      "outputs": [
        {
          "internalType": "string",
          "name": "",
          "type": "string"
        }
      ],
      "stateMutability": "view",
      "type": "function"
    },
    {
      "inputs": [],
      "name": "totalSupply",
      "outputs": [
        {
          "internalType": "uint256",
          "name": "",
          "type": "uint256"
        }
      ],
      "stateMutability": "view",
      "type": "function"
    },
    {
      "inputs": [
        {
          "internalType": "address",
          "name": "from",
          "type": "address"
        },
        {
          "internalType": "address",
          "name": "to",
          "type": "address"
        },
        {
          "internalType": "uint256",
          "name": "tokenId",
          "type": "uint256"
        }
      ],
      "name": "transferFrom",
      "outputs": [],
      "stateMutability": "nonpayable",
      "type": "function"
    },
    {
      "inputs": [
        {
          "internalType": "address",
          "name": "to",
          "type": "address"
        },
        {
          "internalType": "uint256",
          "name": "tokenId",
          "type": "uint256"
        },
        {
          "internalType": "string",
          "name": "tokenURI",
          "type": "string"
        }
      ],
      "name": "mint",
      "outputs": [],
      "stateMutability": "nonpayable",
      "type": "function"
    },
    {
      "inputs": [
        {
          "internalType": "string",
          "name": "uri",
          "type": "string"
        }
      ],
      "name": "setBaseURI",
      "outputs": [],
      "stateMutability": "nonpayable",
      "type": "function"
    },
    {
      "inputs": [
        {
          "internalType": "string",
          "name": "uri",
          "type": "string"
        }
      ],
      "name": "setContractURI",
      "outputs": [],
      "stateMutability": "nonpayable",
      "type": "function"
    },
    {
      "inputs": [],
      "name": "contractURI",
      "outputs": [
        {
          "internalType": "string",
          "name": "",
          "type": "string"
        }
      ],
      "stateMutability": "view",
      "type": "function"
    },
    {
      "inputs": [
        {
          "internalType": "uint256",
          "name": "_index",
          "type": "uint256"
        }
      ],
      "name": "reveal",
      "outputs": [],
      "stateMutability": "nonpayable",
      "type": "function"
    },
    {
      "inputs": [
        {
          "internalType": "uint256",
          "name": "_index",
          "type": "uint256"
        }
      ],
      "name": "getBatchIdAtIndex",
      "outputs": [
        {
          "internalType": "uint256",
          "name": "",
          "type": "uint256"
        }
      ],
      "stateMutability": "view",
      "type": "function"
    }
  ],
  "bytecode": "0x60806040523480156200001157600080fd5b50604051620027b7380380620027b7833981810160405260608110156200003757600080fd5b81019080805160405193929190846401000000008211156200005857600080fd5b9083019060208201858111156200006e57600080fd5b82516401000000008111828201881017156200008957600080fd5b82525081516020918201929091019080838360005b83811015620000b85781810151838201526020016200009e565b50505050905090810190601f168015620000e65780820380516001836020036101000a031916815260200191505b50604052602001805160405193929190846401000000008211156200010a57600080fd5b9083019060208201858111156200012057600080fd5b82516401000000008111828201881017156200013b57600080fd5b82525081516020918201929091019080838360005b838110156200016a57818101518382015260200162000150565b50505050905090810190601f168015620001985780820380516001836020036101000a031916815260200191505b5060405260200180516040519392919084640100000000821115620001bc57600080fd5b908301906020820185811115620001d257600080fd5b8251640100000000811182820188101715620001ed57600080fd5b82525081516020918201929091019080838360005b838110156200021c57818101518382015260200162000202565b50505050905090810190601f1680156200024a5780820380516001836020036101000a031916815260200191505b50604052505050620002638383620003a260201b60201c565b80516200027890609790602084019062000761565b507ff05e55f0a9d205977ca8cc02236338b6a361376f404cf0b3019b2111964a01fd620002a46200046e565b848460405180846001600160a01b031681526020018060200180602001838103835285818151815260200191508051906020019080838360005b83811015620002f8578181015183820152602001620002de565b50505050905090810190601f168015620003265780820380516001836020036101000a031916815260200191505b50838103825284518152845160209182019186019080838360005b838110156200035b57818101518382015260200162000341565b50505050905090810190601f168015620003895780820380516001836020036101000a031916815260200191505b509550505050505060405180910390a15050506200080d565b600054610100900460ff1680620003be5750620003be62000472565b80620003cd575060005460ff16155b6200040a5760405162461bcd60e51b815260040180806020018281038252602e81526020018062002789602e913960400191505060405180910390fd5b600054610100900460ff1615801562000436576000805460ff1961ff0019909116610100171660011790555b6200044062000490565b6200044a6200053a565b620004568383620005e0565b801562000469576000805461ff00191690555b505050565b3390565b60006200048a30620006d660201b620010191760201c565b15905090565b600054610100900460ff1680620004ac5750620004ac62000472565b80620004bb575060005460ff16155b620004f85760405162461bcd60e51b815260040180806020018281038252602e81526020018062002789602e913960400191505060405180910390fd5b600054610100900460ff1615801562000524576000805460ff1961ff0019909116610100171660011790555b801562000537576000805461ff00191690555b50565b600054610100900460ff16806200055657506200055662000472565b8062000565575060005460ff16155b620005a25760405162461bcd60e51b815260040180806020018281038252602e81526020018062002789602e913960400191505060405180910390fd5b600054610100900460ff16158015620005ce576000805460ff1961ff0019909116610100171660011790555b620005246301ffc9a760e01b620006dc565b600054610100900460ff1680620005fc5750620005fc62000472565b806200060b575060005460ff16155b620006485760405162461bcd60e51b815260040180806020018281038252602e81526020018062002789602e913960400191505060405180910390fd5b600054610100900460ff1615801562000674576000805460ff1961ff0019909116610100171660011790555b82516200068990606a90602086019062000761565b5081516200069f90606b90602085019062000761565b50620006b26380ac58cd60e01b620006dc565b620006c4635b5e139f60e01b620006dc565b6200045663780e9d6360e01b620006dc565b3b151590565b6001600160e01b031980821614156200073c576040805162461bcd60e51b815260206004820152601c60248201527f4552433136353a20696e76616c696420696e7465726661636520696400000000604482015290519081900360640190fd5b6001600160e01b0319166000908152603360205260409020805460ff19166001179055565b828054600181600116156101000203166002900490600052602060002090601f016020900481019282620007995760008555620007e4565b82601f10620007b457805160ff1916838001178555620007e4565b82800160010185558215620007e4579182015b82811115620007e4578251825591602001919060010190620007c7565b50620007f2929150620007f6565b5090565b5b80821115620007f25760008155600101620007f7565b611f6c806200081d6000396000f3fe608060405234801561001057600080fd5b506004361061014d5760003560e01c80636352211e116100c3578063b88d4fde1161007c578063b88d4fde146104f0578063c2ca0ac5146105b4578063c87b56dd146105d1578063d3fc9864146105ee578063e8a3d485146106a7578063e985e9c5146106af5761014d565b80636352211e146103cb5780636c0360eb146103e857806370a08231146103f0578063938e3d7b1461041657806395d89b41146104ba578063a22cb465146104c25761014d565b806323b872dd1161011557806323b872dd1461028b5780632419f51b146102c15780632f745c59146102de57806342842e0e1461030a5780634f6ccce71461034057806355f804b31461035d5761014d565b806301ffc9a71461015257806306fdde031461018d578063081812fc1461020a578063095ea7b31461024357806318160ddd14610271575b600080fd5b6101796004803603602081101561016857600080fd5b50356001600160e01b0319166106dd565b604080519115158252519081900360200190f35b610195610700565b6040805160208082528351818301528351919283929083019185019080838360005b838110156101cf5781810151838201526020016101b7565b50505050905090810190601f1680156101fc5780820380516001836020036101000a031916815260200191505b509250505060405180910390f35b6102276004803603602081101561022057600080fd5b5035610796565b604080516001600160a01b039092168252519081900360200190f35b61026f6004803603604081101561025957600080fd5b506001600160a01b0381351690602001356107f8565b005b6102796108d3565b60408051918252519081900360200190f35b61026f600480360360608110156102a157600080fd5b506001600160a01b038135811691602081013590911690604001356108e4565b610279600480360360208110156102d757600080fd5b503561093b565b610279600480360360408110156102f457600080fd5b506001600160a01b038135169060200135610941565b61026f6004803603606081101561032057600080fd5b506001600160a01b0381358116916020810135909116906040013561096c565b6102796004803603602081101561035657600080fd5b5035610987565b61026f6004803603602081101561037357600080fd5b810190602081018135600160201b81111561038d57600080fd5b82018360208201111561039f57600080fd5b803590602001918460018302840111600160201b831117156103c057600080fd5b50909250905061099d565b610227600480360360208110156103e157600080fd5b50356109e0565b610195610a08565b6102796004803603602081101561040657600080fd5b50356001600160a01b0316610a69565b61026f6004803603602081101561042c57600080fd5b810190602081018135600160201b81111561044657600080fd5b82018360208201111561045857600080fd5b803590602001918460018302840111600160201b8311171561047957600080fd5b91908080601f016020809104026020016040519081016040528093929190818152602001838380828437600092019190915250929550610ad1945050505050565b610195610ae4565b61026f600480360360408110156104d857600080fd5b506001600160a01b0381351690602001351515610b45565b61026f6004803603608081101561050657600080fd5b6001600160a01b03823581169260208101359091169160408201359190810190608081016060820135600160201b81111561054057600080fd5b82018360208201111561055257600080fd5b803590602001918460018302840111600160201b8311171561057357600080fd5b91908080601f016020809104026020016040519081016040528093929190818152602001838380828437600092019190915250929550610c4a945050505050565b61026f600480360360208110156105ca57600080fd5b5035610ca8565b610195600480360360208110156105e757600080fd5b5035610cf5565b61026f6004803603606081101561060457600080fd5b6001600160a01b0382351691602081013591810190606081016040820135600160201b81111561063357600080fd5b82018360208201111561064557600080fd5b803590602001918460018302840111600160201b8311171561066657600080fd5b91908080601f016020809104026020016040519081016040528093929190818152602001838380828437600092019190915250929550610f76945050505050565b610195610f8a565b610179600480360360408110156106c557600080fd5b506001600160a01b0381358116916020013516610feb565b6001600160e01b0319811660009081526033602052604090205460ff165b919050565b606a8054604080516020601f600260001961010060018816150201909516949094049384018190048102820181019092528281526060939092909183018282801561078c5780601f106107615761010080835404028352916020019161078c565b820191906000526020600020905b81548152906001019060200180831161076f57829003601f168201915b5050505050905090565b60006107a18261101f565b6107dc5760405162461bcd60e51b815260040180806020018281038252602c815260200180611e35602c913960400191505060405180910390fd5b506000908152606860205260409020546001600160a01b031690565b6000610803826109e0565b9050806001600160a01b0316836001600160a01b031614156108565760405162461bcd60e51b8152600401808060200182810382526021815260200180611ee56021913960400191505060405180910390fd5b806001600160a01b031661086861102c565b6001600160a01b0316148061088957506108898161088461102c565b610feb565b6108c45760405162461bcd60e51b8152600401808060200182810382526038815260200180611d886038913960400191505060405180910390fd5b6108ce8383611030565b505050565b60006108df606661109e565b905090565b6108f56108ef61102c565b826110a9565b6109305760405162461bcd60e51b8152600401808060200182810382526031815260200180611f066031913960400191505060405180910390fd5b6108ce83838361114d565b50600a90565b6001600160a01b03821660009081526065602052604081206109639083611299565b90505b92915050565b6108ce83838360405180602001604052806000815250610c4a565b6000806109956066846112a5565b509392505050565b6109dc82828080601f0160208091040260200160405190810160405280939291908181526020018383808284376000920191909152506112c192505050565b5050565b600061096682604051806060016040528060298152602001611dea60299139606691906112d4565b606d8054604080516020601f600260001961010060018816150201909516949094049384018190048102820181019092528281526060939092909183018282801561078c5780601f106107615761010080835404028352916020019161078c565b60006001600160a01b038216610ab05760405162461bcd60e51b815260040180806020018281038252602a815260200180611dc0602a913960400191505060405180910390fd5b6001600160a01b03821660009081526065602052604090206109669061109e565b80516109dc906097906020840190611c42565b606b8054604080516020601f600260001961010060018816150201909516949094049384018190048102820181019092528281526060939092909183018282801561078c5780601f106107615761010080835404028352916020019161078c565b610b4d61102c565b6001600160a01b0316826001600160a01b03161415610bb3576040805162461bcd60e51b815260206004820152601960248201527f4552433732313a20617070726f766520746f2063616c6c657200000000000000604482015290519081900360640190fd5b8060696000610bc061102c565b6001600160a01b03908116825260208083019390935260409182016000908120918716808252919093529120805460ff191692151592909217909155610c0461102c565b6001600160a01b03167f17307eab39ab6107e8899845ad3d59bd9653f200f220920489ca2b5937696c318360405180821515815260200191505060405180910390a35050565b610c5b610c5561102c565b836110a9565b610c965760405162461bcd60e51b8152600401808060200182810382526031815260200180611f066031913960400191505060405180910390fd5b610ca2848484846112eb565b50505050565b604080516020808252600490820152631d195cdd60e21b81830152905182917f6df1d8db2a036436ffe0b2d1833f2c5f1e624818dfce2578c0faa4b83ef9998d919081900360600190a250565b6060610d008261101f565b610d3b5760405162461bcd60e51b815260040180806020018281038252602f815260200180611eb6602f913960400191505060405180910390fd5b6000828152606c602090815260408083208054825160026001831615610100026000190190921691909104601f810185900485028201850190935282815292909190830182828015610dce5780601f10610da357610100808354040283529160200191610dce565b820191906000526020600020905b815481529060010190602001808311610db157829003601f168201915b505050505090506000610ddf610a08565b9050805160001415610df3575090506106fb565b815115610eb45780826040516020018083805190602001908083835b60208310610e2e5780518252601f199092019160209182019101610e0f565b51815160209384036101000a600019018019909216911617905285519190930192850191508083835b60208310610e765780518252601f199092019160209182019101610e57565b6001836020036101000a03801982511681845116808217855250505050505090500192505050604051602081830303815290604052925050506106fb565b80610ebe8561133d565b6040516020018083805190602001908083835b60208310610ef05780518252601f199092019160209182019101610ed1565b51815160209384036101000a600019018019909216911617905285519190930192850191508083835b60208310610f385780518252601f199092019160209182019101610f19565b6001836020036101000a0380198251168184511680821785525050505050509050019250505060405160208183030381529060405292505050919050565b610f808383611418565b6108ce8282611546565b60978054604080516020601f600260001961010060018816150201909516949094049384018190048102820181019092528281526060939092909183018282801561078c5780601f106107615761010080835404028352916020019161078c565b6001600160a01b03918216600090815260696020908152604080832093909416825291909152205460ff1690565b3b151590565b60006109666066836115a9565b3390565b600081815260686020526040902080546001600160a01b0319166001600160a01b0384169081179091558190611065826109e0565b6001600160a01b03167f8c5be1e5ebec7d5bd14f71427d1e84f3dd0314c0f7b2291e5b200ac8c7c3b92560405160405180910390a45050565b6000610966826115b5565b60006110b48261101f565b6110ef5760405162461bcd60e51b815260040180806020018281038252602c815260200180611d5c602c913960400191505060405180910390fd5b60006110fa836109e0565b9050806001600160a01b0316846001600160a01b031614806111355750836001600160a01b031661112a84610796565b6001600160a01b0316145b8061114557506111458185610feb565b949350505050565b826001600160a01b0316611160826109e0565b6001600160a01b0316146111a55760405162461bcd60e51b8152600401808060200182810382526029815260200180611e8d6029913960400191505060405180910390fd5b6001600160a01b0382166111ea5760405162461bcd60e51b8152600401808060200182810382526024815260200180611d386024913960400191505060405180910390fd5b6111f58383836108ce565b611200600082611030565b6001600160a01b038316600090815260656020526040902061122290826115b9565b506001600160a01b038216600090815260656020526040902061124590826115c5565b50611252606682846115d1565b5080826001600160a01b0316846001600160a01b03167fddf252ad1be2c89b69c2b068fc378daa952ba7f163c4a11628f55a4df523b3ef60405160405180910390a4505050565b600061096383836115e7565b60008080806112b4868661164b565b9097909650945050505050565b80516109dc90606d906020840190611c42565b60006112e18484846116c6565b90505b9392505050565b6112f684848461114d565b61130284848484611790565b610ca25760405162461bcd60e51b8152600401808060200182810382526032815260200180611d066032913960400191505060405180910390fd5b60608161136257506040805180820190915260018152600360fc1b60208201526106fb565b8160005b811561137a57600101600a82049150611366565b60008167ffffffffffffffff8111801561139357600080fd5b506040519080825280601f01601f1916602001820160405280156113be576020820181803683370190505b50859350905060001982015b831561140f57600a840660300160f81b828280600190039350815181106113ed57fe5b60200101906001600160f81b031916908160001a905350600a840493506113ca565b50949350505050565b6001600160a01b038216611473576040805162461bcd60e51b815260206004820181905260248201527f4552433732313a206d696e7420746f20746865207a65726f2061646472657373604482015290519081900360640190fd5b61147c8161101f565b156114ce576040805162461bcd60e51b815260206004820152601c60248201527f4552433732313a20746f6b656e20616c7265616479206d696e74656400000000604482015290519081900360640190fd5b6114da600083836108ce565b6001600160a01b03821660009081526065602052604090206114fc90826115c5565b50611509606682846115d1565b5060405181906001600160a01b038416906000907fddf252ad1be2c89b69c2b068fc378daa952ba7f163c4a11628f55a4df523b3ef908290a45050565b61154f8261101f565b61158a5760405162461bcd60e51b815260040180806020018281038252602c815260200180611e61602c913960400191505060405180910390fd5b6000828152606c6020908152604090912082516108ce92840190611c42565b600061096383836118f8565b5490565b60006109638383611910565b600061096383836119d6565b60006112e184846001600160a01b038516611a20565b815460009082106116295760405162461bcd60e51b8152600401808060200182810382526022815260200180611ce46022913960400191505060405180910390fd5b82600001828154811061163857fe5b9060005260206000200154905092915050565b81546000908190831061168f5760405162461bcd60e51b8152600401808060200182810382526022815260200180611e136022913960400191505060405180910390fd5b60008460000184815481106116a057fe5b906000526020600020906002020190508060000154816001015492509250509250929050565b600082815260018401602052604081205482816117615760405162461bcd60e51b81526004018080602001828103825283818151815260200191508051906020019080838360005b8381101561172657818101518382015260200161170e565b50505050905090810190601f1680156117535780820380516001836020036101000a031916815260200191505b509250505060405180910390fd5b5084600001600182038154811061177457fe5b9060005260206000209060020201600101549150509392505050565b60006117a4846001600160a01b0316611019565b6117b057506001611145565b60006118be630a85bd0160e11b6117c561102c565b88878760405160240180856001600160a01b03168152602001846001600160a01b0316815260200183815260200180602001828103825283818151815260200191508051906020019080838360005b8381101561182c578181015183820152602001611814565b50505050905090810190601f1680156118595780820380516001836020036101000a031916815260200191505b5095505050505050604051602081830303815290604052906001600160e01b0319166020820180516001600160e01b038381831617835250505050604051806060016040528060328152602001611d06603291396001600160a01b0388169190611ab7565b905060008180602001905160208110156118d757600080fd5b50516001600160e01b031916630a85bd0160e11b1492505050949350505050565b60009081526001919091016020526040902054151590565b600081815260018301602052604081205480156119cc578354600019808301919081019060009087908390811061194357fe5b906000526020600020015490508087600001848154811061196057fe5b60009182526020808320909101929092558281526001898101909252604090209084019055865487908061199057fe5b60019003818190600052602060002001600090559055866001016000878152602001908152602001600020600090556001945050505050610966565b6000915050610966565b60006119e283836118f8565b611a1857508154600181810184556000848152602080822090930184905584548482528286019093526040902091909155610966565b506000610966565b600082815260018401602052604081205480611a855750506040805180820182528381526020808201848152865460018181018955600089815284812095516002909302909501918255915190820155865486845281880190925292909120556112e4565b82856000016001830381548110611a9857fe5b90600052602060002090600202016001018190555060009150506112e4565b60606112e1848460008585611acb85611019565b611b1c576040805162461bcd60e51b815260206004820152601d60248201527f416464726573733a2063616c6c20746f206e6f6e2d636f6e7472616374000000604482015290519081900360640190fd5b600080866001600160a01b031685876040518082805190602001908083835b60208310611b5a5780518252601f199092019160209182019101611b3b565b6001836020036101000a03801982511681845116808217855250505050505090500191505060006040518083038185875af1925050503d8060008114611bbc576040519150601f19603f3d011682016040523d82523d6000602084013e611bc1565b606091505b5091509150611bd1828286611bdc565b979650505050505050565b60608315611beb5750816112e4565b825115611bfb5782518084602001fd5b60405162461bcd60e51b815260206004820181815284516024840152845185939192839260440191908501908083836000831561172657818101518382015260200161170e565b828054600181600116156101000203166002900490600052602060002090601f016020900481019282611c785760008555611cbe565b82601f10611c9157805160ff1916838001178555611cbe565b82800160010185558215611cbe579182015b82811115611cbe578251825591602001919060010190611ca3565b50611cca929150611cce565b5090565b5b80821115611cca5760008155600101611ccf56fe456e756d657261626c655365743a20696e646578206f7574206f6620626f756e64734552433732313a207472616e7366657220746f206e6f6e20455243373231526563656976657220696d706c656d656e7465724552433732313a207472616e7366657220746f20746865207a65726f20616464726573734552433732313a206f70657261746f7220717565727920666f72206e6f6e6578697374656e7420746f6b656e4552433732313a20617070726f76652063616c6c6572206973206e6f74206f776e6572206e6f7220617070726f76656420666f7220616c6c4552433732313a2062616c616e636520717565727920666f7220746865207a65726f20616464726573734552433732313a206f776e657220717565727920666f72206e6f6e6578697374656e7420746f6b656e456e756d657261626c654d61703a20696e646578206f7574206f6620626f756e64734552433732313a20617070726f76656420717565727920666f72206e6f6e6578697374656e7420746f6b656e4552433732314d657461646174613a2055524920736574206f66206e6f6e6578697374656e7420746f6b656e4552433732313a207472616e73666572206f6620746f6b656e2074686174206973206e6f74206f776e4552433732314d657461646174613a2055524920717565727920666f72206e6f6e6578697374656e7420746f6b656e4552433732313a20617070726f76616c20746f2063757272656e74206f776e65724552433732313a207472616e736665722063616c6c6572206973206e6f74206f776e6572206e6f7220617070726f766564a264697066735822122098b3a8714a5128374cba3d5bf7854b9e0f89340066b4aef6e0b8befb80461b4864736f6c63430007060033496e697469616c697a61626c653a20636f6e747261637420697320616c726561647920696e697469616c697a6564",
  "immutableReferences": {},
  "source": "// SPDX-License-Identifier: MIT\n\npragma solidity 0.7.6;\n\nimport \"@openzeppelin/contracts-upgradeable/token/ERC721/ERC721Upgradeable.sol\";\n\ncontract TestERC721EX is ERC721Upgradeable {\n    string private _contractURI;\n\n    constructor(string memory _name, string memory _symbol, string memory uri) {\n        __ERC721_init(_name, _symbol);\n        _contractURI = uri;\n        emit CreateERC721Rarible(_msgSender(), _name, _symbol);\n    }\n\n    function mint(address to, uint tokenId, string memory tokenURI) external {\n        _mint(to, tokenId);\n        _setTokenURI(tokenId, tokenURI);\n    }\n\n    function setBaseURI(string calldata uri) external {\n        _setBaseURI(uri);\n    }\n\n    function setContractURI(string memory uri) external {\n        _contractURI = uri;\n    }\n\n    function contractURI() external view returns (string memory) {\n        return _contractURI;\n    }\n\n    function reveal(uint256 _index) external {\n        emit TokenURIRevealed(_index, \"test\");\n    }\n\n    function getBatchIdAtIndex(uint256 _index) external view returns (uint256) {\n        return 10;\n    }\n\n    event TokenURIRevealed(uint256 indexed index, string revealedURI);\n    event CreateERC721Rarible(address owner, string name, string symbol);\n}\n",
  "sourcePath": "/Users/rnovikov/workspace/rarible/protocol-contracts/projects/tokens-test/contracts/TestERC721EX.sol",
  "compiler": {
    "name": "solc",
    "version": "0.7.6+commit.7338295f.Emscripten.clang"
  },
  "schemaVersion": "3.4.16",
  "updatedAt": "2024-10-16T18:43:11.950Z",
  "devdoc": {
    "kind": "dev",
    "methods": {
      "approve(address,uint256)": {
        "details": "See {IERC721-approve}."
      },
      "balanceOf(address)": {
        "details": "See {IERC721-balanceOf}."
      },
      "baseURI()": {
        "details": "Returns the base URI set via {_setBaseURI}. This will be automatically added as a prefix in {tokenURI} to each token's URI, or to the token ID if no specific URI is set for that token ID."
      },
      "getApproved(uint256)": {
        "details": "See {IERC721-getApproved}."
      },
      "isApprovedForAll(address,address)": {
        "details": "See {IERC721-isApprovedForAll}."
      },
      "name()": {
        "details": "See {IERC721Metadata-name}."
      },
      "ownerOf(uint256)": {
        "details": "See {IERC721-ownerOf}."
      },
      "safeTransferFrom(address,address,uint256)": {
        "details": "See {IERC721-safeTransferFrom}."
      },
      "safeTransferFrom(address,address,uint256,bytes)": {
        "details": "See {IERC721-safeTransferFrom}."
      },
      "setApprovalForAll(address,bool)": {
        "details": "See {IERC721-setApprovalForAll}."
      },
      "supportsInterface(bytes4)": {
        "details": "See {IERC165-supportsInterface}. Time complexity O(1), guaranteed to always use less than 30 000 gas."
      },
      "symbol()": {
        "details": "See {IERC721Metadata-symbol}."
      },
      "tokenByIndex(uint256)": {
        "details": "See {IERC721Enumerable-tokenByIndex}."
      },
      "tokenOfOwnerByIndex(address,uint256)": {
        "details": "See {IERC721Enumerable-tokenOfOwnerByIndex}."
      },
      "tokenURI(uint256)": {
        "details": "See {IERC721Metadata-tokenURI}."
      },
      "totalSupply()": {
        "details": "See {IERC721Enumerable-totalSupply}."
      },
      "transferFrom(address,address,uint256)": {
        "details": "See {IERC721-transferFrom}."
      }
    },
    "version": 1
  },
  "userdoc": {
    "kind": "user",
    "methods": {},
    "version": 1
  }
}