{
  "contractName": "TestERC1155",
  "abi": [
    {
      "inputs": [],
      "stateMutability": "nonpayable",
      "type": "constructor"
    },
    {
      "anonymous": false,
      "inputs": [
        {
          "indexed": true,
          "internalType": "address",
          "name": "account",
          "type": "address"
        },
        {
          "indexed": true,
          "internalType": "address",
          "name": "operator",
          "type": "address"
        },
        {
          "indexed": false,
          "internalType": "bool",
          "name": "approved",
          "type": "bool"
        }
      ],
      "name": "ApprovalForAll",
      "type": "event"
    },
    {
      "anonymous": false,
      "inputs": [
        {
          "indexed": true,
          "internalType": "address",
          "name": "operator",
          "type": "address"
        },
        {
          "indexed": true,
          "internalType": "address",
          "name": "from",
          "type": "address"
        },
        {
          "indexed": true,
          "internalType": "address",
          "name": "to",
          "type": "address"
        },
        {
          "indexed": false,
          "internalType": "uint256[]",
          "name": "ids",
          "type": "uint256[]"
        },
        {
          "indexed": false,
          "internalType": "uint256[]",
          "name": "values",
          "type": "uint256[]"
        }
      ],
      "name": "TransferBatch",
      "type": "event"
    },
    {
      "anonymous": false,
      "inputs": [
        {
          "indexed": true,
          "internalType": "address",
          "name": "operator",
          "type": "address"
        },
        {
          "indexed": true,
          "internalType": "address",
          "name": "from",
          "type": "address"
        },
        {
          "indexed": true,
          "internalType": "address",
          "name": "to",
          "type": "address"
        },
        {
          "indexed": false,
          "internalType": "uint256",
          "name": "tokenId",
          "type": "uint256"
        },
        {
          "indexed": false,
          "internalType": "uint256",
          "name": "value",
          "type": "uint256"
        }
      ],
      "name": "TransferSingle",
      "type": "event"
    },
    {
      "anonymous": false,
      "inputs": [
        {
          "indexed": false,
          "internalType": "string",
          "name": "value",
          "type": "string"
        },
        {
          "indexed": true,
          "internalType": "uint256",
          "name": "tokenId",
          "type": "uint256"
        }
      ],
      "name": "URI",
      "type": "event"
    },
    {
      "inputs": [
        {
          "internalType": "address",
          "name": "account",
          "type": "address"
        },
        {
          "internalType": "uint256",
          "name": "id",
          "type": "uint256"
        }
      ],
      "name": "balanceOf",
      "outputs": [
        {
          "internalType": "uint256",
          "name": "",
          "type": "uint256"
        }
      ],
      "stateMutability": "view",
      "type": "function"
    },
    {
      "inputs": [
        {
          "internalType": "address[]",
          "name": "accounts",
          "type": "address[]"
        },
        {
          "internalType": "uint256[]",
          "name": "ids",
          "type": "uint256[]"
        }
      ],
      "name": "balanceOfBatch",
      "outputs": [
        {
          "internalType": "uint256[]",
          "name": "",
          "type": "uint256[]"
        }
      ],
      "stateMutability": "view",
      "type": "function"
    },
    {
      "inputs": [
        {
          "internalType": "address",
          "name": "account",
          "type": "address"
        },
        {
          "internalType": "address",
          "name": "operator",
          "type": "address"
        }
      ],
      "name": "isApprovedForAll",
      "outputs": [
        {
          "internalType": "bool",
          "name": "",
          "type": "bool"
        }
      ],
      "stateMutability": "view",
      "type": "function"
    },
    {
      "inputs": [
        {
          "internalType": "address",
          "name": "from",
          "type": "address"
        },
        {
          "internalType": "address",
          "name": "to",
          "type": "address"
        },
        {
          "internalType": "uint256[]",
          "name": "ids",
          "type": "uint256[]"
        },
        {
          "internalType": "uint256[]",
          "name": "amounts",
          "type": "uint256[]"
        },
        {
          "internalType": "bytes",
          "name": "data",
          "type": "bytes"
        }
      ],
      "name": "safeBatchTransferFrom",
      "outputs": [],
      "stateMutability": "nonpayable",
      "type": "function"
    },
    {
      "inputs": [
        {
          "internalType": "address",
          "name": "from",
          "type": "address"
        },
        {
          "internalType": "address",
          "name": "to",
          "type": "address"
        },
        {
          "internalType": "uint256",
          "name": "id",
          "type": "uint256"
        },
        {
          "internalType": "uint256",
          "name": "amount",
          "type": "uint256"
        },
        {
          "internalType": "bytes",
          "name": "data",
          "type": "bytes"
        }
      ],
      "name": "safeTransferFrom",
      "outputs": [],
      "stateMutability": "nonpayable",
      "type": "function"
    },
    {
      "inputs": [
        {
          "internalType": "address",
          "name": "operator",
          "type": "address"
        },
        {
          "internalType": "bool",
          "name": "approved",
          "type": "bool"
        }
      ],
      "name": "setApprovalForAll",
      "outputs": [],
      "stateMutability": "nonpayable",
      "type": "function"
    },
    {
      "inputs": [
        {
          "internalType": "bytes4",
          "name": "interfaceId",
          "type": "bytes4"
        }
      ],
      "name": "supportsInterface",
      "outputs": [
        {
          "internalType": "bool",
          "name": "",
          "type": "bool"
        }
      ],
      "stateMutability": "view",
      "type": "function"
    },
    {
      "inputs": [
        {
          "internalType": "uint256",
          "name": "",
          "type": "uint256"
        }
      ],
      "name": "uri",
      "outputs": [
        {
          "internalType": "string",
          "name": "",
          "type": "string"
        }
      ],
      "stateMutability": "view",
      "type": "function"
    },
    {
      "inputs": [
        {
          "internalType": "address",
          "name": "to",
          "type": "address"
        },
        {
          "internalType": "uint256",
          "name": "tokenId",
          "type": "uint256"
        },
        {
          "internalType": "uint256",
          "name": "amount",
          "type": "uint256"
        }
      ],
      "name": "mint",
      "outputs": [],
      "stateMutability": "nonpayable",
      "type": "function"
    },
    {
      "inputs": [
        {
          "internalType": "address[]",
          "name": "froms",
          "type": "address[]"
        },
        {
          "internalType": "address[]",
          "name": "tos",
          "type": "address[]"
        },
        {
          "internalType": "uint256[]",
          "name": "ids",
          "type": "uint256[]"
        },
        {
          "internalType": "uint256[]",
          "name": "amounts",
          "type": "uint256[]"
        }
      ],
      "name": "batchSafeTransferFrom",
      "outputs": [],
      "stateMutability": "nonpayable",
      "type": "function"
    }
  ],
  "bytecode": "0x60806040523480156200001157600080fd5b5060408051808201909152600381526275726960e81b60208201526200003e6301ffc9a760e01b62000074565b6200004981620000f9565b6200005b636cdb3d1360e11b62000074565b6200006d6303a24d0760e21b62000074565b50620001be565b6001600160e01b03198082161415620000d4576040805162461bcd60e51b815260206004820152601c60248201527f4552433136353a20696e76616c696420696e7465726661636520696400000000604482015290519081900360640190fd5b6001600160e01b0319166000908152602081905260409020805460ff19166001179055565b80516200010e90600390602084019062000112565b5050565b828054600181600116156101000203166002900490600052602060002090601f0160209004810192826200014a576000855562000195565b82601f106200016557805160ff191683800117855562000195565b8280016001018555821562000195579182015b828111156200019557825182559160200191906001019062000178565b50620001a3929150620001a7565b5090565b5b80821115620001a35760008155600101620001a8565b611ab780620001ce6000396000f3fe608060405234801561001057600080fd5b506004361061009d5760003560e01c80632eb2c2d6116100665780632eb2c2d6146104085780634e1273f4146105c9578063a22cb4651461073c578063e985e9c51461076a578063f242432a146107985761009d565b8062fdd58e146100a257806301ffc9a7146100e05780630e89341c1461011b5780630ef57425146101ad578063156e29f6146103d6575b600080fd5b6100ce600480360360408110156100b857600080fd5b506001600160a01b038135169060200135610861565b60408051918252519081900360200190f35b610107600480360360208110156100f657600080fd5b50356001600160e01b0319166108d0565b604080519115158252519081900360200190f35b6101386004803603602081101561013157600080fd5b50356108ef565b6040805160208082528351818301528351919283929083019185019080838360005b8381101561017257818101518382015260200161015a565b50505050905090810190601f16801561019f5780820380516001836020036101000a031916815260200191505b509250505060405180910390f35b6103d4600480360360808110156101c357600080fd5b810190602081018135600160201b8111156101dd57600080fd5b8201836020820111156101ef57600080fd5b803590602001918460208302840111600160201b8311171561021057600080fd5b9190808060200260200160405190810160405280939291908181526020018383602002808284376000920191909152509295949360208101935035915050600160201b81111561025f57600080fd5b82018360208201111561027157600080fd5b803590602001918460208302840111600160201b8311171561029257600080fd5b9190808060200260200160405190810160405280939291908181526020018383602002808284376000920191909152509295949360208101935035915050600160201b8111156102e157600080fd5b8201836020820111156102f357600080fd5b803590602001918460208302840111600160201b8311171561031457600080fd5b9190808060200260200160405190810160405280939291908181526020018383602002808284376000920191909152509295949360208101935035915050600160201b81111561036357600080fd5b82018360208201111561037557600080fd5b803590602001918460208302840111600160201b8311171561039657600080fd5b919080806020026020016040519081016040528093929190818152602001838360200280828437600092019190915250929550610987945050505050565b005b6103d4600480360360608110156103ec57600080fd5b506001600160a01b038135169060208101359060400135610adf565b6103d4600480360360a081101561041e57600080fd5b6001600160a01b038235811692602081013590911691810190606081016040820135600160201b81111561045157600080fd5b82018360208201111561046357600080fd5b803590602001918460208302840111600160201b8311171561048457600080fd5b9190808060200260200160405190810160405280939291908181526020018383602002808284376000920191909152509295949360208101935035915050600160201b8111156104d357600080fd5b8201836020820111156104e557600080fd5b803590602001918460208302840111600160201b8311171561050657600080fd5b9190808060200260200160405190810160405280939291908181526020018383602002808284376000920191909152509295949360208101935035915050600160201b81111561055557600080fd5b82018360208201111561056757600080fd5b803590602001918460018302840111600160201b8311171561058857600080fd5b91908080601f016020809104026020016040519081016040528093929190818152602001838380828437600092019190915250929550610aff945050505050565b6106ec600480360360408110156105df57600080fd5b810190602081018135600160201b8111156105f957600080fd5b82018360208201111561060b57600080fd5b803590602001918460208302840111600160201b8311171561062c57600080fd5b9190808060200260200160405190810160405280939291908181526020018383602002808284376000920191909152509295949360208101935035915050600160201b81111561067b57600080fd5b82018360208201111561068d57600080fd5b803590602001918460208302840111600160201b831117156106ae57600080fd5b919080806020026020016040519081016040528093929190818152602001838360200280828437600092019190915250929550610dfd945050505050565b60408051602080825283518183015283519192839290830191858101910280838360005b83811015610728578181015183820152602001610710565b505050509050019250505060405180910390f35b6103d46004803603604081101561075257600080fd5b506001600160a01b0381351690602001351515610ee9565b6101076004803603604081101561078057600080fd5b506001600160a01b0381358116916020013516610fd8565b6103d4600480360360a08110156107ae57600080fd5b6001600160a01b03823581169260208101359091169160408201359160608101359181019060a081016080820135600160201b8111156107ed57600080fd5b8201836020820111156107ff57600080fd5b803590602001918460018302840111600160201b8311171561082057600080fd5b91908080601f016020809104026020016040519081016040528093929190818152602001838380828437600092019190915250929550611006945050505050565b60006001600160a01b0383166108a85760405162461bcd60e51b815260040180806020018281038252602b815260200180611912602b913960400191505060405180910390fd5b5060009081526001602090815260408083206001600160a01b03949094168352929052205490565b6001600160e01b03191660009081526020819052604090205460ff1690565b60038054604080516020601f600260001961010060018816150201909516949094049384018190048102820181019092528281526060939092909183018282801561097b5780601f106109505761010080835404028352916020019161097b565b820191906000526020600020905b81548152906001019060200180831161095e57829003601f168201915b50505050509050919050565b82518451146109ce576040805162461bcd60e51b815260206004820152600e60248201526d77726f6e67206c656e677468203160901b604482015290519081900360640190fd5b8151835114610a15576040805162461bcd60e51b815260206004820152600e60248201526d3bb937b733903632b733ba34101960911b604482015290519081900360640190fd5b8051825114610a5c576040805162461bcd60e51b815260206004820152600e60248201526d77726f6e67206c656e677468203360901b604482015290519081900360640190fd5b60005b8451811015610ad857610ad0858281518110610a7757fe5b6020026020010151858381518110610a8b57fe5b6020026020010151858481518110610a9f57fe5b6020026020010151858581518110610ab357fe5b602002602001015160405180602001604052806000815250611006565b600101610a5f565b5050505050565b610afa838383604051806020016040528060008152506111d1565b505050565b8151835114610b3f5760405162461bcd60e51b8152600401808060200182810382526028815260200180611a396028913960400191505060405180910390fd5b6001600160a01b038416610b845760405162461bcd60e51b81526004018080602001828103825260258152602001806119666025913960400191505060405180910390fd5b610b8c6112d2565b6001600160a01b0316856001600160a01b03161480610bb75750610bb785610bb26112d2565b610fd8565b610bf25760405162461bcd60e51b815260040180806020018281038252603281526020018061198b6032913960400191505060405180910390fd5b6000610bfc6112d2565b9050610c0c818787878787610df5565b60005b8451811015610d0d576000858281518110610c2657fe5b602002602001015190506000858381518110610c3e57fe5b60200260200101519050610cab816040518060600160405280602a81526020016119bd602a91396001600086815260200190815260200160002060008d6001600160a01b03166001600160a01b03168152602001908152602001600020546112d79092919063ffffffff16565b60008381526001602090815260408083206001600160a01b038e811685529252808320939093558a1681522054610ce2908261136e565b60009283526001602081815260408086206001600160a01b038d168752909152909320555001610c0f565b50846001600160a01b0316866001600160a01b0316826001600160a01b03167f4a39dc06d4c0dbc64b70af90fd698a233a518aa5d07e595d983b8c0526c8f7fb8787604051808060200180602001838103835285818151815260200191508051906020019060200280838360005b83811015610d93578181015183820152602001610d7b565b50505050905001838103825284818151815260200191508051906020019060200280838360005b83811015610dd2578181015183820152602001610dba565b5050505090500194505050505060405180910390a4610df58187878787876113cf565b505050505050565b60608151835114610e3f5760405162461bcd60e51b8152600401808060200182810382526029815260200180611a106029913960400191505060405180910390fd5b6000835167ffffffffffffffff81118015610e5957600080fd5b50604051908082528060200260200182016040528015610e83578160200160208202803683370190505b50905060005b8451811015610ee157610ec2858281518110610ea157fe5b6020026020010151858381518110610eb557fe5b6020026020010151610861565b828281518110610ece57fe5b6020908102919091010152600101610e89565b509392505050565b816001600160a01b0316610efb6112d2565b6001600160a01b03161415610f415760405162461bcd60e51b81526004018080602001828103825260298152602001806119e76029913960400191505060405180910390fd5b8060026000610f4e6112d2565b6001600160a01b03908116825260208083019390935260409182016000908120918716808252919093529120805460ff191692151592909217909155610f926112d2565b6001600160a01b03167f17307eab39ab6107e8899845ad3d59bd9653f200f220920489ca2b5937696c318360405180821515815260200191505060405180910390a35050565b6001600160a01b03918216600090815260026020908152604080832093909416825291909152205460ff1690565b6001600160a01b03841661104b5760405162461bcd60e51b81526004018080602001828103825260258152602001806119666025913960400191505060405180910390fd5b6110536112d2565b6001600160a01b0316856001600160a01b03161480611079575061107985610bb26112d2565b6110b45760405162461bcd60e51b815260040180806020018281038252602981526020018061193d6029913960400191505060405180910390fd5b60006110be6112d2565b90506110de8187876110cf8861164e565b6110d88861164e565b87610df5565b611125836040518060600160405280602a81526020016119bd602a913960008781526001602090815260408083206001600160a01b038d16845290915290205491906112d7565b60008581526001602090815260408083206001600160a01b038b8116855292528083209390935587168152205461115c908461136e565b60008581526001602090815260408083206001600160a01b03808b168086529184529382902094909455805188815291820187905280518a8416938616927fc3d58168c5ae7397731d063d5bbf3d657854427343f4c083240f7aacaa2d0f6292908290030190a4610df5818787878787611693565b6001600160a01b0384166112165760405162461bcd60e51b8152600401808060200182810382526021815260200180611a616021913960400191505060405180910390fd5b60006112206112d2565b9050611232816000876110cf8861164e565b60008481526001602090815260408083206001600160a01b038916845290915290205461125f908461136e565b60008581526001602090815260408083206001600160a01b03808b16808652918452828520959095558151898152928301889052815190948616927fc3d58168c5ae7397731d063d5bbf3d657854427343f4c083240f7aacaa2d0f6292908290030190a4610ad881600087878787611693565b335b90565b600081848411156113665760405162461bcd60e51b81526004018080602001828103825283818151815260200191508051906020019080838360005b8381101561132b578181015183820152602001611313565b50505050905090810190601f1680156113585780820380516001836020036101000a031916815260200191505b509250505060405180910390fd5b505050900390565b6000828201838110156113c8576040805162461bcd60e51b815260206004820152601b60248201527f536166654d6174683a206164646974696f6e206f766572666c6f770000000000604482015290519081900360640190fd5b9392505050565b6113e1846001600160a01b0316611804565b15610df557836001600160a01b031663bc197c8187878686866040518663ffffffff1660e01b815260040180866001600160a01b03168152602001856001600160a01b03168152602001806020018060200180602001848103845287818151815260200191508051906020019060200280838360005b8381101561146f578181015183820152602001611457565b50505050905001848103835286818151815260200191508051906020019060200280838360005b838110156114ae578181015183820152602001611496565b50505050905001848103825285818151815260200191508051906020019080838360005b838110156114ea5781810151838201526020016114d2565b50505050905090810190601f1680156115175780820380516001836020036101000a031916815260200191505b5098505050505050505050602060405180830381600087803b15801561153c57600080fd5b505af192505050801561156157506040513d602081101561155c57600080fd5b505160015b6115f65761156d611810565b8061157857506115bf565b60405162461bcd60e51b815260206004820181815283516024840152835184939192839260440191908501908083836000831561132b578181015183820152602001611313565b60405162461bcd60e51b81526004018080602001828103825260348152602001806118b66034913960400191505060405180910390fd5b6001600160e01b0319811663bc197c8160e01b146116455760405162461bcd60e51b81526004018080602001828103825260288152602001806118ea6028913960400191505060405180910390fd5b50505050505050565b6040805160018082528183019092526060916000919060208083019080368337019050509050828160008151811061168257fe5b602090810291909101015292915050565b6116a5846001600160a01b0316611804565b15610df557836001600160a01b031663f23a6e6187878686866040518663ffffffff1660e01b815260040180866001600160a01b03168152602001856001600160a01b0316815260200184815260200183815260200180602001828103825283818151815260200191508051906020019080838360005b8381101561173457818101518382015260200161171c565b50505050905090810190601f1680156117615780820380516001836020036101000a031916815260200191505b509650505050505050602060405180830381600087803b15801561178457600080fd5b505af19250505080156117a957506040513d60208110156117a457600080fd5b505160015b6117b55761156d611810565b6001600160e01b0319811663f23a6e6160e01b146116455760405162461bcd60e51b81526004018080602001828103825260288152602001806118ea6028913960400191505060405180910390fd5b3b151590565b60e01c90565b600060443d1015611820576112d4565b600481823e6308c379a0611834825161180a565b1461183e576112d4565b6040513d600319016004823e80513d67ffffffffffffffff816024840111818411171561186e57505050506112d4565b8284019250825191508082111561188857505050506112d4565b503d830160208284010111156118a0575050506112d4565b601f01601f191681016020016040529150509056fe455243313135353a207472616e7366657220746f206e6f6e2045524331313535526563656976657220696d706c656d656e746572455243313135353a204552433131353552656365697665722072656a656374656420746f6b656e73455243313135353a2062616c616e636520717565727920666f7220746865207a65726f2061646472657373455243313135353a2063616c6c6572206973206e6f74206f776e6572206e6f7220617070726f766564455243313135353a207472616e7366657220746f20746865207a65726f2061646472657373455243313135353a207472616e736665722063616c6c6572206973206e6f74206f776e6572206e6f7220617070726f766564455243313135353a20696e73756666696369656e742062616c616e636520666f72207472616e73666572455243313135353a2073657474696e6720617070726f76616c2073746174757320666f722073656c66455243313135353a206163636f756e747320616e6420696473206c656e677468206d69736d61746368455243313135353a2069647320616e6420616d6f756e7473206c656e677468206d69736d61746368455243313135353a206d696e7420746f20746865207a65726f2061646472657373a26469706673582212206ea2aa4b13af231ff0149a27ac52bbf9e8455d38901f1996962baf6fb14c65c864736f6c63430007060033",
  "immutableReferences": {},
  "source": "// SPDX-License-Identifier: MIT\n\npragma solidity 0.7.6;\n\nimport \"@openzeppelin/contracts/token/ERC1155/ERC1155.sol\";\n\ncontract TestERC1155 is ERC1155 {\n\n    constructor() ERC1155(\"uri\"){\n\n    }\n    \n    function mint(address to, uint tokenId, uint amount) external {\n        _mint(to, tokenId, amount, \"\");\n    }\n\n    function batchSafeTransferFrom(\n        address[] memory froms,\n        address[] memory tos,\n        uint256[] memory ids,\n        uint256[] memory amounts\n    ) external {\n        require(froms.length == tos.length, \"wrong length 1\");\n        require(tos.length == ids.length, \"wrong length 2\");\n        require(ids.length == amounts.length, \"wrong length 3\");\n\n        for (uint i = 0; i < froms.length; i ++) {\n            safeTransferFrom(froms[i], tos[i], ids[i], amounts[i], \"\");\n        }\n    }\n\n}\n",
  "sourcePath": "/Users/abukata/Projects/work/protocol-contracts/tokens-test/contracts/TestERC1155.sol",
  "compiler": {
    "name": "solc",
    "version": "0.7.6+commit.7338295f.Emscripten.clang"
  },
  "schemaVersion": "3.4.15",
  "updatedAt": "2023-09-28T11:31:38.729Z",
  "devdoc": {
    "kind": "dev",
    "methods": {
      "balanceOf(address,uint256)": {
        "details": "See {IERC1155-balanceOf}. Requirements: - `account` cannot be the zero address."
      },
      "balanceOfBatch(address[],uint256[])": {
        "details": "See {IERC1155-balanceOfBatch}. Requirements: - `accounts` and `ids` must have the same length."
      },
      "isApprovedForAll(address,address)": {
        "details": "See {IERC1155-isApprovedForAll}."
      },
      "safeBatchTransferFrom(address,address,uint256[],uint256[],bytes)": {
        "details": "See {IERC1155-safeBatchTransferFrom}."
      },
      "safeTransferFrom(address,address,uint256,uint256,bytes)": {
        "details": "See {IERC1155-safeTransferFrom}."
      },
      "setApprovalForAll(address,bool)": {
        "details": "See {IERC1155-setApprovalForAll}."
      },
      "supportsInterface(bytes4)": {
        "details": "See {IERC165-supportsInterface}. Time complexity O(1), guaranteed to always use less than 30 000 gas."
      },
      "uri(uint256)": {
        "details": "See {IERC1155MetadataURI-uri}. This implementation returns the same URI for *all* token types. It relies on the token type ID substitution mechanism https://eips.ethereum.org/EIPS/eip-1155#metadata[defined in the EIP]. Clients calling this function must replace the `\\{id\\}` substring with the actual token type ID."
      }
    },
    "version": 1
  },
  "userdoc": {
    "kind": "user",
    "methods": {},
    "version": 1
  }
}