{
  "contractName": "TestERC721EX",
  "abi": [
    {
      "inputs": [
        {
          "internalType": "string",
          "name": "_name",
          "type": "string"
        },
        {
          "internalType": "string",
          "name": "_symbol",
          "type": "string"
        }
      ],
      "stateMutability": "nonpayable",
      "type": "constructor"
    },
    {
      "anonymous": false,
      "inputs": [
        {
          "indexed": true,
          "internalType": "address",
          "name": "owner",
          "type": "address"
        },
        {
          "indexed": true,
          "internalType": "address",
          "name": "approved",
          "type": "address"
        },
        {
          "indexed": true,
          "internalType": "uint256",
          "name": "tokenId",
          "type": "uint256"
        }
      ],
      "name": "Approval",
      "type": "event"
    },
    {
      "anonymous": false,
      "inputs": [
        {
          "indexed": true,
          "internalType": "address",
          "name": "owner",
          "type": "address"
        },
        {
          "indexed": true,
          "internalType": "address",
          "name": "operator",
          "type": "address"
        },
        {
          "indexed": false,
          "internalType": "bool",
          "name": "approved",
          "type": "bool"
        }
      ],
      "name": "ApprovalForAll",
      "type": "event"
    },
    {
      "anonymous": false,
      "inputs": [
        {
          "indexed": true,
          "internalType": "uint256",
          "name": "index",
          "type": "uint256"
        },
        {
          "indexed": false,
          "internalType": "string",
          "name": "revealedURI",
          "type": "string"
        }
      ],
      "name": "TokenURIRevealed",
      "type": "event"
    },
    {
      "anonymous": false,
      "inputs": [
        {
          "indexed": true,
          "internalType": "address",
          "name": "from",
          "type": "address"
        },
        {
          "indexed": true,
          "internalType": "address",
          "name": "to",
          "type": "address"
        },
        {
          "indexed": true,
          "internalType": "uint256",
          "name": "tokenId",
          "type": "uint256"
        }
      ],
      "name": "Transfer",
      "type": "event"
    },
    {
      "inputs": [
        {
          "internalType": "address",
          "name": "to",
          "type": "address"
        },
        {
          "internalType": "uint256",
          "name": "tokenId",
          "type": "uint256"
        }
      ],
      "name": "approve",
      "outputs": [],
      "stateMutability": "nonpayable",
      "type": "function"
    },
    {
      "inputs": [
        {
          "internalType": "address",
          "name": "owner",
          "type": "address"
        }
      ],
      "name": "balanceOf",
      "outputs": [
        {
          "internalType": "uint256",
          "name": "",
          "type": "uint256"
        }
      ],
      "stateMutability": "view",
      "type": "function"
    },
    {
      "inputs": [],
      "name": "baseURI",
      "outputs": [
        {
          "internalType": "string",
          "name": "",
          "type": "string"
        }
      ],
      "stateMutability": "view",
      "type": "function"
    },
    {
      "inputs": [
        {
          "internalType": "uint256",
          "name": "tokenId",
          "type": "uint256"
        }
      ],
      "name": "getApproved",
      "outputs": [
        {
          "internalType": "address",
          "name": "",
          "type": "address"
        }
      ],
      "stateMutability": "view",
      "type": "function"
    },
    {
      "inputs": [
        {
          "internalType": "address",
          "name": "owner",
          "type": "address"
        },
        {
          "internalType": "address",
          "name": "operator",
          "type": "address"
        }
      ],
      "name": "isApprovedForAll",
      "outputs": [
        {
          "internalType": "bool",
          "name": "",
          "type": "bool"
        }
      ],
      "stateMutability": "view",
      "type": "function"
    },
    {
      "inputs": [],
      "name": "name",
      "outputs": [
        {
          "internalType": "string",
          "name": "",
          "type": "string"
        }
      ],
      "stateMutability": "view",
      "type": "function"
    },
    {
      "inputs": [
        {
          "internalType": "uint256",
          "name": "tokenId",
          "type": "uint256"
        }
      ],
      "name": "ownerOf",
      "outputs": [
        {
          "internalType": "address",
          "name": "",
          "type": "address"
        }
      ],
      "stateMutability": "view",
      "type": "function"
    },
    {
      "inputs": [
        {
          "internalType": "address",
          "name": "from",
          "type": "address"
        },
        {
          "internalType": "address",
          "name": "to",
          "type": "address"
        },
        {
          "internalType": "uint256",
          "name": "tokenId",
          "type": "uint256"
        }
      ],
      "name": "safeTransferFrom",
      "outputs": [],
      "stateMutability": "nonpayable",
      "type": "function"
    },
    {
      "inputs": [
        {
          "internalType": "address",
          "name": "from",
          "type": "address"
        },
        {
          "internalType": "address",
          "name": "to",
          "type": "address"
        },
        {
          "internalType": "uint256",
          "name": "tokenId",
          "type": "uint256"
        },
        {
          "internalType": "bytes",
          "name": "_data",
          "type": "bytes"
        }
      ],
      "name": "safeTransferFrom",
      "outputs": [],
      "stateMutability": "nonpayable",
      "type": "function"
    },
    {
      "inputs": [
        {
          "internalType": "address",
          "name": "operator",
          "type": "address"
        },
        {
          "internalType": "bool",
          "name": "approved",
          "type": "bool"
        }
      ],
      "name": "setApprovalForAll",
      "outputs": [],
      "stateMutability": "nonpayable",
      "type": "function"
    },
    {
      "inputs": [
        {
          "internalType": "bytes4",
          "name": "interfaceId",
          "type": "bytes4"
        }
      ],
      "name": "supportsInterface",
      "outputs": [
        {
          "internalType": "bool",
          "name": "",
          "type": "bool"
        }
      ],
      "stateMutability": "view",
      "type": "function"
    },
    {
      "inputs": [],
      "name": "symbol",
      "outputs": [
        {
          "internalType": "string",
          "name": "",
          "type": "string"
        }
      ],
      "stateMutability": "view",
      "type": "function"
    },
    {
      "inputs": [
        {
          "internalType": "uint256",
          "name": "index",
          "type": "uint256"
        }
      ],
      "name": "tokenByIndex",
      "outputs": [
        {
          "internalType": "uint256",
          "name": "",
          "type": "uint256"
        }
      ],
      "stateMutability": "view",
      "type": "function"
    },
    {
      "inputs": [
        {
          "internalType": "address",
          "name": "owner",
          "type": "address"
        },
        {
          "internalType": "uint256",
          "name": "index",
          "type": "uint256"
        }
      ],
      "name": "tokenOfOwnerByIndex",
      "outputs": [
        {
          "internalType": "uint256",
          "name": "",
          "type": "uint256"
        }
      ],
      "stateMutability": "view",
      "type": "function"
    },
    {
      "inputs": [
        {
          "internalType": "uint256",
          "name": "tokenId",
          "type": "uint256"
        }
      ],
      "name": "tokenURI",
      "outputs": [
        {
          "internalType": "string",
          "name": "",
          "type": "string"
        }
      ],
      "stateMutability": "view",
      "type": "function"
    },
    {
      "inputs": [],
      "name": "totalSupply",
      "outputs": [
        {
          "internalType": "uint256",
          "name": "",
          "type": "uint256"
        }
      ],
      "stateMutability": "view",
      "type": "function"
    },
    {
      "inputs": [
        {
          "internalType": "address",
          "name": "from",
          "type": "address"
        },
        {
          "internalType": "address",
          "name": "to",
          "type": "address"
        },
        {
          "internalType": "uint256",
          "name": "tokenId",
          "type": "uint256"
        }
      ],
      "name": "transferFrom",
      "outputs": [],
      "stateMutability": "nonpayable",
      "type": "function"
    },
    {
      "inputs": [
        {
          "internalType": "address",
          "name": "to",
          "type": "address"
        },
        {
          "internalType": "uint256",
          "name": "tokenId",
          "type": "uint256"
        },
        {
          "internalType": "string",
          "name": "tokenURI",
          "type": "string"
        }
      ],
      "name": "mint",
      "outputs": [],
      "stateMutability": "nonpayable",
      "type": "function"
    },
    {
      "inputs": [
        {
          "internalType": "string",
          "name": "uri",
          "type": "string"
        }
      ],
      "name": "setBaseURI",
      "outputs": [],
      "stateMutability": "nonpayable",
      "type": "function"
    },
    {
      "inputs": [
        {
          "internalType": "uint256",
          "name": "_index",
          "type": "uint256"
        }
      ],
      "name": "reveal",
      "outputs": [],
      "stateMutability": "nonpayable",
      "type": "function"
    },
    {
      "inputs": [
        {
          "internalType": "uint256",
          "name": "_index",
          "type": "uint256"
        }
      ],
      "name": "getBatchIdAtIndex",
      "outputs": [
        {
          "internalType": "uint256",
          "name": "",
          "type": "uint256"
        }
      ],
      "stateMutability": "view",
      "type": "function"
    }
  ],
  "bytecode": "0x60806040523480156200001157600080fd5b506040516200255f3803806200255f833981810160405260408110156200003757600080fd5b81019080805160405193929190846401000000008211156200005857600080fd5b9083019060208201858111156200006e57600080fd5b82516401000000008111828201881017156200008957600080fd5b82525081516020918201929091019080838360005b83811015620000b85781810151838201526020016200009e565b50505050905090810190601f168015620000e65780820380516001836020036101000a031916815260200191505b50604052602001805160405193929190846401000000008211156200010a57600080fd5b9083019060208201858111156200012057600080fd5b82516401000000008111828201881017156200013b57600080fd5b82525081516020918201929091019080838360005b838110156200016a57818101518382015260200162000150565b50505050905090810190601f168015620001985780820380516001836020036101000a031916815260200191505b50604052505050620001b18282620001b960201b60201c565b505062000620565b600054610100900460ff1680620001d55750620001d562000285565b80620001e4575060005460ff16155b620002215760405162461bcd60e51b815260040180806020018281038252602e81526020018062002531602e913960400191505060405180910390fd5b600054610100900460ff161580156200024d576000805460ff1961ff0019909116610100171660011790555b62000257620002a3565b620002616200034d565b6200026d8383620003f3565b801562000280576000805461ff00191690555b505050565b60006200029d30620004e960201b62000f331760201c565b15905090565b600054610100900460ff1680620002bf5750620002bf62000285565b80620002ce575060005460ff16155b6200030b5760405162461bcd60e51b815260040180806020018281038252602e81526020018062002531602e913960400191505060405180910390fd5b600054610100900460ff1615801562000337576000805460ff1961ff0019909116610100171660011790555b80156200034a576000805461ff00191690555b50565b600054610100900460ff16806200036957506200036962000285565b8062000378575060005460ff16155b620003b55760405162461bcd60e51b815260040180806020018281038252602e81526020018062002531602e913960400191505060405180910390fd5b600054610100900460ff16158015620003e1576000805460ff1961ff0019909116610100171660011790555b620003376301ffc9a760e01b620004ef565b600054610100900460ff16806200040f57506200040f62000285565b806200041e575060005460ff16155b6200045b5760405162461bcd60e51b815260040180806020018281038252602e81526020018062002531602e913960400191505060405180910390fd5b600054610100900460ff1615801562000487576000805460ff1961ff0019909116610100171660011790555b82516200049c90606a90602086019062000574565b508151620004b290606b90602085019062000574565b50620004c56380ac58cd60e01b620004ef565b620004d7635b5e139f60e01b620004ef565b6200026d63780e9d6360e01b620004ef565b3b151590565b6001600160e01b031980821614156200054f576040805162461bcd60e51b815260206004820152601c60248201527f4552433136353a20696e76616c696420696e7465726661636520696400000000604482015290519081900360640190fd5b6001600160e01b0319166000908152603360205260409020805460ff19166001179055565b828054600181600116156101000203166002900490600052602060002090601f016020900481019282620005ac5760008555620005f7565b82601f10620005c757805160ff1916838001178555620005f7565b82800160010185558215620005f7579182015b82811115620005f7578251825591602001919060010190620005da565b506200060592915062000609565b5090565b5b808211156200060557600081556001016200060a565b611f0180620006306000396000f3fe608060405234801561001057600080fd5b50600436106101775760003560e01c806355f804b3116100d8578063a22cb4651161008c578063c87b56dd11610066578063c87b56dd14610573578063d3fc986414610590578063e985e9c51461064b57610177565b8063a22cb46514610462578063b88d4fde14610490578063c2ca0ac51461055657610177565b80636c0360eb116100bd5780636c0360eb1461042c57806370a082311461043457806395d89b411461045a57610177565b806355f804b31461039f5780636352211e1461040f57610177565b806323b872dd1161012f5780632f745c59116101145780632f745c591461032057806342842e0e1461034c5780634f6ccce71461038257610177565b806323b872dd146102cd5780632419f51b1461030357610177565b8063081812fc11610160578063081812fc1461024c578063095ea7b31461028557806318160ddd146102b357610177565b806301ffc9a71461017c57806306fdde03146101cf575b600080fd5b6101bb6004803603602081101561019257600080fd5b50357fffffffff0000000000000000000000000000000000000000000000000000000016610679565b604080519115158252519081900360200190f35b6101d76106b4565b6040805160208082528351818301528351919283929083019185019080838360005b838110156102115781810151838201526020016101f9565b50505050905090810190601f16801561023e5780820380516001836020036101000a031916815260200191505b509250505060405180910390f35b6102696004803603602081101561026257600080fd5b503561074a565b604080516001600160a01b039092168252519081900360200190f35b6102b16004803603604081101561029b57600080fd5b506001600160a01b0381351690602001356107ac565b005b6102bb610887565b60408051918252519081900360200190f35b6102b1600480360360608110156102e357600080fd5b506001600160a01b03813581169160208101359091169060400135610898565b6102bb6004803603602081101561031957600080fd5b50356108ef565b6102bb6004803603604081101561033657600080fd5b506001600160a01b0381351690602001356108f5565b6102b16004803603606081101561036257600080fd5b506001600160a01b03813581169160208101359091169060400135610920565b6102bb6004803603602081101561039857600080fd5b503561093b565b6102b1600480360360208110156103b557600080fd5b8101906020810181356401000000008111156103d057600080fd5b8201836020820111156103e257600080fd5b8035906020019184600183028401116401000000008311171561040457600080fd5b509092509050610951565b6102696004803603602081101561042557600080fd5b5035610955565b6101d761097d565b6102bb6004803603602081101561044a57600080fd5b50356001600160a01b03166109de565b6101d7610a46565b6102b16004803603604081101561047857600080fd5b506001600160a01b0381351690602001351515610aa7565b6102b1600480360360808110156104a657600080fd5b6001600160a01b038235811692602081013590911691604082013591908101906080810160608201356401000000008111156104e157600080fd5b8201836020820111156104f357600080fd5b8035906020019184600183028401116401000000008311171561051557600080fd5b91908080601f016020809104026020016040519081016040528093929190818152602001838380828437600092019190915250929550610bac945050505050565b6102b16004803603602081101561056c57600080fd5b5035610c0a565b6101d76004803603602081101561058957600080fd5b5035610c70565b6102b1600480360360608110156105a657600080fd5b6001600160a01b03823516916020810135918101906060810160408201356401000000008111156105d657600080fd5b8201836020820111156105e857600080fd5b8035906020019184600183028401116401000000008311171561060a57600080fd5b91908080601f016020809104026020016040519081016040528093929190818152602001838380828437600092019190915250929550610ef1945050505050565b6101bb6004803603604081101561066157600080fd5b506001600160a01b0381358116916020013516610f05565b7fffffffff00000000000000000000000000000000000000000000000000000000811660009081526033602052604090205460ff165b919050565b606a8054604080516020601f60026000196101006001881615020190951694909404938401819004810282018101909252828152606093909290918301828280156107405780601f1061071557610100808354040283529160200191610740565b820191906000526020600020905b81548152906001019060200180831161072357829003601f168201915b5050505050905090565b600061075582610f39565b6107905760405162461bcd60e51b815260040180806020018281038252602c815260200180611dca602c913960400191505060405180910390fd5b506000908152606860205260409020546001600160a01b031690565b60006107b782610955565b9050806001600160a01b0316836001600160a01b0316141561080a5760405162461bcd60e51b8152600401808060200182810382526021815260200180611e7a6021913960400191505060405180910390fd5b806001600160a01b031661081c610f46565b6001600160a01b0316148061083d575061083d81610838610f46565b610f05565b6108785760405162461bcd60e51b8152600401808060200182810382526038815260200180611d1d6038913960400191505060405180910390fd5b6108828383610f4a565b505050565b60006108936066610fd0565b905090565b6108a96108a3610f46565b82610fdb565b6108e45760405162461bcd60e51b8152600401808060200182810382526031815260200180611e9b6031913960400191505060405180910390fd5b61088283838361107f565b50600a90565b6001600160a01b038216600090815260656020526040812061091790836111cb565b90505b92915050565b61088283838360405180602001604052806000815250610bac565b6000806109496066846111d7565b509392505050565b5050565b600061091a82604051806060016040528060298152602001611d7f60299139606691906111f3565b606d8054604080516020601f60026000196101006001881615020190951694909404938401819004810282018101909252828152606093909290918301828280156107405780601f1061071557610100808354040283529160200191610740565b60006001600160a01b038216610a255760405162461bcd60e51b815260040180806020018281038252602a815260200180611d55602a913960400191505060405180910390fd5b6001600160a01b038216600090815260656020526040902061091a90610fd0565b606b8054604080516020601f60026000196101006001881615020190951694909404938401819004810282018101909252828152606093909290918301828280156107405780601f1061071557610100808354040283529160200191610740565b610aaf610f46565b6001600160a01b0316826001600160a01b03161415610b15576040805162461bcd60e51b815260206004820152601960248201527f4552433732313a20617070726f766520746f2063616c6c657200000000000000604482015290519081900360640190fd5b8060696000610b22610f46565b6001600160a01b03908116825260208083019390935260409182016000908120918716808252919093529120805460ff191692151592909217909155610b66610f46565b6001600160a01b03167f17307eab39ab6107e8899845ad3d59bd9653f200f220920489ca2b5937696c318360405180821515815260200191505060405180910390a35050565b610bbd610bb7610f46565b83610fdb565b610bf85760405162461bcd60e51b8152600401808060200182810382526031815260200180611e9b6031913960400191505060405180910390fd5b610c048484848461120a565b50505050565b6040805160208082526004908201527f746573740000000000000000000000000000000000000000000000000000000081830152905182917f6df1d8db2a036436ffe0b2d1833f2c5f1e624818dfce2578c0faa4b83ef9998d919081900360600190a250565b6060610c7b82610f39565b610cb65760405162461bcd60e51b815260040180806020018281038252602f815260200180611e4b602f913960400191505060405180910390fd5b6000828152606c602090815260408083208054825160026001831615610100026000190190921691909104601f810185900485028201850190935282815292909190830182828015610d495780601f10610d1e57610100808354040283529160200191610d49565b820191906000526020600020905b815481529060010190602001808311610d2c57829003601f168201915b505050505090506000610d5a61097d565b9050805160001415610d6e575090506106af565b815115610e2f5780826040516020018083805190602001908083835b60208310610da95780518252601f199092019160209182019101610d8a565b51815160209384036101000a600019018019909216911617905285519190930192850191508083835b60208310610df15780518252601f199092019160209182019101610dd2565b6001836020036101000a03801982511681845116808217855250505050505090500192505050604051602081830303815290604052925050506106af565b80610e398561125c565b6040516020018083805190602001908083835b60208310610e6b5780518252601f199092019160209182019101610e4c565b51815160209384036101000a600019018019909216911617905285519190930192850191508083835b60208310610eb35780518252601f199092019160209182019101610e94565b6001836020036101000a0380198251168184511680821785525050505050509050019250505060405160208183030381529060405292505050919050565b610efb838361136b565b6108828282611499565b6001600160a01b03918216600090815260696020908152604080832093909416825291909152205460ff1690565b3b151590565b600061091a6066836114fc565b3390565b600081815260686020526040902080547fffffffffffffffffffffffff0000000000000000000000000000000000000000166001600160a01b0384169081179091558190610f9782610955565b6001600160a01b03167f8c5be1e5ebec7d5bd14f71427d1e84f3dd0314c0f7b2291e5b200ac8c7c3b92560405160405180910390a45050565b600061091a82611508565b6000610fe682610f39565b6110215760405162461bcd60e51b815260040180806020018281038252602c815260200180611cf1602c913960400191505060405180910390fd5b600061102c83610955565b9050806001600160a01b0316846001600160a01b031614806110675750836001600160a01b031661105c8461074a565b6001600160a01b0316145b8061107757506110778185610f05565b949350505050565b826001600160a01b031661109282610955565b6001600160a01b0316146110d75760405162461bcd60e51b8152600401808060200182810382526029815260200180611e226029913960400191505060405180910390fd5b6001600160a01b03821661111c5760405162461bcd60e51b8152600401808060200182810382526024815260200180611ccd6024913960400191505060405180910390fd5b611127838383610882565b611132600082610f4a565b6001600160a01b0383166000908152606560205260409020611154908261150c565b506001600160a01b03821660009081526065602052604090206111779082611518565b5061118460668284611524565b5080826001600160a01b0316846001600160a01b03167fddf252ad1be2c89b69c2b068fc378daa952ba7f163c4a11628f55a4df523b3ef60405160405180910390a4505050565b6000610917838361153a565b60008080806111e6868661159e565b9097909650945050505050565b6000611200848484611619565b90505b9392505050565b61121584848461107f565b611221848484846116e3565b610c045760405162461bcd60e51b8152600401808060200182810382526032815260200180611c9b6032913960400191505060405180910390fd5b60608161129d575060408051808201909152600181527f300000000000000000000000000000000000000000000000000000000000000060208201526106af565b8160005b81156112b557600101600a820491506112a1565b60008167ffffffffffffffff811180156112ce57600080fd5b506040519080825280601f01601f1916602001820160405280156112f9576020820181803683370190505b50859350905060001982015b831561136257600a840660300160f81b8282806001900393508151811061132857fe5b60200101907effffffffffffffffffffffffffffffffffffffffffffffffffffffffffffff1916908160001a905350600a84049350611305565b50949350505050565b6001600160a01b0382166113c6576040805162461bcd60e51b815260206004820181905260248201527f4552433732313a206d696e7420746f20746865207a65726f2061646472657373604482015290519081900360640190fd5b6113cf81610f39565b15611421576040805162461bcd60e51b815260206004820152601c60248201527f4552433732313a20746f6b656e20616c7265616479206d696e74656400000000604482015290519081900360640190fd5b61142d60008383610882565b6001600160a01b038216600090815260656020526040902061144f9082611518565b5061145c60668284611524565b5060405181906001600160a01b038416906000907fddf252ad1be2c89b69c2b068fc378daa952ba7f163c4a11628f55a4df523b3ef908290a45050565b6114a282610f39565b6114dd5760405162461bcd60e51b815260040180806020018281038252602c815260200180611df6602c913960400191505060405180910390fd5b6000828152606c60209081526040909120825161088292840190611bd7565b6000610917838361188d565b5490565b600061091783836118a5565b6000610917838361196b565b600061120084846001600160a01b0385166119b5565b8154600090821061157c5760405162461bcd60e51b8152600401808060200182810382526022815260200180611c796022913960400191505060405180910390fd5b82600001828154811061158b57fe5b9060005260206000200154905092915050565b8154600090819083106115e25760405162461bcd60e51b8152600401808060200182810382526022815260200180611da86022913960400191505060405180910390fd5b60008460000184815481106115f357fe5b906000526020600020906002020190508060000154816001015492509250509250929050565b600082815260018401602052604081205482816116b45760405162461bcd60e51b81526004018080602001828103825283818151815260200191508051906020019080838360005b83811015611679578181015183820152602001611661565b50505050905090810190601f1680156116a65780820380516001836020036101000a031916815260200191505b509250505060405180910390fd5b508460000160018203815481106116c757fe5b9060005260206000209060020201600101549150509392505050565b60006116f7846001600160a01b0316610f33565b61170357506001611077565b600061183b630a85bd0160e11b611718610f46565b88878760405160240180856001600160a01b03168152602001846001600160a01b0316815260200183815260200180602001828103825283818151815260200191508051906020019080838360005b8381101561177f578181015183820152602001611767565b50505050905090810190601f1680156117ac5780820380516001836020036101000a031916815260200191505b5095505050505050604051602081830303815290604052907bffffffffffffffffffffffffffffffffffffffffffffffffffffffff19166020820180517bffffffffffffffffffffffffffffffffffffffffffffffffffffffff8381831617835250505050604051806060016040528060328152602001611c9b603291396001600160a01b0388169190611a4c565b9050600081806020019051602081101561185457600080fd5b50517fffffffff0000000000000000000000000000000000000000000000000000000016630a85bd0160e11b1492505050949350505050565b60009081526001919091016020526040902054151590565b6000818152600183016020526040812054801561196157835460001980830191908101906000908790839081106118d857fe5b90600052602060002001549050808760000184815481106118f557fe5b60009182526020808320909101929092558281526001898101909252604090209084019055865487908061192557fe5b6001900381819060005260206000200160009055905586600101600087815260200190815260200160002060009055600194505050505061091a565b600091505061091a565b6000611977838361188d565b6119ad5750815460018181018455600084815260208082209093018490558454848252828601909352604090209190915561091a565b50600061091a565b600082815260018401602052604081205480611a1a575050604080518082018252838152602080820184815286546001818101895560008981528481209551600290930290950191825591519082015586548684528188019092529290912055611203565b82856000016001830381548110611a2d57fe5b9060005260206000209060020201600101819055506000915050611203565b6060611200848460008585611a6085610f33565b611ab1576040805162461bcd60e51b815260206004820152601d60248201527f416464726573733a2063616c6c20746f206e6f6e2d636f6e7472616374000000604482015290519081900360640190fd5b600080866001600160a01b031685876040518082805190602001908083835b60208310611aef5780518252601f199092019160209182019101611ad0565b6001836020036101000a03801982511681845116808217855250505050505090500191505060006040518083038185875af1925050503d8060008114611b51576040519150601f19603f3d011682016040523d82523d6000602084013e611b56565b606091505b5091509150611b66828286611b71565b979650505050505050565b60608315611b80575081611203565b825115611b905782518084602001fd5b60405162461bcd60e51b8152602060048201818152845160248401528451859391928392604401919085019080838360008315611679578181015183820152602001611661565b828054600181600116156101000203166002900490600052602060002090601f016020900481019282611c0d5760008555611c53565b82601f10611c2657805160ff1916838001178555611c53565b82800160010185558215611c53579182015b82811115611c53578251825591602001919060010190611c38565b50611c5f929150611c63565b5090565b5b80821115611c5f5760008155600101611c6456fe456e756d657261626c655365743a20696e646578206f7574206f6620626f756e64734552433732313a207472616e7366657220746f206e6f6e20455243373231526563656976657220696d706c656d656e7465724552433732313a207472616e7366657220746f20746865207a65726f20616464726573734552433732313a206f70657261746f7220717565727920666f72206e6f6e6578697374656e7420746f6b656e4552433732313a20617070726f76652063616c6c6572206973206e6f74206f776e6572206e6f7220617070726f76656420666f7220616c6c4552433732313a2062616c616e636520717565727920666f7220746865207a65726f20616464726573734552433732313a206f776e657220717565727920666f72206e6f6e6578697374656e7420746f6b656e456e756d657261626c654d61703a20696e646578206f7574206f6620626f756e64734552433732313a20617070726f76656420717565727920666f72206e6f6e6578697374656e7420746f6b656e4552433732314d657461646174613a2055524920736574206f66206e6f6e6578697374656e7420746f6b656e4552433732313a207472616e73666572206f6620746f6b656e2074686174206973206e6f74206f776e4552433732314d657461646174613a2055524920717565727920666f72206e6f6e6578697374656e7420746f6b656e4552433732313a20617070726f76616c20746f2063757272656e74206f776e65724552433732313a207472616e736665722063616c6c6572206973206e6f74206f776e6572206e6f7220617070726f766564a264697066735822122081f0b34291225e982b7672a01431f1cadf0447ead9e17d2b28894dfff8da39b864736f6c63430007060033496e697469616c697a61626c653a20636f6e747261637420697320616c726561647920696e697469616c697a6564",
  "immutableReferences": {},
  "source": "// SPDX-License-Identifier: MIT\n\npragma solidity 0.7.6;\n\nimport \"@openzeppelin/contracts-upgradeable/token/ERC721/ERC721Upgradeable.sol\";\n\ncontract TestERC721EX is ERC721Upgradeable {\n    constructor(string memory _name, string memory _symbol) public {\n        __ERC721_init(_name, _symbol);\n    }\n\n    function mint(address to, uint tokenId, string memory tokenURI) external {\n        _mint(to, tokenId);\n        _setTokenURI(tokenId, tokenURI);\n    }\n\n    function setBaseURI(string calldata uri) external {\n\n    }\n\n    function reveal(uint256 _index) external {\n        emit TokenURIRevealed(_index, \"test\");\n    }\n\n    function getBatchIdAtIndex(uint256 _index) external view returns (uint256) {\n        return 10;\n    }\n\n    event TokenURIRevealed(uint256 indexed index, string revealedURI);\n}\n",
  "sourcePath": "/Users/sergey/Projects/sanufriev/contracts/transfer-proxy/contracts/ethscription/TestERC721EX.sol",
  "compiler": {
    "name": "solc",
    "version": "0.7.6+commit.7338295f.Emscripten.clang"
  },
  "schemaVersion": "3.4.8",
  "updatedAt": "2023-12-28T05:47:23.759Z",
  "devdoc": {
    "kind": "dev",
    "methods": {
      "approve(address,uint256)": {
        "details": "See {IERC721-approve}."
      },
      "balanceOf(address)": {
        "details": "See {IERC721-balanceOf}."
      },
      "baseURI()": {
        "details": "Returns the base URI set via {_setBaseURI}. This will be automatically added as a prefix in {tokenURI} to each token's URI, or to the token ID if no specific URI is set for that token ID."
      },
      "getApproved(uint256)": {
        "details": "See {IERC721-getApproved}."
      },
      "isApprovedForAll(address,address)": {
        "details": "See {IERC721-isApprovedForAll}."
      },
      "name()": {
        "details": "See {IERC721Metadata-name}."
      },
      "ownerOf(uint256)": {
        "details": "See {IERC721-ownerOf}."
      },
      "safeTransferFrom(address,address,uint256)": {
        "details": "See {IERC721-safeTransferFrom}."
      },
      "safeTransferFrom(address,address,uint256,bytes)": {
        "details": "See {IERC721-safeTransferFrom}."
      },
      "setApprovalForAll(address,bool)": {
        "details": "See {IERC721-setApprovalForAll}."
      },
      "supportsInterface(bytes4)": {
        "details": "See {IERC165-supportsInterface}. Time complexity O(1), guaranteed to always use less than 30 000 gas."
      },
      "symbol()": {
        "details": "See {IERC721Metadata-symbol}."
      },
      "tokenByIndex(uint256)": {
        "details": "See {IERC721Enumerable-tokenByIndex}."
      },
      "tokenOfOwnerByIndex(address,uint256)": {
        "details": "See {IERC721Enumerable-tokenOfOwnerByIndex}."
      },
      "tokenURI(uint256)": {
        "details": "See {IERC721Metadata-tokenURI}."
      },
      "totalSupply()": {
        "details": "See {IERC721Enumerable-totalSupply}."
      },
      "transferFrom(address,address,uint256)": {
        "details": "See {IERC721-transferFrom}."
      }
    },
    "version": 1
  },
  "userdoc": {
    "kind": "user",
    "methods": {},
    "version": 1
  }
}